{
  "contractName": "Amazon",
  "abi": [
    {
      "inputs": [],
      "stateMutability": "nonpayable",
      "type": "constructor"
    },
    {
      "anonymous": false,
      "inputs": [
        {
          "indexed": true,
          "internalType": "address",
          "name": "buyer",
          "type": "address"
        },
        {
          "indexed": false,
          "internalType": "uint256",
          "name": "itemId",
          "type": "uint256"
        }
      ],
      "name": "Buy",
      "type": "event"
    },
    {
      "anonymous": false,
      "inputs": [
        {
          "indexed": true,
          "internalType": "uint256",
          "name": "itemId",
          "type": "uint256"
        },
        {
          "indexed": false,
          "internalType": "string",
          "name": "name",
          "type": "string"
        },
        {
          "indexed": false,
          "internalType": "uint256",
          "name": "cost",
          "type": "uint256"
        },
        {
          "indexed": false,
          "internalType": "uint256",
          "name": "stock",
          "type": "uint256"
        }
      ],
      "name": "List",
      "type": "event"
    },
    {
      "inputs": [],
      "name": "itemCount",
      "outputs": [
        {
          "internalType": "uint256",
          "name": "",
          "type": "uint256"
        }
      ],
      "stateMutability": "view",
      "type": "function",
      "constant": true
    },
    {
      "inputs": [
        {
          "internalType": "uint256",
          "name": "",
          "type": "uint256"
        }
      ],
      "name": "items",
      "outputs": [
        {
          "internalType": "uint256",
          "name": "id",
          "type": "uint256"
        },
        {
          "internalType": "string",
          "name": "name",
          "type": "string"
        },
        {
          "internalType": "string",
          "name": "category",
          "type": "string"
        },
        {
          "internalType": "uint256",
          "name": "cost",
          "type": "uint256"
        },
        {
          "internalType": "uint256",
          "name": "stock",
          "type": "uint256"
        }
      ],
      "stateMutability": "view",
      "type": "function",
      "constant": true
    },
    {
      "inputs": [
        {
          "internalType": "address",
          "name": "",
          "type": "address"
        }
      ],
      "name": "orderCount",
      "outputs": [
        {
          "internalType": "uint256",
          "name": "",
          "type": "uint256"
        }
      ],
      "stateMutability": "view",
      "type": "function",
      "constant": true
    },
    {
      "inputs": [],
      "name": "owner",
      "outputs": [
        {
          "internalType": "address",
          "name": "",
          "type": "address"
        }
      ],
      "stateMutability": "view",
      "type": "function",
      "constant": true
    },
    {
      "inputs": [
        {
          "internalType": "uint256",
          "name": "_id",
          "type": "uint256"
        },
        {
          "internalType": "string",
          "name": "_name",
          "type": "string"
        },
        {
          "internalType": "string",
          "name": "_category",
          "type": "string"
        },
        {
          "internalType": "uint256",
          "name": "_costWei",
          "type": "uint256"
        },
        {
          "internalType": "uint256",
          "name": "_stock",
          "type": "uint256"
        }
      ],
      "name": "list",
      "outputs": [],
      "stateMutability": "nonpayable",
      "type": "function"
    },
    {
      "inputs": [
        {
          "internalType": "uint256",
          "name": "_id",
          "type": "uint256"
        }
      ],
      "name": "buy",
      "outputs": [],
      "stateMutability": "payable",
      "type": "function",
      "payable": true
    },
    {
      "inputs": [],
      "name": "withdraw",
      "outputs": [],
      "stateMutability": "nonpayable",
      "type": "function"
    }
  ],
  "bytecode": "0x608060405234801561001057600080fd5b50336000806101000a81548173ffffffffffffffffffffffffffffffffffffffff021916908373ffffffffffffffffffffffffffffffffffffffff1602179055506110bb806100606000396000f3fe6080604052600436106100705760003560e01c8063713d856b1161004e578063713d856b146100e05780638da5cb5b1461011d578063bfb231d214610148578063d96a094a1461018957610070565b80631e755ecc146100755780633ccfd60b1461009e5780636bfb0d01146100b5575b600080fd5b34801561008157600080fd5b5061009c600480360381019061009791906109e0565b6101a5565b005b3480156100aa57600080fd5b506100b361037c565b005b3480156100c157600080fd5b506100ca6104bc565b6040516100d79190610d9d565b60405180910390f35b3480156100ec57600080fd5b506101076004803603810190610102919061098e565b6104c2565b6040516101149190610d9d565b60405180910390f35b34801561012957600080fd5b506101326104da565b60405161013f9190610c84565b60405180910390f35b34801561015457600080fd5b5061016f600480360381019061016a91906109b7565b6104fe565b604051610180959493929190610db8565b60405180910390f35b6101a3600480360381019061019e91906109b7565b610644565b005b60008054906101000a900473ffffffffffffffffffffffffffffffffffffffff1673ffffffffffffffffffffffffffffffffffffffff163373ffffffffffffffffffffffffffffffffffffffff1614610233576040517f08c379a000000000000000000000000000000000000000000000000000000000815260040161022a90610cdd565b60405180910390fd5b600060026000878152602001908152602001600020600001541461028c576040517f08c379a000000000000000000000000000000000000000000000000000000000815260040161028390610d5d565b60405180910390fd5b6040518060a0016040528086815260200185815260200184815260200183815260200182815250600260008781526020019081526020016000206000820151816000015560208201518160010190805190602001906102ec929190610859565b506040820151816002019080519060200190610309929190610859565b5060608201518160030155608082015181600401559050506001600081548092919061033490610f70565b9190505550847f83d0149c0be8dd1398668f5545ab9b7c8230685f4f841e25661690ba25c2323f85848460405161036d93929190610c9f565b60405180910390a25050505050565b60008054906101000a900473ffffffffffffffffffffffffffffffffffffffff1673ffffffffffffffffffffffffffffffffffffffff163373ffffffffffffffffffffffffffffffffffffffff161461040a576040517f08c379a000000000000000000000000000000000000000000000000000000000815260040161040190610cdd565b60405180910390fd5b600047905060008111610452576040517f08c379a000000000000000000000000000000000000000000000000000000000815260040161044990610d1d565b60405180910390fd5b60008054906101000a900473ffffffffffffffffffffffffffffffffffffffff1673ffffffffffffffffffffffffffffffffffffffff166108fc829081150290604051600060405180830381858888f193505050501580156104b8573d6000803e3d6000fd5b5050565b60015481565b60036020528060005260406000206000915090505481565b60008054906101000a900473ffffffffffffffffffffffffffffffffffffffff1681565b600260205280600052604060002060009150905080600001549080600101805461052790610f3e565b80601f016020809104026020016040519081016040528092919081815260200182805461055390610f3e565b80156105a05780601f10610575576101008083540402835291602001916105a0565b820191906000526020600020905b81548152906001019060200180831161058357829003601f168201915b5050505050908060020180546105b590610f3e565b80601f01602080910402602001604051908101604052809291908181526020018280546105e190610f3e565b801561062e5780601f106106035761010080835404028352916020019161062e565b820191906000526020600020905b81548152906001019060200180831161061157829003601f168201915b5050505050908060030154908060040154905085565b60006002600083815260200190815260200160002090506000816000015414156106a3576040517f08c379a000000000000000000000000000000000000000000000000000000000815260040161069a90610d3d565b60405180910390fd5b80600301543410156106ea576040517f08c379a00000000000000000000000000000000000000000000000000000000081526004016106e190610cfd565b60405180910390fd5b6000816004015411610731576040517f08c379a000000000000000000000000000000000000000000000000000000000815260040161072890610d7d565b60405180910390fd5b80600401600081548092919061074690610f14565b9190505550600360003373ffffffffffffffffffffffffffffffffffffffff1673ffffffffffffffffffffffffffffffffffffffff168152602001908152602001600020600081548092919061079b90610f70565b91905055503373ffffffffffffffffffffffffffffffffffffffff167fe3d4187f6ca4248660cc0ac8b8056515bac4a8132be2eca31d6d0cc170722a7e836040516107e69190610d9d565b60405180910390a260008054906101000a900473ffffffffffffffffffffffffffffffffffffffff1673ffffffffffffffffffffffffffffffffffffffff166108fc349081150290604051600060405180830381858888f19350505050158015610854573d6000803e3d6000fd5b505050565b82805461086590610f3e565b90600052602060002090601f01602090048101928261088757600085556108ce565b82601f106108a057805160ff19168380011785556108ce565b828001600101855582156108ce579182015b828111156108cd5782518255916020019190600101906108b2565b5b5090506108db91906108df565b5090565b5b808211156108f85760008160009055506001016108e0565b5090565b600061090f61090a84610e4a565b610e19565b90508281526020810184848401111561092757600080fd5b610932848285610ed2565b509392505050565b60008135905061094981611057565b92915050565b600082601f83011261096057600080fd5b81356109708482602086016108fc565b91505092915050565b6000813590506109888161106e565b92915050565b6000602082840312156109a057600080fd5b60006109ae8482850161093a565b91505092915050565b6000602082840312156109c957600080fd5b60006109d784828501610979565b91505092915050565b600080600080600060a086880312156109f857600080fd5b6000610a0688828901610979565b955050602086013567ffffffffffffffff811115610a2357600080fd5b610a2f8882890161094f565b945050604086013567ffffffffffffffff811115610a4c57600080fd5b610a588882890161094f565b9350506060610a6988828901610979565b9250506080610a7a88828901610979565b9150509295509295909350565b610a9081610e96565b82525050565b6000610aa182610e7a565b610aab8185610e85565b9350610abb818560208601610ee1565b610ac481611046565b840191505092915050565b6000610adc602583610e85565b91507f4f6e6c7920746865206f776e65722063616e2063616c6c20746869732066756e60008301527f6374696f6e0000000000000000000000000000000000000000000000000000006020830152604082019050919050565b6000610b42601c83610e85565b91507f4e6f7420656e6f75676820657468657220746f20627579206974656d000000006000830152602082019050919050565b6000610b82600c83610e85565b91507f42616c616e6365206973203000000000000000000000000000000000000000006000830152602082019050919050565b6000610bc2601383610e85565b91507f4974656d20646f6573206e6f74206578697374000000000000000000000000006000830152602082019050919050565b6000610c02601383610e85565b91507f4974656d20616c726561647920657869737473000000000000000000000000006000830152602082019050919050565b6000610c42601483610e85565b91507f4974656d206973206f7574206f662073746f636b0000000000000000000000006000830152602082019050919050565b610c7e81610ec8565b82525050565b6000602082019050610c996000830184610a87565b92915050565b60006060820190508181036000830152610cb98186610a96565b9050610cc86020830185610c75565b610cd56040830184610c75565b949350505050565b60006020820190508181036000830152610cf681610acf565b9050919050565b60006020820190508181036000830152610d1681610b35565b9050919050565b60006020820190508181036000830152610d3681610b75565b9050919050565b60006020820190508181036000830152610d5681610bb5565b9050919050565b60006020820190508181036000830152610d7681610bf5565b9050919050565b60006020820190508181036000830152610d9681610c35565b9050919050565b6000602082019050610db26000830184610c75565b92915050565b600060a082019050610dcd6000830188610c75565b8181036020830152610ddf8187610a96565b90508181036040830152610df38186610a96565b9050610e026060830185610c75565b610e0f6080830184610c75565b9695505050505050565b6000604051905081810181811067ffffffffffffffff82111715610e4057610e3f611017565b5b8060405250919050565b600067ffffffffffffffff821115610e6557610e64611017565b5b601f19601f8301169050602081019050919050565b600081519050919050565b600082825260208201905092915050565b6000610ea182610ea8565b9050919050565b600073ffffffffffffffffffffffffffffffffffffffff82169050919050565b6000819050919050565b82818337600083830152505050565b60005b83811015610eff578082015181840152602081019050610ee4565b83811115610f0e576000848401525b50505050565b6000610f1f82610ec8565b91506000821415610f3357610f32610fb9565b5b600182039050919050565b60006002820490506001821680610f5657607f821691505b60208210811415610f6a57610f69610fe8565b5b50919050565b6000610f7b82610ec8565b91507fffffffffffffffffffffffffffffffffffffffffffffffffffffffffffffffff821415610fae57610fad610fb9565b5b600182019050919050565b7f4e487b7100000000000000000000000000000000000000000000000000000000600052601160045260246000fd5b7f4e487b7100000000000000000000000000000000000000000000000000000000600052602260045260246000fd5b7f4e487b7100000000000000000000000000000000000000000000000000000000600052604160045260246000fd5b6000601f19601f8301169050919050565b61106081610e96565b811461106b57600080fd5b50565b61107781610ec8565b811461108257600080fd5b5056fea26469706673582212207757eae48a28f59ff891aa80ab097f23e6d444b2f735f44d3ba56f0dc6437ea364736f6c63430008000033",
  "immutableReferences": {},
  "source": "// SPDX-License-Identifier: UNLICENSED\r\npragma solidity ^0.8.0;\r\n\r\ncontract Amazon {\r\n    address public owner;\r\n    uint256 public itemCount;\r\n\r\n    struct Item {\r\n        uint256 id;\r\n        string name;\r\n        string category;\r\n        uint256 cost;\r\n        uint256 stock;\r\n    }\r\n\r\n    mapping(uint256 => Item) public items;\r\n    mapping(address => uint256) public orderCount;\r\n\r\n    event Buy(address indexed buyer, uint256 itemId);\r\n    event List(uint256 indexed itemId, string name, uint256 cost, uint256 stock);\r\n\r\n    modifier onlyOwner() {\r\n        require(msg.sender == owner, \"Only the owner can call this function\");\r\n        _;\r\n    }\r\n\r\n    constructor() {\r\n        owner = msg.sender;\r\n    }\r\n\r\n    function list(\r\n    uint256 _id,\r\n    string memory _name,\r\n    string memory _category,\r\n    uint256 _costWei,  // Indicate that this should be in wei\r\n    uint256 _stock\r\n) public onlyOwner {\r\n    require(items[_id].id == 0, \"Item already exists\");\r\n\r\n    items[_id] = Item({\r\n        id: _id,\r\n        name: _name,\r\n        category: _category,\r\n        cost: _costWei,  // Store cost in wei\r\n        stock: _stock\r\n    });\r\n\r\n    itemCount++;\r\n    emit List(_id, _name, _costWei, _stock);  // Emit cost in wei\r\n}\r\n\r\n\r\n    function buy(uint256 _id) public payable {\r\n        Item storage item = items[_id];\r\n\r\n        require(item.id != 0, \"Item does not exist\");\r\n        require(msg.value >= item.cost, \"Not enough ether to buy item\");\r\n        require(item.stock > 0, \"Item is out of stock\");\r\n\r\n        item.stock--;\r\n        orderCount[msg.sender]++;\r\n        emit Buy(msg.sender, _id);\r\n\r\n        // Transfer the amount to owner\r\n        payable(owner).transfer(msg.value);\r\n    }\r\n\r\n    function withdraw() public onlyOwner {\r\n        uint256 balance = address(this).balance;\r\n        require(balance > 0, \"Balance is 0\");\r\n\r\n        payable(owner).transfer(balance);\r\n    }\r\n}\r\n",
  "sourcePath": "C:\\Users\\marti\\Documents\\projects\\web-3-amazon\\contracts\\Amazon.sol",
  "compiler": {
    "name": "solc",
    "version": "0.8.0+commit.c7dfd78e.Emscripten.clang"
  },
  "schemaVersion": "3.4.16",
  "updatedAt": "2024-04-12T09:40:23.656Z",
  "networkType": "ethereum",
  "devdoc": {
    "kind": "dev",
    "methods": {},
    "version": 1
  },
  "userdoc": {
    "kind": "user",
    "methods": {},
    "version": 1
  }
}