{
  "contractName": "Amazon",
  "abi": [
    {
      "inputs": [],
      "stateMutability": "nonpayable",
      "type": "constructor"
    },
    {
      "anonymous": false,
      "inputs": [
        {
          "indexed": true,
          "internalType": "address",
          "name": "buyer",
          "type": "address"
        },
        {
          "indexed": false,
          "internalType": "uint256",
          "name": "itemId",
          "type": "uint256"
        }
      ],
      "name": "Buy",
      "type": "event"
    },
    {
      "anonymous": false,
      "inputs": [
        {
          "indexed": true,
          "internalType": "uint256",
          "name": "itemId",
          "type": "uint256"
        },
        {
          "indexed": false,
          "internalType": "string",
          "name": "name",
          "type": "string"
        },
        {
          "indexed": false,
          "internalType": "string",
          "name": "imageUrl",
          "type": "string"
        },
        {
          "indexed": false,
          "internalType": "uint256",
          "name": "cost",
          "type": "uint256"
        },
        {
          "indexed": false,
          "internalType": "uint256",
          "name": "stock",
          "type": "uint256"
        }
      ],
      "name": "List",
      "type": "event"
    },
    {
      "inputs": [],
      "name": "itemCount",
      "outputs": [
        {
          "internalType": "uint256",
          "name": "",
          "type": "uint256"
        }
      ],
      "stateMutability": "view",
      "type": "function",
      "constant": true
    },
    {
      "inputs": [
        {
          "internalType": "uint256",
          "name": "",
          "type": "uint256"
        }
      ],
      "name": "items",
      "outputs": [
        {
          "internalType": "uint256",
          "name": "id",
          "type": "uint256"
        },
        {
          "internalType": "string",
          "name": "name",
          "type": "string"
        },
        {
          "internalType": "string",
          "name": "category",
          "type": "string"
        },
        {
          "internalType": "string",
          "name": "imageUrl",
          "type": "string"
        },
        {
          "internalType": "uint256",
          "name": "cost",
          "type": "uint256"
        },
        {
          "internalType": "uint256",
          "name": "stock",
          "type": "uint256"
        }
      ],
      "stateMutability": "view",
      "type": "function",
      "constant": true
    },
    {
      "inputs": [
        {
          "internalType": "address",
          "name": "",
          "type": "address"
        }
      ],
      "name": "orderCount",
      "outputs": [
        {
          "internalType": "uint256",
          "name": "",
          "type": "uint256"
        }
      ],
      "stateMutability": "view",
      "type": "function",
      "constant": true
    },
    {
      "inputs": [],
      "name": "owner",
      "outputs": [
        {
          "internalType": "address",
          "name": "",
          "type": "address"
        }
      ],
      "stateMutability": "view",
      "type": "function",
      "constant": true
    },
    {
      "inputs": [
        {
          "internalType": "uint256",
          "name": "_id",
          "type": "uint256"
        },
        {
          "internalType": "string",
          "name": "_name",
          "type": "string"
        },
        {
          "internalType": "string",
          "name": "_category",
          "type": "string"
        },
        {
          "internalType": "string",
          "name": "_imageUrl",
          "type": "string"
        },
        {
          "internalType": "uint256",
          "name": "_costWei",
          "type": "uint256"
        },
        {
          "internalType": "uint256",
          "name": "_stock",
          "type": "uint256"
        }
      ],
      "name": "list",
      "outputs": [],
      "stateMutability": "nonpayable",
      "type": "function"
    },
    {
      "inputs": [
        {
          "internalType": "uint256",
          "name": "_id",
          "type": "uint256"
        }
      ],
      "name": "buy",
      "outputs": [],
      "stateMutability": "payable",
      "type": "function",
      "payable": true
    },
    {
      "inputs": [],
      "name": "withdraw",
      "outputs": [],
      "stateMutability": "nonpayable",
      "type": "function"
    }
  ],
  "bytecode": "0x608060405234801561001057600080fd5b50336000806101000a81548173ffffffffffffffffffffffffffffffffffffffff021916908373ffffffffffffffffffffffffffffffffffffffff1602179055506111c4806100606000396000f3fe6080604052600436106100705760003560e01c80638da5cb5b1161004e5780638da5cb5b146100f45780639f4e50661461011f578063bfb231d214610148578063d96a094a1461018a57610070565b80633ccfd60b146100755780636bfb0d011461008c578063713d856b146100b7575b600080fd5b34801561008157600080fd5b5061008a6101a6565b005b34801561009857600080fd5b506100a16102e6565b6040516100ae9190610e91565b60405180910390f35b3480156100c357600080fd5b506100de60048036038101906100d99190610a43565b6102ec565b6040516100eb9190610e91565b60405180910390f35b34801561010057600080fd5b50610109610304565b6040516101169190610d63565b60405180910390f35b34801561012b57600080fd5b5061014660048036038101906101419190610a95565b610328565b005b34801561015457600080fd5b5061016f600480360381019061016a9190610a6c565b610525565b60405161018196959493929190610eac565b60405180910390f35b6101a4600480360381019061019f9190610a6c565b6106f9565b005b60008054906101000a900473ffffffffffffffffffffffffffffffffffffffff1673ffffffffffffffffffffffffffffffffffffffff163373ffffffffffffffffffffffffffffffffffffffff1614610234576040517f08c379a000000000000000000000000000000000000000000000000000000000815260040161022b90610dd1565b60405180910390fd5b60004790506000811161027c576040517f08c379a000000000000000000000000000000000000000000000000000000000815260040161027390610e11565b60405180910390fd5b60008054906101000a900473ffffffffffffffffffffffffffffffffffffffff1673ffffffffffffffffffffffffffffffffffffffff166108fc829081150290604051600060405180830381858888f193505050501580156102e2573d6000803e3d6000fd5b5050565b60015481565b60036020528060005260406000206000915090505481565b60008054906101000a900473ffffffffffffffffffffffffffffffffffffffff1681565b60008054906101000a900473ffffffffffffffffffffffffffffffffffffffff1673ffffffffffffffffffffffffffffffffffffffff163373ffffffffffffffffffffffffffffffffffffffff16146103b6576040517f08c379a00000000000000000000000000000000000000000000000000000000081526004016103ad90610dd1565b60405180910390fd5b600060026000888152602001908152602001600020600001541461040f576040517f08c379a000000000000000000000000000000000000000000000000000000000815260040161040690610e51565b60405180910390fd5b6040518060c00160405280878152602001868152602001858152602001848152602001838152602001828152506002600088815260200190815260200160002060008201518160000155602082015181600101908051906020019061047592919061090e565b50604082015181600201908051906020019061049292919061090e565b5060608201518160030190805190602001906104af92919061090e565b506080820151816004015560a08201518160050155905050600160008154809291906104da90611079565b9190505550857fa2b34b9687850077f91d3af33b718e20381ed9b4d62ed396d881ec534a494d26868585856040516105159493929190610d7e565b60405180910390a2505050505050565b600260205280600052604060002060009150905080600001549080600101805461054e90611047565b80601f016020809104026020016040519081016040528092919081815260200182805461057a90611047565b80156105c75780601f1061059c576101008083540402835291602001916105c7565b820191906000526020600020905b8154815290600101906020018083116105aa57829003601f168201915b5050505050908060020180546105dc90611047565b80601f016020809104026020016040519081016040528092919081815260200182805461060890611047565b80156106555780601f1061062a57610100808354040283529160200191610655565b820191906000526020600020905b81548152906001019060200180831161063857829003601f168201915b50505050509080600301805461066a90611047565b80601f016020809104026020016040519081016040528092919081815260200182805461069690611047565b80156106e35780601f106106b8576101008083540402835291602001916106e3565b820191906000526020600020905b8154815290600101906020018083116106c657829003601f168201915b5050505050908060040154908060050154905086565b6000600260008381526020019081526020016000209050600081600001541415610758576040517f08c379a000000000000000000000000000000000000000000000000000000000815260040161074f90610e31565b60405180910390fd5b806004015434101561079f576040517f08c379a000000000000000000000000000000000000000000000000000000000815260040161079690610df1565b60405180910390fd5b60008160050154116107e6576040517f08c379a00000000000000000000000000000000000000000000000000000000081526004016107dd90610e71565b60405180910390fd5b8060050160008154809291906107fb9061101d565b9190505550600360003373ffffffffffffffffffffffffffffffffffffffff1673ffffffffffffffffffffffffffffffffffffffff168152602001908152602001600020600081548092919061085090611079565b91905055503373ffffffffffffffffffffffffffffffffffffffff167fe3d4187f6ca4248660cc0ac8b8056515bac4a8132be2eca31d6d0cc170722a7e8360405161089b9190610e91565b60405180910390a260008054906101000a900473ffffffffffffffffffffffffffffffffffffffff1673ffffffffffffffffffffffffffffffffffffffff166108fc349081150290604051600060405180830381858888f19350505050158015610909573d6000803e3d6000fd5b505050565b82805461091a90611047565b90600052602060002090601f01602090048101928261093c5760008555610983565b82601f1061095557805160ff1916838001178555610983565b82800160010185558215610983579182015b82811115610982578251825591602001919060010190610967565b5b5090506109909190610994565b5090565b5b808211156109ad576000816000905550600101610995565b5090565b60006109c46109bf84610f53565b610f22565b9050828152602081018484840111156109dc57600080fd5b6109e7848285610fdb565b509392505050565b6000813590506109fe81611160565b92915050565b600082601f830112610a1557600080fd5b8135610a258482602086016109b1565b91505092915050565b600081359050610a3d81611177565b92915050565b600060208284031215610a5557600080fd5b6000610a63848285016109ef565b91505092915050565b600060208284031215610a7e57600080fd5b6000610a8c84828501610a2e565b91505092915050565b60008060008060008060c08789031215610aae57600080fd5b6000610abc89828a01610a2e565b965050602087013567ffffffffffffffff811115610ad957600080fd5b610ae589828a01610a04565b955050604087013567ffffffffffffffff811115610b0257600080fd5b610b0e89828a01610a04565b945050606087013567ffffffffffffffff811115610b2b57600080fd5b610b3789828a01610a04565b9350506080610b4889828a01610a2e565b92505060a0610b5989828a01610a2e565b9150509295509295509295565b610b6f81610f9f565b82525050565b6000610b8082610f83565b610b8a8185610f8e565b9350610b9a818560208601610fea565b610ba38161114f565b840191505092915050565b6000610bbb602583610f8e565b91507f4f6e6c7920746865206f776e65722063616e2063616c6c20746869732066756e60008301527f6374696f6e0000000000000000000000000000000000000000000000000000006020830152604082019050919050565b6000610c21601c83610f8e565b91507f4e6f7420656e6f75676820657468657220746f20627579206974656d000000006000830152602082019050919050565b6000610c61600c83610f8e565b91507f42616c616e6365206973203000000000000000000000000000000000000000006000830152602082019050919050565b6000610ca1601383610f8e565b91507f4974656d20646f6573206e6f74206578697374000000000000000000000000006000830152602082019050919050565b6000610ce1601383610f8e565b91507f4974656d20616c726561647920657869737473000000000000000000000000006000830152602082019050919050565b6000610d21601483610f8e565b91507f4974656d206973206f7574206f662073746f636b0000000000000000000000006000830152602082019050919050565b610d5d81610fd1565b82525050565b6000602082019050610d786000830184610b66565b92915050565b60006080820190508181036000830152610d988187610b75565b90508181036020830152610dac8186610b75565b9050610dbb6040830185610d54565b610dc86060830184610d54565b95945050505050565b60006020820190508181036000830152610dea81610bae565b9050919050565b60006020820190508181036000830152610e0a81610c14565b9050919050565b60006020820190508181036000830152610e2a81610c54565b9050919050565b60006020820190508181036000830152610e4a81610c94565b9050919050565b60006020820190508181036000830152610e6a81610cd4565b9050919050565b60006020820190508181036000830152610e8a81610d14565b9050919050565b6000602082019050610ea66000830184610d54565b92915050565b600060c082019050610ec16000830189610d54565b8181036020830152610ed38188610b75565b90508181036040830152610ee78187610b75565b90508181036060830152610efb8186610b75565b9050610f0a6080830185610d54565b610f1760a0830184610d54565b979650505050505050565b6000604051905081810181811067ffffffffffffffff82111715610f4957610f48611120565b5b8060405250919050565b600067ffffffffffffffff821115610f6e57610f6d611120565b5b601f19601f8301169050602081019050919050565b600081519050919050565b600082825260208201905092915050565b6000610faa82610fb1565b9050919050565b600073ffffffffffffffffffffffffffffffffffffffff82169050919050565b6000819050919050565b82818337600083830152505050565b60005b83811015611008578082015181840152602081019050610fed565b83811115611017576000848401525b50505050565b600061102882610fd1565b9150600082141561103c5761103b6110c2565b5b600182039050919050565b6000600282049050600182168061105f57607f821691505b60208210811415611073576110726110f1565b5b50919050565b600061108482610fd1565b91507fffffffffffffffffffffffffffffffffffffffffffffffffffffffffffffffff8214156110b7576110b66110c2565b5b600182019050919050565b7f4e487b7100000000000000000000000000000000000000000000000000000000600052601160045260246000fd5b7f4e487b7100000000000000000000000000000000000000000000000000000000600052602260045260246000fd5b7f4e487b7100000000000000000000000000000000000000000000000000000000600052604160045260246000fd5b6000601f19601f8301169050919050565b61116981610f9f565b811461117457600080fd5b50565b61118081610fd1565b811461118b57600080fd5b5056fea26469706673582212201100120c4f59b9bae785a3b6b4758b2ae685c250133fb151ff077ccb5199f52364736f6c63430008000033",
  "immutableReferences": {},
  "source": "// SPDX-License-Identifier: UNLICENSED\r\npragma solidity ^0.8.0;\r\n\r\ncontract Amazon {\r\n    address public owner;\r\n    uint256 public itemCount;\r\n\r\n    struct Item {\r\n        uint256 id;\r\n        string name;\r\n        string category;\r\n        string imageUrl; // Add this line\r\n        uint256 cost;\r\n        uint256 stock;\r\n    }\r\n\r\n    mapping(uint256 => Item) public items;\r\n    mapping(address => uint256) public orderCount;\r\n\r\n    event Buy(address indexed buyer, uint256 itemId);\r\n    event List(uint256 indexed itemId, string name, string imageUrl, uint256 cost, uint256 stock);\r\n\r\n    modifier onlyOwner() {\r\n        require(msg.sender == owner, \"Only the owner can call this function\");\r\n        _;\r\n    }\r\n\r\n    constructor() {\r\n        owner = msg.sender;\r\n    }\r\n\r\n    function list(\r\n        uint256 _id,\r\n        string memory _name,\r\n        string memory _category,\r\n        string memory _imageUrl, // Include this parameter\r\n        uint256 _costWei,\r\n        uint256 _stock\r\n    ) public onlyOwner {\r\n        require(items[_id].id == 0, \"Item already exists\");\r\n\r\n        items[_id] = Item({\r\n            id: _id,\r\n            name: _name,\r\n            category: _category,\r\n            imageUrl: _imageUrl, // Store image URL\r\n            cost: _costWei,\r\n            stock: _stock\r\n        });\r\n\r\n    itemCount++;\r\n        emit List(_id, _name, _imageUrl, _costWei, _stock); // Emit image URL\r\n    }\r\n\r\n\r\n    function buy(uint256 _id) public payable {\r\n        Item storage item = items[_id];\r\n\r\n        require(item.id != 0, \"Item does not exist\");\r\n        require(msg.value >= item.cost, \"Not enough ether to buy item\");\r\n        require(item.stock > 0, \"Item is out of stock\");\r\n\r\n        item.stock--;\r\n        orderCount[msg.sender]++;\r\n        emit Buy(msg.sender, _id);\r\n\r\n        // Transfer the amount to owner\r\n        payable(owner).transfer(msg.value);\r\n    }\r\n\r\n    function withdraw() public onlyOwner {\r\n        uint256 balance = address(this).balance;\r\n        require(balance > 0, \"Balance is 0\");\r\n\r\n        payable(owner).transfer(balance);\r\n    }\r\n}\r\n",
  "sourcePath": "C:\\Users\\marti\\Documents\\projects\\web-3-amazon\\contracts\\Amazon.sol",
  "compiler": {
    "name": "solc",
    "version": "0.8.0+commit.c7dfd78e.Emscripten.clang"
  },
  "schemaVersion": "3.4.16",
  "updatedAt": "2024-04-12T10:26:36.576Z",
  "networkType": "ethereum",
  "devdoc": {
    "kind": "dev",
    "methods": {},
    "version": 1
  },
  "userdoc": {
    "kind": "user",
    "methods": {},
    "version": 1
  }
}