{
  "contractName": "Amazon",
  "abi": [
    {
      "inputs": [],
      "stateMutability": "nonpayable",
      "type": "constructor"
    },
    {
      "anonymous": false,
      "inputs": [
        {
          "indexed": true,
          "internalType": "uint256",
          "name": "itemId",
          "type": "uint256"
        }
      ],
      "name": "ItemDeleted",
      "type": "event"
    },
    {
      "anonymous": false,
      "inputs": [
        {
          "indexed": true,
          "internalType": "uint256",
          "name": "itemId",
          "type": "uint256"
        },
        {
          "indexed": false,
          "internalType": "string",
          "name": "name",
          "type": "string"
        },
        {
          "indexed": false,
          "internalType": "string",
          "name": "imageUrl",
          "type": "string"
        },
        {
          "indexed": false,
          "internalType": "uint256",
          "name": "cost",
          "type": "uint256"
        },
        {
          "indexed": false,
          "internalType": "uint256",
          "name": "stock",
          "type": "uint256"
        },
        {
          "indexed": true,
          "internalType": "address",
          "name": "seller",
          "type": "address"
        },
        {
          "indexed": false,
          "internalType": "string",
          "name": "manufacturer",
          "type": "string"
        },
        {
          "indexed": false,
          "internalType": "string",
          "name": "dimensions",
          "type": "string"
        },
        {
          "indexed": false,
          "internalType": "uint256",
          "name": "weight",
          "type": "uint256"
        }
      ],
      "name": "ItemListed",
      "type": "event"
    },
    {
      "anonymous": false,
      "inputs": [
        {
          "indexed": true,
          "internalType": "address",
          "name": "buyer",
          "type": "address"
        },
        {
          "indexed": false,
          "internalType": "uint256",
          "name": "itemId",
          "type": "uint256"
        },
        {
          "indexed": false,
          "internalType": "uint256",
          "name": "quantity",
          "type": "uint256"
        }
      ],
      "name": "ItemPurchased",
      "type": "event"
    },
    {
      "anonymous": false,
      "inputs": [
        {
          "indexed": false,
          "internalType": "address",
          "name": "seller",
          "type": "address"
        }
      ],
      "name": "SellerAdded",
      "type": "event"
    },
    {
      "anonymous": false,
      "inputs": [
        {
          "indexed": false,
          "internalType": "address",
          "name": "seller",
          "type": "address"
        }
      ],
      "name": "SellerRemoved",
      "type": "event"
    },
    {
      "anonymous": false,
      "inputs": [
        {
          "indexed": true,
          "internalType": "address",
          "name": "user",
          "type": "address"
        },
        {
          "indexed": false,
          "internalType": "string",
          "name": "name",
          "type": "string"
        },
        {
          "indexed": false,
          "internalType": "string",
          "name": "street",
          "type": "string"
        },
        {
          "indexed": false,
          "internalType": "string",
          "name": "city",
          "type": "string"
        },
        {
          "indexed": false,
          "internalType": "string",
          "name": "postalCode",
          "type": "string"
        },
        {
          "indexed": false,
          "internalType": "string",
          "name": "country",
          "type": "string"
        }
      ],
      "name": "ShippingInfoUpdated",
      "type": "event"
    },
    {
      "inputs": [
        {
          "internalType": "address",
          "name": "",
          "type": "address"
        }
      ],
      "name": "isSeller",
      "outputs": [
        {
          "internalType": "bool",
          "name": "",
          "type": "bool"
        }
      ],
      "stateMutability": "view",
      "type": "function",
      "constant": true
    },
    {
      "inputs": [],
      "name": "itemCount",
      "outputs": [
        {
          "internalType": "uint256",
          "name": "",
          "type": "uint256"
        }
      ],
      "stateMutability": "view",
      "type": "function",
      "constant": true
    },
    {
      "inputs": [
        {
          "internalType": "uint256",
          "name": "",
          "type": "uint256"
        }
      ],
      "name": "items",
      "outputs": [
        {
          "internalType": "uint256",
          "name": "id",
          "type": "uint256"
        },
        {
          "internalType": "string",
          "name": "name",
          "type": "string"
        },
        {
          "internalType": "string",
          "name": "category",
          "type": "string"
        },
        {
          "internalType": "string",
          "name": "imageUrl",
          "type": "string"
        },
        {
          "internalType": "uint256",
          "name": "cost",
          "type": "uint256"
        },
        {
          "internalType": "uint256",
          "name": "stock",
          "type": "uint256"
        },
        {
          "internalType": "address payable",
          "name": "seller",
          "type": "address"
        },
        {
          "internalType": "string",
          "name": "manufacturer",
          "type": "string"
        },
        {
          "internalType": "string",
          "name": "dimensions",
          "type": "string"
        },
        {
          "internalType": "uint256",
          "name": "weight",
          "type": "uint256"
        }
      ],
      "stateMutability": "view",
      "type": "function",
      "constant": true
    },
    {
      "inputs": [
        {
          "internalType": "address",
          "name": "",
          "type": "address"
        },
        {
          "internalType": "uint256",
          "name": "",
          "type": "uint256"
        }
      ],
      "name": "orders",
      "outputs": [
        {
          "internalType": "uint256",
          "name": "",
          "type": "uint256"
        }
      ],
      "stateMutability": "view",
      "type": "function",
      "constant": true
    },
    {
      "inputs": [],
      "name": "owner",
      "outputs": [
        {
          "internalType": "address",
          "name": "",
          "type": "address"
        }
      ],
      "stateMutability": "view",
      "type": "function",
      "constant": true
    },
    {
      "inputs": [
        {
          "internalType": "address",
          "name": "",
          "type": "address"
        }
      ],
      "name": "shippingInfo",
      "outputs": [
        {
          "internalType": "string",
          "name": "name",
          "type": "string"
        },
        {
          "internalType": "string",
          "name": "street",
          "type": "string"
        },
        {
          "internalType": "string",
          "name": "city",
          "type": "string"
        },
        {
          "internalType": "string",
          "name": "postalCode",
          "type": "string"
        },
        {
          "internalType": "string",
          "name": "country",
          "type": "string"
        }
      ],
      "stateMutability": "view",
      "type": "function",
      "constant": true
    },
    {
      "inputs": [
        {
          "internalType": "address",
          "name": "_seller",
          "type": "address"
        }
      ],
      "name": "addSeller",
      "outputs": [],
      "stateMutability": "nonpayable",
      "type": "function"
    },
    {
      "inputs": [
        {
          "internalType": "address",
          "name": "_seller",
          "type": "address"
        }
      ],
      "name": "removeSeller",
      "outputs": [],
      "stateMutability": "nonpayable",
      "type": "function"
    },
    {
      "inputs": [
        {
          "internalType": "string",
          "name": "_name",
          "type": "string"
        },
        {
          "internalType": "string",
          "name": "_category",
          "type": "string"
        },
        {
          "internalType": "string",
          "name": "_imageUrl",
          "type": "string"
        },
        {
          "internalType": "uint256",
          "name": "_costWei",
          "type": "uint256"
        },
        {
          "internalType": "uint256",
          "name": "_stock",
          "type": "uint256"
        },
        {
          "internalType": "string",
          "name": "_manufacturer",
          "type": "string"
        },
        {
          "internalType": "string",
          "name": "_dimensions",
          "type": "string"
        },
        {
          "internalType": "uint256",
          "name": "_weight",
          "type": "uint256"
        }
      ],
      "name": "list",
      "outputs": [],
      "stateMutability": "nonpayable",
      "type": "function"
    },
    {
      "inputs": [
        {
          "internalType": "uint256",
          "name": "_id",
          "type": "uint256"
        },
        {
          "internalType": "uint256",
          "name": "_quantity",
          "type": "uint256"
        }
      ],
      "name": "buy",
      "outputs": [],
      "stateMutability": "payable",
      "type": "function",
      "payable": true
    },
    {
      "inputs": [
        {
          "internalType": "string",
          "name": "_name",
          "type": "string"
        },
        {
          "internalType": "string",
          "name": "_street",
          "type": "string"
        },
        {
          "internalType": "string",
          "name": "_city",
          "type": "string"
        },
        {
          "internalType": "string",
          "name": "_postalCode",
          "type": "string"
        },
        {
          "internalType": "string",
          "name": "_country",
          "type": "string"
        }
      ],
      "name": "setShippingInfo",
      "outputs": [],
      "stateMutability": "nonpayable",
      "type": "function"
    },
    {
      "inputs": [
        {
          "internalType": "address",
          "name": "_user",
          "type": "address"
        }
      ],
      "name": "getShippingInfo",
      "outputs": [
        {
          "components": [
            {
              "internalType": "string",
              "name": "name",
              "type": "string"
            },
            {
              "internalType": "string",
              "name": "street",
              "type": "string"
            },
            {
              "internalType": "string",
              "name": "city",
              "type": "string"
            },
            {
              "internalType": "string",
              "name": "postalCode",
              "type": "string"
            },
            {
              "internalType": "string",
              "name": "country",
              "type": "string"
            }
          ],
          "internalType": "struct Amazon.ShippingInfo",
          "name": "",
          "type": "tuple"
        }
      ],
      "stateMutability": "view",
      "type": "function",
      "constant": true
    },
    {
      "inputs": [],
      "name": "withdraw",
      "outputs": [],
      "stateMutability": "nonpayable",
      "type": "function"
    },
    {
      "inputs": [
        {
          "internalType": "uint256",
          "name": "itemId",
          "type": "uint256"
        }
      ],
      "name": "deleteItem",
      "outputs": [],
      "stateMutability": "nonpayable",
      "type": "function"
    }
  ],
  "bytecode": "0x60806040526001805534801561001457600080fd5b50336000806101000a81548173ffffffffffffffffffffffffffffffffffffffff021916908373ffffffffffffffffffffffffffffffffffffffff1602179055506001600360008060009054906101000a900473ffffffffffffffffffffffffffffffffffffffff1673ffffffffffffffffffffffffffffffffffffffff1673ffffffffffffffffffffffffffffffffffffffff16815260200190815260200160002060006101000a81548160ff021916908315150217905550612760806100dd6000396000f3fe6080604052600436106100dd5760003560e01c8063ba01a8f71161007f578063d93fabfa11610059578063d93fabfa146102a6578063ee95feaf146102cf578063f17cfe4e1461030c578063fcfb88ca1461034d576100dd565b8063ba01a8f714610207578063bfb231d214610244578063d6febde81461028a576100dd565b80636bfb0d01116100bb5780636bfb0d011461014b578063793b8c6d146101765780637cb9cf54146101b35780638da5cb5b146101dc576100dd565b806311e93b8d146100e25780633ccfd60b1461010b578063654fc83314610122575b600080fd5b3480156100ee57600080fd5b5061010960048036038101906101049190611c14565b610376565b005b34801561011757600080fd5b506101206105f7565b005b34801561012e57600080fd5b5061014960048036038101906101449190611d3e565b610737565b005b34801561015757600080fd5b5061016061099c565b60405161016d9190612328565b60405180910390f35b34801561018257600080fd5b5061019d60048036038101906101989190611ae9565b6109a2565b6040516101aa9190612328565b60405180910390f35b3480156101bf57600080fd5b506101da60048036038101906101d59190611ac0565b6109d3565b005b3480156101e857600080fd5b506101f1610af3565b6040516101fe91906120ef565b60405180910390f35b34801561021357600080fd5b5061022e60048036038101906102299190611ac0565b610b17565b60405161023b9190612306565b60405180910390f35b34801561025057600080fd5b5061026b60048036038101906102669190611d3e565b610e4a565b6040516102819a99989796959493929190612343565b60405180910390f35b6102a4600480360381019061029f9190611d67565b611166565b005b3480156102b257600080fd5b506102cd60048036038101906102c89190611ac0565b6113a7565b005b3480156102db57600080fd5b506102f660048036038101906102f19190611ac0565b6114c7565b604051610303919061210a565b60405180910390f35b34801561031857600080fd5b50610333600480360381019061032e9190611ac0565b6114e7565b604051610344959493929190612125565b60405180910390f35b34801561035957600080fd5b50610374600480360381019061036f9190611b25565b6117c5565b005b600360003373ffffffffffffffffffffffffffffffffffffffff1673ffffffffffffffffffffffffffffffffffffffff16815260200190815260200160002060009054906101000a900460ff16610402576040517f08c379a00000000000000000000000000000000000000000000000000000000081526004016103f990612266565b60405180910390fd5b60006001600081548092919061041790612615565b9190505590506040518061014001604052808281526020018a81526020018981526020018881526020018781526020018681526020013373ffffffffffffffffffffffffffffffffffffffff16815260200185815260200184815260200183815250600260008381526020019081526020016000206000820151816000015560208201518160010190805190602001906104b292919061191c565b5060408201518160020190805190602001906104cf92919061191c565b5060608201518160030190805190602001906104ec92919061191c565b506080820151816004015560a0820151816005015560c08201518160060160006101000a81548173ffffffffffffffffffffffffffffffffffffffff021916908373ffffffffffffffffffffffffffffffffffffffff16021790555060e082015181600701908051906020019061056492919061191c565b5061010082015181600801908051906020019061058292919061191c565b5061012082015181600901559050503373ffffffffffffffffffffffffffffffffffffffff16817f11ff6d79e73ca42d7cbd99f11d30cfeefd1e106c48e9d1350708991f640a32db8b8a8a8a8a8a8a6040516105e4979695949392919061219b565b60405180910390a3505050505050505050565b60008054906101000a900473ffffffffffffffffffffffffffffffffffffffff1673ffffffffffffffffffffffffffffffffffffffff163373ffffffffffffffffffffffffffffffffffffffff1614610685576040517f08c379a000000000000000000000000000000000000000000000000000000000815260040161067c90612286565b60405180910390fd5b6000479050600081116106cd576040517f08c379a00000000000000000000000000000000000000000000000000000000081526004016106c490612246565b60405180910390fd5b60008054906101000a900473ffffffffffffffffffffffffffffffffffffffff1673ffffffffffffffffffffffffffffffffffffffff166108fc829081150290604051600060405180830381858888f19350505050158015610733573d6000803e3d6000fd5b5050565b60008054906101000a900473ffffffffffffffffffffffffffffffffffffffff1673ffffffffffffffffffffffffffffffffffffffff163373ffffffffffffffffffffffffffffffffffffffff16146107c5576040517f08c379a00000000000000000000000000000000000000000000000000000000081526004016107bc90612286565b60405180910390fd5b3373ffffffffffffffffffffffffffffffffffffffff166002600083815260200190815260200160002060060160009054906101000a900473ffffffffffffffffffffffffffffffffffffffff1673ffffffffffffffffffffffffffffffffffffffff161480610880575060008054906101000a900473ffffffffffffffffffffffffffffffffffffffff1673ffffffffffffffffffffffffffffffffffffffff163373ffffffffffffffffffffffffffffffffffffffff16145b6108bf576040517f08c379a00000000000000000000000000000000000000000000000000000000081526004016108b690612226565b60405180910390fd5b600260008281526020019081526020016000206000808201600090556001820160006108eb91906119a2565b6002820160006108fb91906119a2565b60038201600061090b91906119a2565b600482016000905560058201600090556006820160006101000a81549073ffffffffffffffffffffffffffffffffffffffff021916905560078201600061095291906119a2565b60088201600061096291906119a2565b60098201600090555050807f3d0be3a3bbdb36b253d40a546d15d6b7f402fc43e4cd4a067af359b0763b6f3c60405160405180910390a250565b60015481565b600460205281600052604060002081815481106109be57600080fd5b90600052602060002001600091509150505481565b60008054906101000a900473ffffffffffffffffffffffffffffffffffffffff1673ffffffffffffffffffffffffffffffffffffffff163373ffffffffffffffffffffffffffffffffffffffff1614610a61576040517f08c379a0000000000000000000000000000000000000000000000000000000008152600401610a5890612286565b60405180910390fd5b6000600360008373ffffffffffffffffffffffffffffffffffffffff1673ffffffffffffffffffffffffffffffffffffffff16815260200190815260200160002060006101000a81548160ff0219169083151502179055507fa6f3b3030df964d974376ba4db21cbe49207bd79998f0d619c1c3a422259707f81604051610ae891906120ef565b60405180910390a150565b60008054906101000a900473ffffffffffffffffffffffffffffffffffffffff1681565b610b1f6119e2565b600560008373ffffffffffffffffffffffffffffffffffffffff1673ffffffffffffffffffffffffffffffffffffffff1681526020019081526020016000206040518060a0016040529081600082018054610b79906125e3565b80601f0160208091040260200160405190810160405280929190818152602001828054610ba5906125e3565b8015610bf25780601f10610bc757610100808354040283529160200191610bf2565b820191906000526020600020905b815481529060010190602001808311610bd557829003601f168201915b50505050508152602001600182018054610c0b906125e3565b80601f0160208091040260200160405190810160405280929190818152602001828054610c37906125e3565b8015610c845780601f10610c5957610100808354040283529160200191610c84565b820191906000526020600020905b815481529060010190602001808311610c6757829003601f168201915b50505050508152602001600282018054610c9d906125e3565b80601f0160208091040260200160405190810160405280929190818152602001828054610cc9906125e3565b8015610d165780601f10610ceb57610100808354040283529160200191610d16565b820191906000526020600020905b815481529060010190602001808311610cf957829003601f168201915b50505050508152602001600382018054610d2f906125e3565b80601f0160208091040260200160405190810160405280929190818152602001828054610d5b906125e3565b8015610da85780601f10610d7d57610100808354040283529160200191610da8565b820191906000526020600020905b815481529060010190602001808311610d8b57829003601f168201915b50505050508152602001600482018054610dc1906125e3565b80601f0160208091040260200160405190810160405280929190818152602001828054610ded906125e3565b8015610e3a5780601f10610e0f57610100808354040283529160200191610e3a565b820191906000526020600020905b815481529060010190602001808311610e1d57829003601f168201915b5050505050815250509050919050565b6002602052806000526040600020600091509050806000015490806001018054610e73906125e3565b80601f0160208091040260200160405190810160405280929190818152602001828054610e9f906125e3565b8015610eec5780601f10610ec157610100808354040283529160200191610eec565b820191906000526020600020905b815481529060010190602001808311610ecf57829003601f168201915b505050505090806002018054610f01906125e3565b80601f0160208091040260200160405190810160405280929190818152602001828054610f2d906125e3565b8015610f7a5780601f10610f4f57610100808354040283529160200191610f7a565b820191906000526020600020905b815481529060010190602001808311610f5d57829003601f168201915b505050505090806003018054610f8f906125e3565b80601f0160208091040260200160405190810160405280929190818152602001828054610fbb906125e3565b80156110085780601f10610fdd57610100808354040283529160200191611008565b820191906000526020600020905b815481529060010190602001808311610feb57829003601f168201915b5050505050908060040154908060050154908060060160009054906101000a900473ffffffffffffffffffffffffffffffffffffffff169080600701805461104f906125e3565b80601f016020809104026020016040519081016040528092919081815260200182805461107b906125e3565b80156110c85780601f1061109d576101008083540402835291602001916110c8565b820191906000526020600020905b8154815290600101906020018083116110ab57829003601f168201915b5050505050908060080180546110dd906125e3565b80601f0160208091040260200160405190810160405280929190818152602001828054611109906125e3565b80156111565780601f1061112b57610100808354040283529160200191611156565b820191906000526020600020905b81548152906001019060200180831161113957829003601f168201915b505050505090806009015490508a565b600082118015611177575060015482105b6111b6576040517f08c379a00000000000000000000000000000000000000000000000000000000081526004016111ad906122c6565b60405180910390fd5b60006002600084815260200190815260200160002090508181600401546111dd91906124b9565b34101561121f576040517f08c379a0000000000000000000000000000000000000000000000000000000008152600401611216906122e6565b60405180910390fd5b8181600501541015611266576040517f08c379a000000000000000000000000000000000000000000000000000000000815260040161125d906122a6565b60405180910390fd5b8181600501600082825461127a9190612513565b92505081905550600460003373ffffffffffffffffffffffffffffffffffffffff1673ffffffffffffffffffffffffffffffffffffffff1681526020019081526020016000208390806001815401808255809150506001900390600052602060002001600090919091909150558060060160009054906101000a900473ffffffffffffffffffffffffffffffffffffffff1673ffffffffffffffffffffffffffffffffffffffff166108fc349081150290604051600060405180830381858888f19350505050158015611351573d6000803e3d6000fd5b503373ffffffffffffffffffffffffffffffffffffffff167f1452773cf753d0d7c71ed9990f7c7e2bdde4a2d08d187b3647953877e400488d848460405161139a929190612402565b60405180910390a2505050565b60008054906101000a900473ffffffffffffffffffffffffffffffffffffffff1673ffffffffffffffffffffffffffffffffffffffff163373ffffffffffffffffffffffffffffffffffffffff1614611435576040517f08c379a000000000000000000000000000000000000000000000000000000000815260040161142c90612286565b60405180910390fd5b6001600360008373ffffffffffffffffffffffffffffffffffffffff1673ffffffffffffffffffffffffffffffffffffffff16815260200190815260200160002060006101000a81548160ff0219169083151502179055507f3d78526f2568d430fd8e20719601f7bc3f979936f8880236cc284e8127251b42816040516114bc91906120ef565b60405180910390a150565b60036020528060005260406000206000915054906101000a900460ff1681565b600560205280600052604060002060009150905080600001805461150a906125e3565b80601f0160208091040260200160405190810160405280929190818152602001828054611536906125e3565b80156115835780601f1061155857610100808354040283529160200191611583565b820191906000526020600020905b81548152906001019060200180831161156657829003601f168201915b505050505090806001018054611598906125e3565b80601f01602080910402602001604051908101604052809291908181526020018280546115c4906125e3565b80156116115780601f106115e657610100808354040283529160200191611611565b820191906000526020600020905b8154815290600101906020018083116115f457829003601f168201915b505050505090806002018054611626906125e3565b80601f0160208091040260200160405190810160405280929190818152602001828054611652906125e3565b801561169f5780601f106116745761010080835404028352916020019161169f565b820191906000526020600020905b81548152906001019060200180831161168257829003601f168201915b5050505050908060030180546116b4906125e3565b80601f01602080910402602001604051908101604052809291908181526020018280546116e0906125e3565b801561172d5780601f106117025761010080835404028352916020019161172d565b820191906000526020600020905b81548152906001019060200180831161171057829003601f168201915b505050505090806004018054611742906125e3565b80601f016020809104026020016040519081016040528092919081815260200182805461176e906125e3565b80156117bb5780601f10611790576101008083540402835291602001916117bb565b820191906000526020600020905b81548152906001019060200180831161179e57829003601f168201915b5050505050905085565b6040518060a0016040528086815260200185815260200184815260200183815260200182815250600560003373ffffffffffffffffffffffffffffffffffffffff1673ffffffffffffffffffffffffffffffffffffffff168152602001908152602001600020600082015181600001908051906020019061184792919061191c565b50602082015181600101908051906020019061186492919061191c565b50604082015181600201908051906020019061188192919061191c565b50606082015181600301908051906020019061189e92919061191c565b5060808201518160040190805190602001906118bb92919061191c565b509050503373ffffffffffffffffffffffffffffffffffffffff167f1f84569f2f6072608a532ac425cf2bb74727f00715b809606176a785dec8ba83868686868660405161190d959493929190612125565b60405180910390a25050505050565b828054611928906125e3565b90600052602060002090601f01602090048101928261194a5760008555611991565b82601f1061196357805160ff1916838001178555611991565b82800160010185558215611991579182015b82811115611990578251825591602001919060010190611975565b5b50905061199e9190611a11565b5090565b5080546119ae906125e3565b6000825580601f106119c057506119df565b601f0160209004906000526020600020908101906119de9190611a11565b5b50565b6040518060a0016040528060608152602001606081526020016060815260200160608152602001606081525090565b5b80821115611a2a576000816000905550600101611a12565b5090565b6000611a41611a3c8461245c565b61242b565b905082815260208101848484011115611a5957600080fd5b611a648482856125a1565b509392505050565b600081359050611a7b816126fc565b92915050565b600082601f830112611a9257600080fd5b8135611aa2848260208601611a2e565b91505092915050565b600081359050611aba81612713565b92915050565b600060208284031215611ad257600080fd5b6000611ae084828501611a6c565b91505092915050565b60008060408385031215611afc57600080fd5b6000611b0a85828601611a6c565b9250506020611b1b85828601611aab565b9150509250929050565b600080600080600060a08688031215611b3d57600080fd5b600086013567ffffffffffffffff811115611b5757600080fd5b611b6388828901611a81565b955050602086013567ffffffffffffffff811115611b8057600080fd5b611b8c88828901611a81565b945050604086013567ffffffffffffffff811115611ba957600080fd5b611bb588828901611a81565b935050606086013567ffffffffffffffff811115611bd257600080fd5b611bde88828901611a81565b925050608086013567ffffffffffffffff811115611bfb57600080fd5b611c0788828901611a81565b9150509295509295909350565b600080600080600080600080610100898b031215611c3157600080fd5b600089013567ffffffffffffffff811115611c4b57600080fd5b611c578b828c01611a81565b985050602089013567ffffffffffffffff811115611c7457600080fd5b611c808b828c01611a81565b975050604089013567ffffffffffffffff811115611c9d57600080fd5b611ca98b828c01611a81565b9650506060611cba8b828c01611aab565b9550506080611ccb8b828c01611aab565b94505060a089013567ffffffffffffffff811115611ce857600080fd5b611cf48b828c01611a81565b93505060c089013567ffffffffffffffff811115611d1157600080fd5b611d1d8b828c01611a81565b92505060e0611d2e8b828c01611aab565b9150509295985092959890939650565b600060208284031215611d5057600080fd5b6000611d5e84828501611aab565b91505092915050565b60008060408385031215611d7a57600080fd5b6000611d8885828601611aab565b9250506020611d9985828601611aab565b9150509250929050565b611dac81612559565b82525050565b611dbb81612547565b82525050565b611dca8161256b565b82525050565b6000611ddb8261248c565b611de58185612497565b9350611df58185602086016125b0565b611dfe816126eb565b840191505092915050565b6000611e148261248c565b611e1e81856124a8565b9350611e2e8185602086016125b0565b611e37816126eb565b840191505092915050565b6000611e4f600c836124a8565b91507f556e617574686f72697a656400000000000000000000000000000000000000006000830152602082019050919050565b6000611e8f600c836124a8565b91507f42616c616e6365206973203000000000000000000000000000000000000000006000830152602082019050919050565b6000611ecf602e836124a8565b91507f4f6e6c7920617070726f7665642073656c6c6572732063616e20706572666f7260008301527f6d207468697320616374696f6e2e0000000000000000000000000000000000006020830152604082019050919050565b6000611f356027836124a8565b91507f4f6e6c7920746865206f776e65722063616e20706572666f726d20746869732060008301527f616374696f6e2e000000000000000000000000000000000000000000000000006020830152604082019050919050565b6000611f9b6019836124a8565b91507f4e6f7420656e6f756768206974656d7320696e2073746f636b000000000000006000830152602082019050919050565b6000611fdb6013836124a8565b91507f4974656d20646f6573206e6f74206578697374000000000000000000000000006000830152602082019050919050565b600061201b6015836124a8565b91507f4e6f7420656e6f7567682065746865722073656e7400000000000000000000006000830152602082019050919050565b600060a083016000830151848203600086015261206b8282611dd0565b915050602083015184820360208601526120858282611dd0565b9150506040830151848203604086015261209f8282611dd0565b915050606083015184820360608601526120b98282611dd0565b915050608083015184820360808601526120d38282611dd0565b9150508091505092915050565b6120e981612597565b82525050565b60006020820190506121046000830184611db2565b92915050565b600060208201905061211f6000830184611dc1565b92915050565b600060a082019050818103600083015261213f8188611e09565b905081810360208301526121538187611e09565b905081810360408301526121678186611e09565b9050818103606083015261217b8185611e09565b9050818103608083015261218f8184611e09565b90509695505050505050565b600060e08201905081810360008301526121b5818a611e09565b905081810360208301526121c98189611e09565b90506121d860408301886120e0565b6121e560608301876120e0565b81810360808301526121f78186611e09565b905081810360a083015261220b8185611e09565b905061221a60c08301846120e0565b98975050505050505050565b6000602082019050818103600083015261223f81611e42565b9050919050565b6000602082019050818103600083015261225f81611e82565b9050919050565b6000602082019050818103600083015261227f81611ec2565b9050919050565b6000602082019050818103600083015261229f81611f28565b9050919050565b600060208201905081810360008301526122bf81611f8e565b9050919050565b600060208201905081810360008301526122df81611fce565b9050919050565b600060208201905081810360008301526122ff8161200e565b9050919050565b60006020820190508181036000830152612320818461204e565b905092915050565b600060208201905061233d60008301846120e0565b92915050565b600061014082019050612359600083018d6120e0565b818103602083015261236b818c611e09565b9050818103604083015261237f818b611e09565b90508181036060830152612393818a611e09565b90506123a260808301896120e0565b6123af60a08301886120e0565b6123bc60c0830187611da3565b81810360e08301526123ce8186611e09565b90508181036101008301526123e38185611e09565b90506123f36101208301846120e0565b9b9a5050505050505050505050565b600060408201905061241760008301856120e0565b61242460208301846120e0565b9392505050565b6000604051905081810181811067ffffffffffffffff82111715612452576124516126bc565b5b8060405250919050565b600067ffffffffffffffff821115612477576124766126bc565b5b601f19601f8301169050602081019050919050565b600081519050919050565b600082825260208201905092915050565b600082825260208201905092915050565b60006124c482612597565b91506124cf83612597565b9250817fffffffffffffffffffffffffffffffffffffffffffffffffffffffffffffffff04831182151516156125085761250761265e565b5b828202905092915050565b600061251e82612597565b915061252983612597565b92508282101561253c5761253b61265e565b5b828203905092915050565b600061255282612577565b9050919050565b600061256482612577565b9050919050565b60008115159050919050565b600073ffffffffffffffffffffffffffffffffffffffff82169050919050565b6000819050919050565b82818337600083830152505050565b60005b838110156125ce5780820151818401526020810190506125b3565b838111156125dd576000848401525b50505050565b600060028204905060018216806125fb57607f821691505b6020821081141561260f5761260e61268d565b5b50919050565b600061262082612597565b91507fffffffffffffffffffffffffffffffffffffffffffffffffffffffffffffffff8214156126535761265261265e565b5b600182019050919050565b7f4e487b7100000000000000000000000000000000000000000000000000000000600052601160045260246000fd5b7f4e487b7100000000000000000000000000000000000000000000000000000000600052602260045260246000fd5b7f4e487b7100000000000000000000000000000000000000000000000000000000600052604160045260246000fd5b6000601f19601f8301169050919050565b61270581612547565b811461271057600080fd5b50565b61271c81612597565b811461272757600080fd5b5056fea26469706673582212205ad6f18113b6c579cc6e54fe3f78a2aef7b0ffb030040216abace1744e53434164736f6c63430008000033",
  "immutableReferences": {},
  "source": "// SPDX-License-Identifier: UNLICENSED\r\npragma solidity ^0.8.0;\r\n\r\ncontract Amazon {\r\n    address public owner;\r\n    uint256 public itemCount = 1;\r\n\r\n    struct Item {\r\n        uint256 id;\r\n        string name;\r\n        string category;\r\n        string imageUrl;\r\n        uint256 cost;\r\n        uint256 stock;\r\n        address payable seller;\r\n        string manufacturer;\r\n        string dimensions;\r\n        uint256 weight;\r\n    }\r\n\r\n    struct ShippingInfo {\r\n        string name;\r\n        string street;\r\n        string city;\r\n        string postalCode;\r\n        string country;\r\n    }\r\n\r\n    mapping(uint256 => Item) public items;\r\n    mapping(address => bool) public isSeller;\r\n    mapping(address => uint256[]) public orders;\r\n    mapping(address => ShippingInfo) public shippingInfo;\r\n\r\n    event ItemListed(\r\n        uint256 indexed itemId, \r\n        string name, \r\n        string imageUrl, \r\n        uint256 cost, \r\n        uint256 stock, \r\n        address indexed seller, \r\n        string manufacturer, \r\n        string dimensions, \r\n        uint256 weight\r\n    );\r\n    event ItemPurchased(address indexed buyer, uint256 itemId, uint256 quantity);\r\n    event ShippingInfoUpdated(address indexed user, string name, string street, string city, string postalCode, string country);\r\n    event ItemDeleted(uint256 indexed itemId);\r\n    event SellerAdded(address seller);\r\n    event SellerRemoved(address seller);\r\n\r\n    modifier onlyOwner() {\r\n        require(msg.sender == owner, \"Only the owner can perform this action.\");\r\n        _;\r\n    }\r\n\r\n    modifier onlySeller() {\r\n        require(isSeller[msg.sender], \"Only approved sellers can perform this action.\");\r\n        _;\r\n    }\r\n\r\n    constructor() {\r\n        owner = msg.sender;\r\n        isSeller[owner] = true;\r\n    }\r\n\r\n    function addSeller(address _seller) public onlyOwner {\r\n        isSeller[_seller] = true;\r\n        emit SellerAdded(_seller);\r\n    }\r\n\r\n    function removeSeller(address _seller) public onlyOwner {\r\n        isSeller[_seller] = false;\r\n        emit SellerRemoved(_seller);\r\n    }\r\n\r\n    function list(\r\n        string memory _name,\r\n        string memory _category,\r\n        string memory _imageUrl,\r\n        uint256 _costWei,\r\n        uint256 _stock,\r\n        string memory _manufacturer,\r\n        string memory _dimensions,\r\n        uint256 _weight\r\n    ) public onlySeller {\r\n        uint256 newItemId = itemCount++;\r\n        items[newItemId] = Item(\r\n            newItemId,\r\n            _name,\r\n            _category,\r\n            _imageUrl,\r\n            _costWei,\r\n            _stock,\r\n            payable(msg.sender),\r\n            _manufacturer,\r\n            _dimensions,\r\n            _weight\r\n        );\r\n        emit ItemListed(\r\n            newItemId, \r\n            _name, \r\n            _imageUrl, \r\n            _costWei, \r\n            _stock, \r\n            msg.sender, \r\n            _manufacturer, \r\n            _dimensions, \r\n            _weight\r\n        );\r\n    }\r\n\r\n    function buy(uint256 _id, uint256 _quantity) public payable {\r\n        require(_id > 0 && _id < itemCount, \"Item does not exist\");\r\n        Item storage item = items[_id];\r\n        require(msg.value >= item.cost * _quantity, \"Not enough ether sent\");\r\n        require(item.stock >= _quantity, \"Not enough items in stock\");\r\n\r\n        item.stock -= _quantity;\r\n        orders[msg.sender].push(_id);\r\n        item.seller.transfer(msg.value);\r\n        emit ItemPurchased(msg.sender, _id, _quantity);\r\n    }\r\n\r\n    function setShippingInfo(string memory _name, string memory _street, string memory _city, string memory _postalCode, string memory _country) public {\r\n        shippingInfo[msg.sender] = ShippingInfo(_name, _street, _city, _postalCode, _country);\r\n        emit ShippingInfoUpdated(msg.sender, _name, _street, _city, _postalCode, _country);\r\n    }\r\n\r\n    function getShippingInfo(address _user) public view returns (ShippingInfo memory) {\r\n        return shippingInfo[_user];\r\n    }\r\n\r\n    function withdraw() public onlyOwner {\r\n        uint256 balance = address(this).balance;\r\n        require(balance > 0, \"Balance is 0\");\r\n        payable(owner).transfer(balance);\r\n    }\r\n\r\n    function deleteItem(uint256 itemId) public onlyOwner {\r\n        require(items[itemId].seller == msg.sender || msg.sender == owner, \"Unauthorized\");\r\n        delete items[itemId];\r\n        emit ItemDeleted(itemId);\r\n    }\r\n}\r\n",
  "sourcePath": "C:\\Users\\marti\\Documents\\projects\\web-3-amazon\\contracts\\Amazon.sol",
  "compiler": {
    "name": "solc",
    "version": "0.8.0+commit.c7dfd78e.Emscripten.clang"
  },
  "schemaVersion": "3.4.16",
  "updatedAt": "2024-04-29T12:05:35.324Z",
  "networkType": "ethereum",
  "devdoc": {
    "kind": "dev",
    "methods": {},
    "version": 1
  },
  "userdoc": {
    "kind": "user",
    "methods": {},
    "version": 1
  }
}