{
  "contractName": "Amazon",
  "abi": [
    {
      "inputs": [],
      "stateMutability": "nonpayable",
      "type": "constructor"
    },
    {
      "anonymous": false,
      "inputs": [
        {
          "indexed": true,
          "internalType": "address",
          "name": "buyer",
          "type": "address"
        },
        {
          "indexed": false,
          "internalType": "uint256",
          "name": "itemId",
          "type": "uint256"
        },
        {
          "indexed": false,
          "internalType": "uint256",
          "name": "quantity",
          "type": "uint256"
        }
      ],
      "name": "Buy",
      "type": "event"
    },
    {
      "anonymous": false,
      "inputs": [
        {
          "indexed": true,
          "internalType": "uint256",
          "name": "itemId",
          "type": "uint256"
        },
        {
          "indexed": false,
          "internalType": "string",
          "name": "name",
          "type": "string"
        },
        {
          "indexed": false,
          "internalType": "string",
          "name": "imageUrl",
          "type": "string"
        },
        {
          "indexed": false,
          "internalType": "uint256",
          "name": "cost",
          "type": "uint256"
        },
        {
          "indexed": false,
          "internalType": "uint256",
          "name": "stock",
          "type": "uint256"
        }
      ],
      "name": "List",
      "type": "event"
    },
    {
      "inputs": [],
      "name": "itemCount",
      "outputs": [
        {
          "internalType": "uint256",
          "name": "",
          "type": "uint256"
        }
      ],
      "stateMutability": "view",
      "type": "function",
      "constant": true
    },
    {
      "inputs": [
        {
          "internalType": "uint256",
          "name": "",
          "type": "uint256"
        }
      ],
      "name": "items",
      "outputs": [
        {
          "internalType": "uint256",
          "name": "id",
          "type": "uint256"
        },
        {
          "internalType": "string",
          "name": "name",
          "type": "string"
        },
        {
          "internalType": "string",
          "name": "category",
          "type": "string"
        },
        {
          "internalType": "string",
          "name": "imageUrl",
          "type": "string"
        },
        {
          "internalType": "uint256",
          "name": "cost",
          "type": "uint256"
        },
        {
          "internalType": "uint256",
          "name": "stock",
          "type": "uint256"
        }
      ],
      "stateMutability": "view",
      "type": "function",
      "constant": true
    },
    {
      "inputs": [
        {
          "internalType": "address",
          "name": "",
          "type": "address"
        },
        {
          "internalType": "uint256",
          "name": "",
          "type": "uint256"
        }
      ],
      "name": "orders",
      "outputs": [
        {
          "internalType": "uint256",
          "name": "",
          "type": "uint256"
        }
      ],
      "stateMutability": "view",
      "type": "function",
      "constant": true
    },
    {
      "inputs": [],
      "name": "owner",
      "outputs": [
        {
          "internalType": "address",
          "name": "",
          "type": "address"
        }
      ],
      "stateMutability": "view",
      "type": "function",
      "constant": true
    },
    {
      "inputs": [
        {
          "internalType": "string",
          "name": "_name",
          "type": "string"
        },
        {
          "internalType": "string",
          "name": "_category",
          "type": "string"
        },
        {
          "internalType": "string",
          "name": "_imageUrl",
          "type": "string"
        },
        {
          "internalType": "uint256",
          "name": "_costWei",
          "type": "uint256"
        },
        {
          "internalType": "uint256",
          "name": "_stock",
          "type": "uint256"
        }
      ],
      "name": "list",
      "outputs": [],
      "stateMutability": "nonpayable",
      "type": "function"
    },
    {
      "inputs": [
        {
          "internalType": "uint256",
          "name": "_id",
          "type": "uint256"
        },
        {
          "internalType": "uint256",
          "name": "quantity",
          "type": "uint256"
        }
      ],
      "name": "buy",
      "outputs": [],
      "stateMutability": "payable",
      "type": "function",
      "payable": true
    },
    {
      "inputs": [],
      "name": "withdraw",
      "outputs": [],
      "stateMutability": "nonpayable",
      "type": "function"
    },
    {
      "inputs": [
        {
          "internalType": "address",
          "name": "user",
          "type": "address"
        }
      ],
      "name": "getOrders",
      "outputs": [
        {
          "internalType": "uint256[]",
          "name": "",
          "type": "uint256[]"
        }
      ],
      "stateMutability": "view",
      "type": "function",
      "constant": true
    }
  ],
  "bytecode": "0x60806040526001805534801561001457600080fd5b50336000806101000a81548173ffffffffffffffffffffffffffffffffffffffff021916908373ffffffffffffffffffffffffffffffffffffffff16021790555061142b806100646000396000f3fe60806040526004361061007b5760003560e01c80638da5cb5b1161004e5780638da5cb5b1461013c578063bfb231d214610167578063d6febde8146101a9578063ec99490f146101c55761007b565b8063093376fe146100805780633ccfd60b146100bd5780636bfb0d01146100d4578063793b8c6d146100ff575b600080fd5b34801561008c57600080fd5b506100a760048036038101906100a29190610b37565b6101ee565b6040516100b49190610f1d565b60405180910390f35b3480156100c957600080fd5b506100d2610285565b005b3480156100e057600080fd5b506100e96103c5565b6040516100f69190611032565b60405180910390f35b34801561010b57600080fd5b5061012660048036038101906101219190610b60565b6103cb565b6040516101339190611032565b60405180910390f35b34801561014857600080fd5b506101516103fc565b60405161015e9190610f02565b60405180910390f35b34801561017357600080fd5b5061018e60048036038101906101899190610c5b565b610420565b6040516101a09695949392919061104d565b60405180910390f35b6101c360048036038101906101be9190610c84565b6105f4565b005b3480156101d157600080fd5b506101ec60048036038101906101e79190610b9c565b610859565b005b6060600360008373ffffffffffffffffffffffffffffffffffffffff1673ffffffffffffffffffffffffffffffffffffffff16815260200190815260200160002080548060200260200160405190810160405280929190818152602001828054801561027957602002820191906000526020600020905b815481526020019060010190808311610265575b50505050509050919050565b60008054906101000a900473ffffffffffffffffffffffffffffffffffffffff1673ffffffffffffffffffffffffffffffffffffffff163373ffffffffffffffffffffffffffffffffffffffff1614610313576040517f08c379a000000000000000000000000000000000000000000000000000000000815260040161030a90610f92565b60405180910390fd5b60004790506000811161035b576040517f08c379a000000000000000000000000000000000000000000000000000000000815260040161035290610fd2565b60405180910390fd5b60008054906101000a900473ffffffffffffffffffffffffffffffffffffffff1673ffffffffffffffffffffffffffffffffffffffff166108fc829081150290604051600060405180830381858888f193505050501580156103c1573d6000803e3d6000fd5b5050565b60015481565b600360205281600052604060002081815481106103e757600080fd5b90600052602060002001600091509150505481565b60008054906101000a900473ffffffffffffffffffffffffffffffffffffffff1681565b6002602052806000526040600020600091509050806000015490806001018054610449906112ae565b80601f0160208091040260200160405190810160405280929190818152602001828054610475906112ae565b80156104c25780601f10610497576101008083540402835291602001916104c2565b820191906000526020600020905b8154815290600101906020018083116104a557829003601f168201915b5050505050908060020180546104d7906112ae565b80601f0160208091040260200160405190810160405280929190818152602001828054610503906112ae565b80156105505780601f1061052557610100808354040283529160200191610550565b820191906000526020600020905b81548152906001019060200180831161053357829003601f168201915b505050505090806003018054610565906112ae565b80601f0160208091040260200160405190810160405280929190818152602001828054610591906112ae565b80156105de5780601f106105b3576101008083540402835291602001916105de565b820191906000526020600020905b8154815290600101906020018083116105c157829003601f168201915b5050505050908060040154908060050154905086565b60006002600084815260200190815260200160002060000154141561064e576040517f08c379a000000000000000000000000000000000000000000000000000000000815260040161064590610ff2565b60405180910390fd5b80600260008481526020019081526020016000206005015410156106a7576040517f08c379a000000000000000000000000000000000000000000000000000000000815260040161069e90610fb2565b60405180910390fd5b8060026000848152602001908152602001600020600401546106c991906111a2565b34101561070b576040517f08c379a000000000000000000000000000000000000000000000000000000000815260040161070290611012565b60405180910390fd5b8060026000848152602001908152602001600020600501600082825461073191906111fc565b92505081905550600360003373ffffffffffffffffffffffffffffffffffffffff1673ffffffffffffffffffffffffffffffffffffffff1681526020019081526020016000208290806001815401808255809150506001900390600052602060002001600090919091909150553373ffffffffffffffffffffffffffffffffffffffff167f1cbc5ab135991bd2b6a4b034a04aa2aa086dac1371cb9b16b8b5e2ed6b036bed83836040516107e69291906110c3565b60405180910390a260008054906101000a900473ffffffffffffffffffffffffffffffffffffffff1673ffffffffffffffffffffffffffffffffffffffff166108fc349081150290604051600060405180830381858888f19350505050158015610854573d6000803e3d6000fd5b505050565b60008054906101000a900473ffffffffffffffffffffffffffffffffffffffff1673ffffffffffffffffffffffffffffffffffffffff163373ffffffffffffffffffffffffffffffffffffffff16146108e7576040517f08c379a00000000000000000000000000000000000000000000000000000000081526004016108de90610f92565b60405180910390fd5b6040518060c00160405280600154815260200186815260200185815260200184815260200183815260200182815250600260006001548152602001908152602001600020600082015181600001556020820151816001019080519060200190610951929190610a02565b50604082015181600201908051906020019061096e929190610a02565b50606082015181600301908051906020019061098b929190610a02565b506080820151816004015560a082015181600501559050506001547fa2b34b9687850077f91d3af33b718e20381ed9b4d62ed396d881ec534a494d26868585856040516109db9493929190610f3f565b60405180910390a2600160008154809291906109f6906112e0565b91905055505050505050565b828054610a0e906112ae565b90600052602060002090601f016020900481019282610a305760008555610a77565b82601f10610a4957805160ff1916838001178555610a77565b82800160010185558215610a77579182015b82811115610a76578251825591602001919060010190610a5b565b5b509050610a849190610a88565b5090565b5b80821115610aa1576000816000905550600101610a89565b5090565b6000610ab8610ab38461111d565b6110ec565b905082815260208101848484011115610ad057600080fd5b610adb84828561126c565b509392505050565b600081359050610af2816113c7565b92915050565b600082601f830112610b0957600080fd5b8135610b19848260208601610aa5565b91505092915050565b600081359050610b31816113de565b92915050565b600060208284031215610b4957600080fd5b6000610b5784828501610ae3565b91505092915050565b60008060408385031215610b7357600080fd5b6000610b8185828601610ae3565b9250506020610b9285828601610b22565b9150509250929050565b600080600080600060a08688031215610bb457600080fd5b600086013567ffffffffffffffff811115610bce57600080fd5b610bda88828901610af8565b955050602086013567ffffffffffffffff811115610bf757600080fd5b610c0388828901610af8565b945050604086013567ffffffffffffffff811115610c2057600080fd5b610c2c88828901610af8565b9350506060610c3d88828901610b22565b9250506080610c4e88828901610b22565b9150509295509295909350565b600060208284031215610c6d57600080fd5b6000610c7b84828501610b22565b91505092915050565b60008060408385031215610c9757600080fd5b6000610ca585828601610b22565b9250506020610cb685828601610b22565b9150509250929050565b6000610ccc8383610ee4565b60208301905092915050565b610ce181611230565b82525050565b6000610cf28261115d565b610cfc8185611180565b9350610d078361114d565b8060005b83811015610d38578151610d1f8882610cc0565b9750610d2a83611173565b925050600181019050610d0b565b5085935050505092915050565b6000610d5082611168565b610d5a8185611191565b9350610d6a81856020860161127b565b610d73816113b6565b840191505092915050565b6000610d8b602583611191565b91507f4f6e6c7920746865206f776e65722063616e2063616c6c20746869732066756e60008301527f6374696f6e0000000000000000000000000000000000000000000000000000006020830152604082019050919050565b6000610df1601283611191565b91507f496e73756666696369656e742073746f636b00000000000000000000000000006000830152602082019050919050565b6000610e31600c83611191565b91507f42616c616e6365206973203000000000000000000000000000000000000000006000830152602082019050919050565b6000610e71601383611191565b91507f4974656d20646f6573206e6f74206578697374000000000000000000000000006000830152602082019050919050565b6000610eb1601583611191565b91507f4e6f7420656e6f7567682065746865722073656e7400000000000000000000006000830152602082019050919050565b610eed81611262565b82525050565b610efc81611262565b82525050565b6000602082019050610f176000830184610cd8565b92915050565b60006020820190508181036000830152610f378184610ce7565b905092915050565b60006080820190508181036000830152610f598187610d45565b90508181036020830152610f6d8186610d45565b9050610f7c6040830185610ef3565b610f896060830184610ef3565b95945050505050565b60006020820190508181036000830152610fab81610d7e565b9050919050565b60006020820190508181036000830152610fcb81610de4565b9050919050565b60006020820190508181036000830152610feb81610e24565b9050919050565b6000602082019050818103600083015261100b81610e64565b9050919050565b6000602082019050818103600083015261102b81610ea4565b9050919050565b60006020820190506110476000830184610ef3565b92915050565b600060c0820190506110626000830189610ef3565b81810360208301526110748188610d45565b905081810360408301526110888187610d45565b9050818103606083015261109c8186610d45565b90506110ab6080830185610ef3565b6110b860a0830184610ef3565b979650505050505050565b60006040820190506110d86000830185610ef3565b6110e56020830184610ef3565b9392505050565b6000604051905081810181811067ffffffffffffffff8211171561111357611112611387565b5b8060405250919050565b600067ffffffffffffffff82111561113857611137611387565b5b601f19601f8301169050602081019050919050565b6000819050602082019050919050565b600081519050919050565b600081519050919050565b6000602082019050919050565b600082825260208201905092915050565b600082825260208201905092915050565b60006111ad82611262565b91506111b883611262565b9250817fffffffffffffffffffffffffffffffffffffffffffffffffffffffffffffffff04831182151516156111f1576111f0611329565b5b828202905092915050565b600061120782611262565b915061121283611262565b92508282101561122557611224611329565b5b828203905092915050565b600061123b82611242565b9050919050565b600073ffffffffffffffffffffffffffffffffffffffff82169050919050565b6000819050919050565b82818337600083830152505050565b60005b8381101561129957808201518184015260208101905061127e565b838111156112a8576000848401525b50505050565b600060028204905060018216806112c657607f821691505b602082108114156112da576112d9611358565b5b50919050565b60006112eb82611262565b91507fffffffffffffffffffffffffffffffffffffffffffffffffffffffffffffffff82141561131e5761131d611329565b5b600182019050919050565b7f4e487b7100000000000000000000000000000000000000000000000000000000600052601160045260246000fd5b7f4e487b7100000000000000000000000000000000000000000000000000000000600052602260045260246000fd5b7f4e487b7100000000000000000000000000000000000000000000000000000000600052604160045260246000fd5b6000601f19601f8301169050919050565b6113d081611230565b81146113db57600080fd5b50565b6113e781611262565b81146113f257600080fd5b5056fea2646970667358221220609c4e3d960e2a3ce3a999a71e83f0c2975f234e1f86b99d7d77143a7df1dcb264736f6c63430008000033",
  "immutableReferences": {},
  "source": "// SPDX-License-Identifier: UNLICENSED\r\npragma solidity ^0.8.0;\r\n\r\ncontract Amazon {\r\n    address public owner;\r\n    uint256 public itemCount = 1;  // Start from 1 to avoid zero initialization issues\r\n\r\n    struct Item {\r\n        uint256 id;\r\n        string name;\r\n        string category;\r\n        string imageUrl;\r\n        uint256 cost;\r\n        uint256 stock;\r\n    }\r\n\r\n    mapping(uint256 => Item) public items;\r\n    mapping(address => uint256[]) public orders;\r\n\r\n    event Buy(address indexed buyer, uint256 itemId, uint256 quantity);\r\n    event List(uint256 indexed itemId, string name, string imageUrl, uint256 cost, uint256 stock);\r\n\r\n    modifier onlyOwner() {\r\n        require(msg.sender == owner, \"Only the owner can call this function\");\r\n        _;\r\n    }\r\n\r\n    constructor() {\r\n        owner = msg.sender;\r\n    }\r\n\r\n    function list(\r\n        string memory _name,\r\n        string memory _category,\r\n        string memory _imageUrl,\r\n        uint256 _costWei,\r\n        uint256 _stock\r\n    ) public onlyOwner {\r\n        items[itemCount] = Item({\r\n            id: itemCount,\r\n            name: _name,\r\n            category: _category,\r\n            imageUrl: _imageUrl,\r\n            cost: _costWei,\r\n            stock: _stock\r\n        });\r\n\r\n        emit List(itemCount, _name, _imageUrl, _costWei, _stock);\r\n        itemCount++;\r\n    }\r\n\r\n    function buy(uint256 _id, uint256 quantity) public payable {\r\n        require(items[_id].id != 0, \"Item does not exist\");\r\n        require(items[_id].stock >= quantity, \"Insufficient stock\");\r\n        require(msg.value >= items[_id].cost * quantity, \"Not enough ether sent\");\r\n\r\n        items[_id].stock -= quantity;\r\n        orders[msg.sender].push(_id);\r\n\r\n        emit Buy(msg.sender, _id, quantity);\r\n        payable(owner).transfer(msg.value);\r\n    }\r\n\r\n    function withdraw() public onlyOwner {\r\n        uint256 balance = address(this).balance;\r\n        require(balance > 0, \"Balance is 0\");\r\n        payable(owner).transfer(balance);\r\n    }\r\n\r\n    function getOrders(address user) public view returns (uint256[] memory) {\r\n        return orders[user];\r\n    }\r\n}\r\n",
  "sourcePath": "C:\\Users\\marti\\Documents\\projects\\web-3-amazon\\contracts\\Amazon.sol",
  "compiler": {
    "name": "solc",
    "version": "0.8.0+commit.c7dfd78e.Emscripten.clang"
  },
  "schemaVersion": "3.4.16",
  "updatedAt": "2024-04-15T08:41:56.974Z",
  "networkType": "ethereum",
  "devdoc": {
    "kind": "dev",
    "methods": {},
    "version": 1
  },
  "userdoc": {
    "kind": "user",
    "methods": {},
    "version": 1
  }
}