{
  "contractName": "Amazon",
  "abi": [
    {
      "inputs": [],
      "stateMutability": "nonpayable",
      "type": "constructor"
    },
    {
      "anonymous": false,
      "inputs": [
        {
          "indexed": true,
          "internalType": "uint256",
          "name": "itemId",
          "type": "uint256"
        },
        {
          "indexed": false,
          "internalType": "string",
          "name": "name",
          "type": "string"
        },
        {
          "indexed": false,
          "internalType": "string",
          "name": "imageUrl",
          "type": "string"
        },
        {
          "indexed": false,
          "internalType": "uint256",
          "name": "cost",
          "type": "uint256"
        },
        {
          "indexed": false,
          "internalType": "uint256",
          "name": "stock",
          "type": "uint256"
        },
        {
          "indexed": true,
          "internalType": "address",
          "name": "seller",
          "type": "address"
        }
      ],
      "name": "ItemListed",
      "type": "event"
    },
    {
      "anonymous": false,
      "inputs": [
        {
          "indexed": true,
          "internalType": "address",
          "name": "buyer",
          "type": "address"
        },
        {
          "indexed": false,
          "internalType": "uint256",
          "name": "itemId",
          "type": "uint256"
        },
        {
          "indexed": false,
          "internalType": "uint256",
          "name": "quantity",
          "type": "uint256"
        }
      ],
      "name": "ItemPurchased",
      "type": "event"
    },
    {
      "anonymous": false,
      "inputs": [
        {
          "indexed": true,
          "internalType": "address",
          "name": "user",
          "type": "address"
        },
        {
          "indexed": false,
          "internalType": "string",
          "name": "name",
          "type": "string"
        },
        {
          "indexed": false,
          "internalType": "string",
          "name": "street",
          "type": "string"
        },
        {
          "indexed": false,
          "internalType": "string",
          "name": "city",
          "type": "string"
        },
        {
          "indexed": false,
          "internalType": "string",
          "name": "postalCode",
          "type": "string"
        },
        {
          "indexed": false,
          "internalType": "string",
          "name": "country",
          "type": "string"
        }
      ],
      "name": "ShippingInfoUpdated",
      "type": "event"
    },
    {
      "inputs": [],
      "name": "itemCount",
      "outputs": [
        {
          "internalType": "uint256",
          "name": "",
          "type": "uint256"
        }
      ],
      "stateMutability": "view",
      "type": "function",
      "constant": true
    },
    {
      "inputs": [
        {
          "internalType": "uint256",
          "name": "",
          "type": "uint256"
        }
      ],
      "name": "items",
      "outputs": [
        {
          "internalType": "uint256",
          "name": "id",
          "type": "uint256"
        },
        {
          "internalType": "string",
          "name": "name",
          "type": "string"
        },
        {
          "internalType": "string",
          "name": "category",
          "type": "string"
        },
        {
          "internalType": "string",
          "name": "imageUrl",
          "type": "string"
        },
        {
          "internalType": "uint256",
          "name": "cost",
          "type": "uint256"
        },
        {
          "internalType": "uint256",
          "name": "stock",
          "type": "uint256"
        },
        {
          "internalType": "address payable",
          "name": "seller",
          "type": "address"
        }
      ],
      "stateMutability": "view",
      "type": "function",
      "constant": true
    },
    {
      "inputs": [
        {
          "internalType": "address",
          "name": "",
          "type": "address"
        },
        {
          "internalType": "uint256",
          "name": "",
          "type": "uint256"
        }
      ],
      "name": "orders",
      "outputs": [
        {
          "internalType": "uint256",
          "name": "",
          "type": "uint256"
        }
      ],
      "stateMutability": "view",
      "type": "function",
      "constant": true
    },
    {
      "inputs": [],
      "name": "owner",
      "outputs": [
        {
          "internalType": "address",
          "name": "",
          "type": "address"
        }
      ],
      "stateMutability": "view",
      "type": "function",
      "constant": true
    },
    {
      "inputs": [
        {
          "internalType": "address",
          "name": "",
          "type": "address"
        }
      ],
      "name": "shippingInfo",
      "outputs": [
        {
          "internalType": "string",
          "name": "name",
          "type": "string"
        },
        {
          "internalType": "string",
          "name": "street",
          "type": "string"
        },
        {
          "internalType": "string",
          "name": "city",
          "type": "string"
        },
        {
          "internalType": "string",
          "name": "postalCode",
          "type": "string"
        },
        {
          "internalType": "string",
          "name": "country",
          "type": "string"
        }
      ],
      "stateMutability": "view",
      "type": "function",
      "constant": true
    },
    {
      "inputs": [
        {
          "internalType": "string",
          "name": "_name",
          "type": "string"
        },
        {
          "internalType": "string",
          "name": "_category",
          "type": "string"
        },
        {
          "internalType": "string",
          "name": "_imageUrl",
          "type": "string"
        },
        {
          "internalType": "uint256",
          "name": "_costWei",
          "type": "uint256"
        },
        {
          "internalType": "uint256",
          "name": "_stock",
          "type": "uint256"
        },
        {
          "internalType": "address payable",
          "name": "_seller",
          "type": "address"
        }
      ],
      "name": "list",
      "outputs": [],
      "stateMutability": "nonpayable",
      "type": "function"
    },
    {
      "inputs": [
        {
          "internalType": "uint256",
          "name": "_id",
          "type": "uint256"
        },
        {
          "internalType": "uint256",
          "name": "_quantity",
          "type": "uint256"
        }
      ],
      "name": "buy",
      "outputs": [],
      "stateMutability": "payable",
      "type": "function",
      "payable": true
    },
    {
      "inputs": [
        {
          "internalType": "string",
          "name": "_name",
          "type": "string"
        },
        {
          "internalType": "string",
          "name": "_street",
          "type": "string"
        },
        {
          "internalType": "string",
          "name": "_city",
          "type": "string"
        },
        {
          "internalType": "string",
          "name": "_postalCode",
          "type": "string"
        },
        {
          "internalType": "string",
          "name": "_country",
          "type": "string"
        }
      ],
      "name": "setShippingInfo",
      "outputs": [],
      "stateMutability": "nonpayable",
      "type": "function"
    },
    {
      "inputs": [
        {
          "internalType": "address",
          "name": "_user",
          "type": "address"
        }
      ],
      "name": "getShippingInfo",
      "outputs": [
        {
          "components": [
            {
              "internalType": "string",
              "name": "name",
              "type": "string"
            },
            {
              "internalType": "string",
              "name": "street",
              "type": "string"
            },
            {
              "internalType": "string",
              "name": "city",
              "type": "string"
            },
            {
              "internalType": "string",
              "name": "postalCode",
              "type": "string"
            },
            {
              "internalType": "string",
              "name": "country",
              "type": "string"
            }
          ],
          "internalType": "struct Amazon.ShippingInfo",
          "name": "",
          "type": "tuple"
        }
      ],
      "stateMutability": "view",
      "type": "function",
      "constant": true
    },
    {
      "inputs": [],
      "name": "withdraw",
      "outputs": [],
      "stateMutability": "nonpayable",
      "type": "function"
    }
  ],
  "bytecode": "0x60806040526001805534801561001457600080fd5b50336000806101000a81548173ffffffffffffffffffffffffffffffffffffffff021916908373ffffffffffffffffffffffffffffffffffffffff160217905550611e17806100646000396000f3fe6080604052600436106100915760003560e01c8063ba01a8f711610059578063ba01a8f714610169578063bfb231d2146101a6578063d6febde8146101e9578063f17cfe4e14610205578063fcfb88ca1461024657610091565b80633a83f877146100965780633ccfd60b146100bf5780636bfb0d01146100d6578063793b8c6d146101015780638da5cb5b1461013e575b600080fd5b3480156100a257600080fd5b506100bd60048036038101906100b8919061149c565b61026f565b005b3480156100cb57600080fd5b506100d4610491565b005b3480156100e257600080fd5b506100eb6105d1565b6040516100f89190611a0f565b60405180910390f35b34801561010d57600080fd5b5061012860048036038101906101239190611371565b6105d7565b6040516101359190611a0f565b60405180910390f35b34801561014a57600080fd5b50610153610608565b6040516101609190611869565b60405180910390f35b34801561017557600080fd5b50610190600480360381019061018b9190611348565b61062c565b60405161019d91906119ed565b60405180910390f35b3480156101b257600080fd5b506101cd60048036038101906101c8919061156d565b61095f565b6040516101e09796959493929190611a2a565b60405180910390f35b61020360048036038101906101fe9190611596565b610b59565b005b34801561021157600080fd5b5061022c60048036038101906102279190611348565b610d9a565b60405161023d959493929190611884565b60405180910390f35b34801561025257600080fd5b5061026d600480360381019061026891906113ad565b611078565b005b60008054906101000a900473ffffffffffffffffffffffffffffffffffffffff1673ffffffffffffffffffffffffffffffffffffffff163373ffffffffffffffffffffffffffffffffffffffff16146102fd576040517f08c379a00000000000000000000000000000000000000000000000000000000081526004016102f49061194d565b60405180910390fd5b60006001600081548092919061031290611cb5565b9190505590506040518060e001604052808281526020018881526020018781526020018681526020018581526020018481526020018373ffffffffffffffffffffffffffffffffffffffff168152506002600083815260200190815260200160002060008201518160000155602082015181600101908051906020019061039a9291906111cf565b5060408201518160020190805190602001906103b79291906111cf565b5060608201518160030190805190602001906103d49291906111cf565b506080820151816004015560a0820151816005015560c08201518160060160006101000a81548173ffffffffffffffffffffffffffffffffffffffff021916908373ffffffffffffffffffffffffffffffffffffffff1602179055509050508173ffffffffffffffffffffffffffffffffffffffff16817fe57ce4f31a4875b562a2c44b4eebf69a81a0af7e8c42c91369d41d11f0d944058988888860405161048094939291906118fa565b60405180910390a350505050505050565b60008054906101000a900473ffffffffffffffffffffffffffffffffffffffff1673ffffffffffffffffffffffffffffffffffffffff163373ffffffffffffffffffffffffffffffffffffffff161461051f576040517f08c379a00000000000000000000000000000000000000000000000000000000081526004016105169061194d565b60405180910390fd5b600047905060008111610567576040517f08c379a000000000000000000000000000000000000000000000000000000000815260040161055e9061196d565b60405180910390fd5b60008054906101000a900473ffffffffffffffffffffffffffffffffffffffff1673ffffffffffffffffffffffffffffffffffffffff166108fc829081150290604051600060405180830381858888f193505050501580156105cd573d6000803e3d6000fd5b5050565b60015481565b600360205281600052604060002081815481106105f357600080fd5b90600052602060002001600091509150505481565b60008054906101000a900473ffffffffffffffffffffffffffffffffffffffff1681565b610634611255565b600460008373ffffffffffffffffffffffffffffffffffffffff1673ffffffffffffffffffffffffffffffffffffffff1681526020019081526020016000206040518060a001604052908160008201805461068e90611c83565b80601f01602080910402602001604051908101604052809291908181526020018280546106ba90611c83565b80156107075780601f106106dc57610100808354040283529160200191610707565b820191906000526020600020905b8154815290600101906020018083116106ea57829003601f168201915b5050505050815260200160018201805461072090611c83565b80601f016020809104026020016040519081016040528092919081815260200182805461074c90611c83565b80156107995780601f1061076e57610100808354040283529160200191610799565b820191906000526020600020905b81548152906001019060200180831161077c57829003601f168201915b505050505081526020016002820180546107b290611c83565b80601f01602080910402602001604051908101604052809291908181526020018280546107de90611c83565b801561082b5780601f106108005761010080835404028352916020019161082b565b820191906000526020600020905b81548152906001019060200180831161080e57829003601f168201915b5050505050815260200160038201805461084490611c83565b80601f016020809104026020016040519081016040528092919081815260200182805461087090611c83565b80156108bd5780601f10610892576101008083540402835291602001916108bd565b820191906000526020600020905b8154815290600101906020018083116108a057829003601f168201915b505050505081526020016004820180546108d690611c83565b80601f016020809104026020016040519081016040528092919081815260200182805461090290611c83565b801561094f5780601f106109245761010080835404028352916020019161094f565b820191906000526020600020905b81548152906001019060200180831161093257829003601f168201915b5050505050815250509050919050565b600260205280600052604060002060009150905080600001549080600101805461098890611c83565b80601f01602080910402602001604051908101604052809291908181526020018280546109b490611c83565b8015610a015780601f106109d657610100808354040283529160200191610a01565b820191906000526020600020905b8154815290600101906020018083116109e457829003601f168201915b505050505090806002018054610a1690611c83565b80601f0160208091040260200160405190810160405280929190818152602001828054610a4290611c83565b8015610a8f5780601f10610a6457610100808354040283529160200191610a8f565b820191906000526020600020905b815481529060010190602001808311610a7257829003601f168201915b505050505090806003018054610aa490611c83565b80601f0160208091040260200160405190810160405280929190818152602001828054610ad090611c83565b8015610b1d5780601f10610af257610100808354040283529160200191610b1d565b820191906000526020600020905b815481529060010190602001808311610b0057829003601f168201915b5050505050908060040154908060050154908060060160009054906101000a900473ffffffffffffffffffffffffffffffffffffffff16905087565b600082118015610b6a575060015482105b610ba9576040517f08c379a0000000000000000000000000000000000000000000000000000000008152600401610ba0906119ad565b60405180910390fd5b6000600260008481526020019081526020016000209050818160040154610bd09190611b65565b341015610c12576040517f08c379a0000000000000000000000000000000000000000000000000000000008152600401610c09906119cd565b60405180910390fd5b8181600501541015610c59576040517f08c379a0000000000000000000000000000000000000000000000000000000008152600401610c509061198d565b60405180910390fd5b81816005016000828254610c6d9190611bbf565b92505081905550600360003373ffffffffffffffffffffffffffffffffffffffff1673ffffffffffffffffffffffffffffffffffffffff1681526020019081526020016000208390806001815401808255809150506001900390600052602060002001600090919091909150553373ffffffffffffffffffffffffffffffffffffffff167f1452773cf753d0d7c71ed9990f7c7e2bdde4a2d08d187b3647953877e400488d8484604051610d22929190611aae565b60405180910390a28060060160009054906101000a900473ffffffffffffffffffffffffffffffffffffffff1673ffffffffffffffffffffffffffffffffffffffff166108fc349081150290604051600060405180830381858888f19350505050158015610d94573d6000803e3d6000fd5b50505050565b6004602052806000526040600020600091509050806000018054610dbd90611c83565b80601f0160208091040260200160405190810160405280929190818152602001828054610de990611c83565b8015610e365780601f10610e0b57610100808354040283529160200191610e36565b820191906000526020600020905b815481529060010190602001808311610e1957829003601f168201915b505050505090806001018054610e4b90611c83565b80601f0160208091040260200160405190810160405280929190818152602001828054610e7790611c83565b8015610ec45780601f10610e9957610100808354040283529160200191610ec4565b820191906000526020600020905b815481529060010190602001808311610ea757829003601f168201915b505050505090806002018054610ed990611c83565b80601f0160208091040260200160405190810160405280929190818152602001828054610f0590611c83565b8015610f525780601f10610f2757610100808354040283529160200191610f52565b820191906000526020600020905b815481529060010190602001808311610f3557829003601f168201915b505050505090806003018054610f6790611c83565b80601f0160208091040260200160405190810160405280929190818152602001828054610f9390611c83565b8015610fe05780601f10610fb557610100808354040283529160200191610fe0565b820191906000526020600020905b815481529060010190602001808311610fc357829003601f168201915b505050505090806004018054610ff590611c83565b80601f016020809104026020016040519081016040528092919081815260200182805461102190611c83565b801561106e5780601f106110435761010080835404028352916020019161106e565b820191906000526020600020905b81548152906001019060200180831161105157829003601f168201915b5050505050905085565b6040518060a0016040528086815260200185815260200184815260200183815260200182815250600460003373ffffffffffffffffffffffffffffffffffffffff1673ffffffffffffffffffffffffffffffffffffffff16815260200190815260200160002060008201518160000190805190602001906110fa9291906111cf565b5060208201518160010190805190602001906111179291906111cf565b5060408201518160020190805190602001906111349291906111cf565b5060608201518160030190805190602001906111519291906111cf565b50608082015181600401908051906020019061116e9291906111cf565b509050503373ffffffffffffffffffffffffffffffffffffffff167f1f84569f2f6072608a532ac425cf2bb74727f00715b809606176a785dec8ba8386868686866040516111c0959493929190611884565b60405180910390a25050505050565b8280546111db90611c83565b90600052602060002090601f0160209004810192826111fd5760008555611244565b82601f1061121657805160ff1916838001178555611244565b82800160010185558215611244579182015b82811115611243578251825591602001919060010190611228565b5b5090506112519190611284565b5090565b6040518060a0016040528060608152602001606081526020016060815260200160608152602001606081525090565b5b8082111561129d576000816000905550600101611285565b5090565b60006112b46112af84611b08565b611ad7565b9050828152602081018484840111156112cc57600080fd5b6112d7848285611c41565b509392505050565b6000813590506112ee81611d9c565b92915050565b60008135905061130381611db3565b92915050565b600082601f83011261131a57600080fd5b813561132a8482602086016112a1565b91505092915050565b60008135905061134281611dca565b92915050565b60006020828403121561135a57600080fd5b6000611368848285016112df565b91505092915050565b6000806040838503121561138457600080fd5b6000611392858286016112df565b92505060206113a385828601611333565b9150509250929050565b600080600080600060a086880312156113c557600080fd5b600086013567ffffffffffffffff8111156113df57600080fd5b6113eb88828901611309565b955050602086013567ffffffffffffffff81111561140857600080fd5b61141488828901611309565b945050604086013567ffffffffffffffff81111561143157600080fd5b61143d88828901611309565b935050606086013567ffffffffffffffff81111561145a57600080fd5b61146688828901611309565b925050608086013567ffffffffffffffff81111561148357600080fd5b61148f88828901611309565b9150509295509295909350565b60008060008060008060c087890312156114b557600080fd5b600087013567ffffffffffffffff8111156114cf57600080fd5b6114db89828a01611309565b965050602087013567ffffffffffffffff8111156114f857600080fd5b61150489828a01611309565b955050604087013567ffffffffffffffff81111561152157600080fd5b61152d89828a01611309565b945050606061153e89828a01611333565b935050608061154f89828a01611333565b92505060a061156089828a016112f4565b9150509295509295509295565b60006020828403121561157f57600080fd5b600061158d84828501611333565b91505092915050565b600080604083850312156115a957600080fd5b60006115b785828601611333565b92505060206115c885828601611333565b9150509250929050565b6115db81611c05565b82525050565b6115ea81611bf3565b82525050565b60006115fb82611b38565b6116058185611b43565b9350611615818560208601611c50565b61161e81611d8b565b840191505092915050565b600061163482611b38565b61163e8185611b54565b935061164e818560208601611c50565b61165781611d8b565b840191505092915050565b600061166f602683611b54565b91507f4f6e6c7920746865206f776e65722063616e2063616c6c20746869732066756e60008301527f6374696f6e2e00000000000000000000000000000000000000000000000000006020830152604082019050919050565b60006116d5600c83611b54565b91507f42616c616e6365206973203000000000000000000000000000000000000000006000830152602082019050919050565b6000611715601983611b54565b91507f4e6f7420656e6f756768206974656d7320696e2073746f636b000000000000006000830152602082019050919050565b6000611755601383611b54565b91507f4974656d20646f6573206e6f74206578697374000000000000000000000000006000830152602082019050919050565b6000611795601583611b54565b91507f4e6f7420656e6f7567682065746865722073656e7400000000000000000000006000830152602082019050919050565b600060a08301600083015184820360008601526117e582826115f0565b915050602083015184820360208601526117ff82826115f0565b9150506040830151848203604086015261181982826115f0565b9150506060830151848203606086015261183382826115f0565b9150506080830151848203608086015261184d82826115f0565b9150508091505092915050565b61186381611c37565b82525050565b600060208201905061187e60008301846115e1565b92915050565b600060a082019050818103600083015261189e8188611629565b905081810360208301526118b28187611629565b905081810360408301526118c68186611629565b905081810360608301526118da8185611629565b905081810360808301526118ee8184611629565b90509695505050505050565b600060808201905081810360008301526119148187611629565b905081810360208301526119288186611629565b9050611937604083018561185a565b611944606083018461185a565b95945050505050565b6000602082019050818103600083015261196681611662565b9050919050565b60006020820190508181036000830152611986816116c8565b9050919050565b600060208201905081810360008301526119a681611708565b9050919050565b600060208201905081810360008301526119c681611748565b9050919050565b600060208201905081810360008301526119e681611788565b9050919050565b60006020820190508181036000830152611a0781846117c8565b905092915050565b6000602082019050611a24600083018461185a565b92915050565b600060e082019050611a3f600083018a61185a565b8181036020830152611a518189611629565b90508181036040830152611a658188611629565b90508181036060830152611a798187611629565b9050611a88608083018661185a565b611a9560a083018561185a565b611aa260c08301846115d2565b98975050505050505050565b6000604082019050611ac3600083018561185a565b611ad0602083018461185a565b9392505050565b6000604051905081810181811067ffffffffffffffff82111715611afe57611afd611d5c565b5b8060405250919050565b600067ffffffffffffffff821115611b2357611b22611d5c565b5b601f19601f8301169050602081019050919050565b600081519050919050565b600082825260208201905092915050565b600082825260208201905092915050565b6000611b7082611c37565b9150611b7b83611c37565b9250817fffffffffffffffffffffffffffffffffffffffffffffffffffffffffffffffff0483118215151615611bb457611bb3611cfe565b5b828202905092915050565b6000611bca82611c37565b9150611bd583611c37565b925082821015611be857611be7611cfe565b5b828203905092915050565b6000611bfe82611c17565b9050919050565b6000611c1082611c17565b9050919050565b600073ffffffffffffffffffffffffffffffffffffffff82169050919050565b6000819050919050565b82818337600083830152505050565b60005b83811015611c6e578082015181840152602081019050611c53565b83811115611c7d576000848401525b50505050565b60006002820490506001821680611c9b57607f821691505b60208210811415611caf57611cae611d2d565b5b50919050565b6000611cc082611c37565b91507fffffffffffffffffffffffffffffffffffffffffffffffffffffffffffffffff821415611cf357611cf2611cfe565b5b600182019050919050565b7f4e487b7100000000000000000000000000000000000000000000000000000000600052601160045260246000fd5b7f4e487b7100000000000000000000000000000000000000000000000000000000600052602260045260246000fd5b7f4e487b7100000000000000000000000000000000000000000000000000000000600052604160045260246000fd5b6000601f19601f8301169050919050565b611da581611bf3565b8114611db057600080fd5b50565b611dbc81611c05565b8114611dc757600080fd5b50565b611dd381611c37565b8114611dde57600080fd5b5056fea2646970667358221220cf27bb86fa9a935630947985554d8bf6d5c002cf9c850585bf65d682ec17f11b64736f6c63430008000033",
  "immutableReferences": {},
  "source": "// SPDX-License-Identifier: UNLICENSED\r\npragma solidity ^0.8.0;\r\n\r\ncontract Amazon {\r\n    address public owner;\r\n    uint256 public itemCount = 1;  // Start from 1 to avoid zero initialization issues\r\n\r\n    struct Item {\r\n        uint256 id;\r\n        string name;\r\n        string category;\r\n        string imageUrl;\r\n        uint256 cost;\r\n        uint256 stock;\r\n        address payable seller;\r\n    }\r\n\r\n    struct ShippingInfo {\r\n        string name;\r\n        string street;\r\n        string city;\r\n        string postalCode;\r\n        string country;\r\n    }\r\n\r\n    mapping(uint256 => Item) public items;\r\n    mapping(address => uint256[]) public orders;\r\n    mapping(address => ShippingInfo) public shippingInfo;\r\n\r\n    event ItemListed(uint256 indexed itemId, string name, string imageUrl, uint256 cost, uint256 stock, address indexed seller);\r\n    event ItemPurchased(address indexed buyer, uint256 itemId, uint256 quantity);\r\n    event ShippingInfoUpdated(address indexed user, string name, string street, string city, string postalCode, string country);\r\n\r\n    modifier onlyOwner() {\r\n        require(msg.sender == owner, \"Only the owner can call this function.\");\r\n        _;\r\n    }\r\n\r\n    constructor() {\r\n        owner = msg.sender;\r\n    }\r\n\r\n    function list(\r\n        string memory _name,\r\n        string memory _category,\r\n        string memory _imageUrl,\r\n        uint256 _costWei,\r\n        uint256 _stock,\r\n        address payable _seller\r\n    ) public onlyOwner {\r\n        uint256 newItemId = itemCount++;\r\n        items[newItemId] = Item(newItemId, _name, _category, _imageUrl, _costWei, _stock, _seller);\r\n        emit ItemListed(newItemId, _name, _imageUrl, _costWei, _stock, _seller);\r\n    }\r\n\r\n    function buy(uint256 _id, uint256 _quantity) public payable {\r\n        require(_id > 0 && _id < itemCount, \"Item does not exist\");\r\n        Item storage item = items[_id];\r\n        require(msg.value >= item.cost * _quantity, \"Not enough ether sent\");\r\n        require(item.stock >= _quantity, \"Not enough items in stock\");\r\n\r\n        item.stock -= _quantity;\r\n        orders[msg.sender].push(_id);\r\n        emit ItemPurchased(msg.sender, _id, _quantity);\r\n\r\n        // Transfer money to the seller\r\n        item.seller.transfer(msg.value);\r\n    }\r\n\r\n    function setShippingInfo(\r\n        string memory _name,\r\n        string memory _street,\r\n        string memory _city,\r\n        string memory _postalCode,\r\n        string memory _country\r\n    ) public {\r\n        shippingInfo[msg.sender] = ShippingInfo(_name, _street, _city, _postalCode, _country);\r\n        emit ShippingInfoUpdated(msg.sender, _name, _street, _city, _postalCode, _country);\r\n    }\r\n\r\n    function getShippingInfo(address _user) public view returns (ShippingInfo memory) {\r\n        return shippingInfo[_user];\r\n    }\r\n\r\n    function withdraw() public onlyOwner {\r\n        uint256 balance = address(this).balance;\r\n        require(balance > 0, \"Balance is 0\");\r\n        payable(owner).transfer(balance);\r\n    }\r\n}\r\n",
  "sourcePath": "C:\\Users\\marti\\Documents\\projects\\web-3-amazon\\contracts\\Amazon.sol",
  "compiler": {
    "name": "solc",
    "version": "0.8.0+commit.c7dfd78e.Emscripten.clang"
  },
  "schemaVersion": "3.4.16",
  "updatedAt": "2024-04-17T13:08:24.006Z",
  "networkType": "ethereum",
  "devdoc": {
    "kind": "dev",
    "methods": {},
    "version": 1
  },
  "userdoc": {
    "kind": "user",
    "methods": {},
    "version": 1
  }
}