{
  "contractName": "Amazon",
  "abi": [
    {
      "inputs": [],
      "stateMutability": "nonpayable",
      "type": "constructor"
    },
    {
      "anonymous": false,
      "inputs": [
        {
          "indexed": true,
          "internalType": "uint256",
          "name": "itemId",
          "type": "uint256"
        }
      ],
      "name": "ItemDeleted",
      "type": "event"
    },
    {
      "anonymous": false,
      "inputs": [
        {
          "indexed": true,
          "internalType": "uint256",
          "name": "itemId",
          "type": "uint256"
        },
        {
          "indexed": false,
          "internalType": "string",
          "name": "name",
          "type": "string"
        },
        {
          "indexed": false,
          "internalType": "string",
          "name": "imageUrl",
          "type": "string"
        },
        {
          "indexed": false,
          "internalType": "uint256",
          "name": "cost",
          "type": "uint256"
        },
        {
          "indexed": false,
          "internalType": "uint256",
          "name": "stock",
          "type": "uint256"
        },
        {
          "indexed": true,
          "internalType": "address",
          "name": "seller",
          "type": "address"
        }
      ],
      "name": "ItemListed",
      "type": "event"
    },
    {
      "anonymous": false,
      "inputs": [
        {
          "indexed": true,
          "internalType": "address",
          "name": "buyer",
          "type": "address"
        },
        {
          "indexed": false,
          "internalType": "uint256",
          "name": "itemId",
          "type": "uint256"
        },
        {
          "indexed": false,
          "internalType": "uint256",
          "name": "quantity",
          "type": "uint256"
        }
      ],
      "name": "ItemPurchased",
      "type": "event"
    },
    {
      "anonymous": false,
      "inputs": [
        {
          "indexed": false,
          "internalType": "address",
          "name": "seller",
          "type": "address"
        }
      ],
      "name": "SellerAdded",
      "type": "event"
    },
    {
      "anonymous": false,
      "inputs": [
        {
          "indexed": false,
          "internalType": "address",
          "name": "seller",
          "type": "address"
        }
      ],
      "name": "SellerRemoved",
      "type": "event"
    },
    {
      "anonymous": false,
      "inputs": [
        {
          "indexed": true,
          "internalType": "address",
          "name": "user",
          "type": "address"
        },
        {
          "indexed": false,
          "internalType": "string",
          "name": "name",
          "type": "string"
        },
        {
          "indexed": false,
          "internalType": "string",
          "name": "street",
          "type": "string"
        },
        {
          "indexed": false,
          "internalType": "string",
          "name": "city",
          "type": "string"
        },
        {
          "indexed": false,
          "internalType": "string",
          "name": "postalCode",
          "type": "string"
        },
        {
          "indexed": false,
          "internalType": "string",
          "name": "country",
          "type": "string"
        }
      ],
      "name": "ShippingInfoUpdated",
      "type": "event"
    },
    {
      "inputs": [
        {
          "internalType": "address",
          "name": "",
          "type": "address"
        }
      ],
      "name": "isSeller",
      "outputs": [
        {
          "internalType": "bool",
          "name": "",
          "type": "bool"
        }
      ],
      "stateMutability": "view",
      "type": "function",
      "constant": true
    },
    {
      "inputs": [],
      "name": "itemCount",
      "outputs": [
        {
          "internalType": "uint256",
          "name": "",
          "type": "uint256"
        }
      ],
      "stateMutability": "view",
      "type": "function",
      "constant": true
    },
    {
      "inputs": [
        {
          "internalType": "uint256",
          "name": "",
          "type": "uint256"
        }
      ],
      "name": "items",
      "outputs": [
        {
          "internalType": "uint256",
          "name": "id",
          "type": "uint256"
        },
        {
          "internalType": "string",
          "name": "name",
          "type": "string"
        },
        {
          "internalType": "string",
          "name": "category",
          "type": "string"
        },
        {
          "internalType": "string",
          "name": "imageUrl",
          "type": "string"
        },
        {
          "internalType": "uint256",
          "name": "cost",
          "type": "uint256"
        },
        {
          "internalType": "uint256",
          "name": "stock",
          "type": "uint256"
        },
        {
          "internalType": "address payable",
          "name": "seller",
          "type": "address"
        }
      ],
      "stateMutability": "view",
      "type": "function",
      "constant": true
    },
    {
      "inputs": [
        {
          "internalType": "address",
          "name": "",
          "type": "address"
        },
        {
          "internalType": "uint256",
          "name": "",
          "type": "uint256"
        }
      ],
      "name": "orders",
      "outputs": [
        {
          "internalType": "uint256",
          "name": "",
          "type": "uint256"
        }
      ],
      "stateMutability": "view",
      "type": "function",
      "constant": true
    },
    {
      "inputs": [],
      "name": "owner",
      "outputs": [
        {
          "internalType": "address",
          "name": "",
          "type": "address"
        }
      ],
      "stateMutability": "view",
      "type": "function",
      "constant": true
    },
    {
      "inputs": [
        {
          "internalType": "address",
          "name": "",
          "type": "address"
        }
      ],
      "name": "shippingInfo",
      "outputs": [
        {
          "internalType": "string",
          "name": "name",
          "type": "string"
        },
        {
          "internalType": "string",
          "name": "street",
          "type": "string"
        },
        {
          "internalType": "string",
          "name": "city",
          "type": "string"
        },
        {
          "internalType": "string",
          "name": "postalCode",
          "type": "string"
        },
        {
          "internalType": "string",
          "name": "country",
          "type": "string"
        }
      ],
      "stateMutability": "view",
      "type": "function",
      "constant": true
    },
    {
      "inputs": [
        {
          "internalType": "address",
          "name": "_seller",
          "type": "address"
        }
      ],
      "name": "addSeller",
      "outputs": [],
      "stateMutability": "nonpayable",
      "type": "function"
    },
    {
      "inputs": [
        {
          "internalType": "address",
          "name": "_seller",
          "type": "address"
        }
      ],
      "name": "removeSeller",
      "outputs": [],
      "stateMutability": "nonpayable",
      "type": "function"
    },
    {
      "inputs": [
        {
          "internalType": "string",
          "name": "_name",
          "type": "string"
        },
        {
          "internalType": "string",
          "name": "_category",
          "type": "string"
        },
        {
          "internalType": "string",
          "name": "_imageUrl",
          "type": "string"
        },
        {
          "internalType": "uint256",
          "name": "_costWei",
          "type": "uint256"
        },
        {
          "internalType": "uint256",
          "name": "_stock",
          "type": "uint256"
        }
      ],
      "name": "list",
      "outputs": [],
      "stateMutability": "nonpayable",
      "type": "function"
    },
    {
      "inputs": [
        {
          "internalType": "uint256",
          "name": "_id",
          "type": "uint256"
        },
        {
          "internalType": "uint256",
          "name": "_quantity",
          "type": "uint256"
        }
      ],
      "name": "buy",
      "outputs": [],
      "stateMutability": "payable",
      "type": "function",
      "payable": true
    },
    {
      "inputs": [
        {
          "internalType": "string",
          "name": "_name",
          "type": "string"
        },
        {
          "internalType": "string",
          "name": "_street",
          "type": "string"
        },
        {
          "internalType": "string",
          "name": "_city",
          "type": "string"
        },
        {
          "internalType": "string",
          "name": "_postalCode",
          "type": "string"
        },
        {
          "internalType": "string",
          "name": "_country",
          "type": "string"
        }
      ],
      "name": "setShippingInfo",
      "outputs": [],
      "stateMutability": "nonpayable",
      "type": "function"
    },
    {
      "inputs": [
        {
          "internalType": "address",
          "name": "_user",
          "type": "address"
        }
      ],
      "name": "getShippingInfo",
      "outputs": [
        {
          "components": [
            {
              "internalType": "string",
              "name": "name",
              "type": "string"
            },
            {
              "internalType": "string",
              "name": "street",
              "type": "string"
            },
            {
              "internalType": "string",
              "name": "city",
              "type": "string"
            },
            {
              "internalType": "string",
              "name": "postalCode",
              "type": "string"
            },
            {
              "internalType": "string",
              "name": "country",
              "type": "string"
            }
          ],
          "internalType": "struct Amazon.ShippingInfo",
          "name": "",
          "type": "tuple"
        }
      ],
      "stateMutability": "view",
      "type": "function",
      "constant": true
    },
    {
      "inputs": [],
      "name": "withdraw",
      "outputs": [],
      "stateMutability": "nonpayable",
      "type": "function"
    },
    {
      "inputs": [
        {
          "internalType": "uint256",
          "name": "itemId",
          "type": "uint256"
        }
      ],
      "name": "deleteItem",
      "outputs": [],
      "stateMutability": "nonpayable",
      "type": "function"
    }
  ],
  "bytecode": "0x60806040526001805534801561001457600080fd5b50336000806101000a81548173ffffffffffffffffffffffffffffffffffffffff021916908373ffffffffffffffffffffffffffffffffffffffff1602179055506001600360008060009054906101000a900473ffffffffffffffffffffffffffffffffffffffff1673ffffffffffffffffffffffffffffffffffffffff1673ffffffffffffffffffffffffffffffffffffffff16815260200190815260200160002060006101000a81548160ff0219169083151502179055506124d3806100dd6000396000f3fe6080604052600436106100dd5760003560e01c8063bfb231d21161007f578063ec99490f11610059578063ec99490f146102a3578063ee95feaf146102cc578063f17cfe4e14610309578063fcfb88ca1461034a576100dd565b8063bfb231d21461021b578063d6febde81461025e578063d93fabfa1461027a576100dd565b8063793b8c6d116100bb578063793b8c6d1461014d5780637cb9cf541461018a5780638da5cb5b146101b3578063ba01a8f7146101de576100dd565b80633ccfd60b146100e2578063654fc833146100f95780636bfb0d0114610122575b600080fd5b3480156100ee57600080fd5b506100f7610373565b005b34801561010557600080fd5b50610120600480360381019061011b9190611b24565b6104b3565b005b34801561012e57600080fd5b506101376106f0565b60405161014491906120d6565b60405180910390f35b34801561015957600080fd5b50610174600480360381019061016f919061193a565b6106f6565b60405161018191906120d6565b60405180910390f35b34801561019657600080fd5b506101b160048036038101906101ac9190611911565b610727565b005b3480156101bf57600080fd5b506101c8610847565b6040516101d59190611ed5565b60405180910390f35b3480156101ea57600080fd5b5061020560048036038101906102009190611911565b61086b565b60405161021291906120b4565b60405180910390f35b34801561022757600080fd5b50610242600480360381019061023d9190611b24565b610b9e565b60405161025597969594939291906120f1565b60405180910390f35b61027860048036038101906102739190611b4d565b610d98565b005b34801561028657600080fd5b506102a1600480360381019061029c9190611911565b610fd9565b005b3480156102af57600080fd5b506102ca60048036038101906102c59190611a65565b6110f9565b005b3480156102d857600080fd5b506102f360048036038101906102ee9190611911565b611318565b6040516103009190611ef0565b60405180910390f35b34801561031557600080fd5b50610330600480360381019061032b9190611911565b611338565b604051610341959493929190611f0b565b60405180910390f35b34801561035657600080fd5b50610371600480360381019061036c9190611976565b611616565b005b60008054906101000a900473ffffffffffffffffffffffffffffffffffffffff1673ffffffffffffffffffffffffffffffffffffffff163373ffffffffffffffffffffffffffffffffffffffff1614610401576040517f08c379a00000000000000000000000000000000000000000000000000000000081526004016103f890612034565b60405180910390fd5b600047905060008111610449576040517f08c379a000000000000000000000000000000000000000000000000000000000815260040161044090611ff4565b60405180910390fd5b60008054906101000a900473ffffffffffffffffffffffffffffffffffffffff1673ffffffffffffffffffffffffffffffffffffffff166108fc829081150290604051600060405180830381858888f193505050501580156104af573d6000803e3d6000fd5b5050565b60008054906101000a900473ffffffffffffffffffffffffffffffffffffffff1673ffffffffffffffffffffffffffffffffffffffff163373ffffffffffffffffffffffffffffffffffffffff1614610541576040517f08c379a000000000000000000000000000000000000000000000000000000000815260040161053890612034565b60405180910390fd5b3373ffffffffffffffffffffffffffffffffffffffff166002600083815260200190815260200160002060060160009054906101000a900473ffffffffffffffffffffffffffffffffffffffff1673ffffffffffffffffffffffffffffffffffffffff1614806105fc575060008054906101000a900473ffffffffffffffffffffffffffffffffffffffff1673ffffffffffffffffffffffffffffffffffffffff163373ffffffffffffffffffffffffffffffffffffffff16145b61063b576040517f08c379a000000000000000000000000000000000000000000000000000000000815260040161063290611fd4565b60405180910390fd5b60026000828152602001908152602001600020600080820160009055600182016000610667919061176d565b600282016000610677919061176d565b600382016000610687919061176d565b600482016000905560058201600090556006820160006101000a81549073ffffffffffffffffffffffffffffffffffffffff02191690555050807f3d0be3a3bbdb36b253d40a546d15d6b7f402fc43e4cd4a067af359b0763b6f3c60405160405180910390a250565b60015481565b6004602052816000526040600020818154811061071257600080fd5b90600052602060002001600091509150505481565b60008054906101000a900473ffffffffffffffffffffffffffffffffffffffff1673ffffffffffffffffffffffffffffffffffffffff163373ffffffffffffffffffffffffffffffffffffffff16146107b5576040517f08c379a00000000000000000000000000000000000000000000000000000000081526004016107ac90612034565b60405180910390fd5b6000600360008373ffffffffffffffffffffffffffffffffffffffff1673ffffffffffffffffffffffffffffffffffffffff16815260200190815260200160002060006101000a81548160ff0219169083151502179055507fa6f3b3030df964d974376ba4db21cbe49207bd79998f0d619c1c3a422259707f8160405161083c9190611ed5565b60405180910390a150565b60008054906101000a900473ffffffffffffffffffffffffffffffffffffffff1681565b6108736117ad565b600560008373ffffffffffffffffffffffffffffffffffffffff1673ffffffffffffffffffffffffffffffffffffffff1681526020019081526020016000206040518060a00160405290816000820180546108cd90612356565b80601f01602080910402602001604051908101604052809291908181526020018280546108f990612356565b80156109465780601f1061091b57610100808354040283529160200191610946565b820191906000526020600020905b81548152906001019060200180831161092957829003601f168201915b5050505050815260200160018201805461095f90612356565b80601f016020809104026020016040519081016040528092919081815260200182805461098b90612356565b80156109d85780601f106109ad576101008083540402835291602001916109d8565b820191906000526020600020905b8154815290600101906020018083116109bb57829003601f168201915b505050505081526020016002820180546109f190612356565b80601f0160208091040260200160405190810160405280929190818152602001828054610a1d90612356565b8015610a6a5780601f10610a3f57610100808354040283529160200191610a6a565b820191906000526020600020905b815481529060010190602001808311610a4d57829003601f168201915b50505050508152602001600382018054610a8390612356565b80601f0160208091040260200160405190810160405280929190818152602001828054610aaf90612356565b8015610afc5780601f10610ad157610100808354040283529160200191610afc565b820191906000526020600020905b815481529060010190602001808311610adf57829003601f168201915b50505050508152602001600482018054610b1590612356565b80601f0160208091040260200160405190810160405280929190818152602001828054610b4190612356565b8015610b8e5780601f10610b6357610100808354040283529160200191610b8e565b820191906000526020600020905b815481529060010190602001808311610b7157829003601f168201915b5050505050815250509050919050565b6002602052806000526040600020600091509050806000015490806001018054610bc790612356565b80601f0160208091040260200160405190810160405280929190818152602001828054610bf390612356565b8015610c405780601f10610c1557610100808354040283529160200191610c40565b820191906000526020600020905b815481529060010190602001808311610c2357829003601f168201915b505050505090806002018054610c5590612356565b80601f0160208091040260200160405190810160405280929190818152602001828054610c8190612356565b8015610cce5780601f10610ca357610100808354040283529160200191610cce565b820191906000526020600020905b815481529060010190602001808311610cb157829003601f168201915b505050505090806003018054610ce390612356565b80601f0160208091040260200160405190810160405280929190818152602001828054610d0f90612356565b8015610d5c5780601f10610d3157610100808354040283529160200191610d5c565b820191906000526020600020905b815481529060010190602001808311610d3f57829003601f168201915b5050505050908060040154908060050154908060060160009054906101000a900473ffffffffffffffffffffffffffffffffffffffff16905087565b600082118015610da9575060015482105b610de8576040517f08c379a0000000000000000000000000000000000000000000000000000000008152600401610ddf90612074565b60405180910390fd5b6000600260008481526020019081526020016000209050818160040154610e0f919061222c565b341015610e51576040517f08c379a0000000000000000000000000000000000000000000000000000000008152600401610e4890612094565b60405180910390fd5b8181600501541015610e98576040517f08c379a0000000000000000000000000000000000000000000000000000000008152600401610e8f90612054565b60405180910390fd5b81816005016000828254610eac9190612286565b92505081905550600460003373ffffffffffffffffffffffffffffffffffffffff1673ffffffffffffffffffffffffffffffffffffffff1681526020019081526020016000208390806001815401808255809150506001900390600052602060002001600090919091909150558060060160009054906101000a900473ffffffffffffffffffffffffffffffffffffffff1673ffffffffffffffffffffffffffffffffffffffff166108fc349081150290604051600060405180830381858888f19350505050158015610f83573d6000803e3d6000fd5b503373ffffffffffffffffffffffffffffffffffffffff167f1452773cf753d0d7c71ed9990f7c7e2bdde4a2d08d187b3647953877e400488d8484604051610fcc929190612175565b60405180910390a2505050565b60008054906101000a900473ffffffffffffffffffffffffffffffffffffffff1673ffffffffffffffffffffffffffffffffffffffff163373ffffffffffffffffffffffffffffffffffffffff1614611067576040517f08c379a000000000000000000000000000000000000000000000000000000000815260040161105e90612034565b60405180910390fd5b6001600360008373ffffffffffffffffffffffffffffffffffffffff1673ffffffffffffffffffffffffffffffffffffffff16815260200190815260200160002060006101000a81548160ff0219169083151502179055507f3d78526f2568d430fd8e20719601f7bc3f979936f8880236cc284e8127251b42816040516110ee9190611ed5565b60405180910390a150565b600360003373ffffffffffffffffffffffffffffffffffffffff1673ffffffffffffffffffffffffffffffffffffffff16815260200190815260200160002060009054906101000a900460ff16611185576040517f08c379a000000000000000000000000000000000000000000000000000000000815260040161117c90612014565b60405180910390fd5b60006001600081548092919061119a90612388565b9190505590506040518060e001604052808281526020018781526020018681526020018581526020018481526020018381526020013373ffffffffffffffffffffffffffffffffffffffff16815250600260008381526020019081526020016000206000820151816000015560208201518160010190805190602001906112229291906117dc565b50604082015181600201908051906020019061123f9291906117dc565b50606082015181600301908051906020019061125c9291906117dc565b506080820151816004015560a0820151816005015560c08201518160060160006101000a81548173ffffffffffffffffffffffffffffffffffffffff021916908373ffffffffffffffffffffffffffffffffffffffff1602179055509050503373ffffffffffffffffffffffffffffffffffffffff16817fe57ce4f31a4875b562a2c44b4eebf69a81a0af7e8c42c91369d41d11f0d94405888787876040516113089493929190611f81565b60405180910390a3505050505050565b60036020528060005260406000206000915054906101000a900460ff1681565b600560205280600052604060002060009150905080600001805461135b90612356565b80601f016020809104026020016040519081016040528092919081815260200182805461138790612356565b80156113d45780601f106113a9576101008083540402835291602001916113d4565b820191906000526020600020905b8154815290600101906020018083116113b757829003601f168201915b5050505050908060010180546113e990612356565b80601f016020809104026020016040519081016040528092919081815260200182805461141590612356565b80156114625780601f1061143757610100808354040283529160200191611462565b820191906000526020600020905b81548152906001019060200180831161144557829003601f168201915b50505050509080600201805461147790612356565b80601f01602080910402602001604051908101604052809291908181526020018280546114a390612356565b80156114f05780601f106114c5576101008083540402835291602001916114f0565b820191906000526020600020905b8154815290600101906020018083116114d357829003601f168201915b50505050509080600301805461150590612356565b80601f016020809104026020016040519081016040528092919081815260200182805461153190612356565b801561157e5780601f106115535761010080835404028352916020019161157e565b820191906000526020600020905b81548152906001019060200180831161156157829003601f168201915b50505050509080600401805461159390612356565b80601f01602080910402602001604051908101604052809291908181526020018280546115bf90612356565b801561160c5780601f106115e15761010080835404028352916020019161160c565b820191906000526020600020905b8154815290600101906020018083116115ef57829003601f168201915b5050505050905085565b6040518060a0016040528086815260200185815260200184815260200183815260200182815250600560003373ffffffffffffffffffffffffffffffffffffffff1673ffffffffffffffffffffffffffffffffffffffff16815260200190815260200160002060008201518160000190805190602001906116989291906117dc565b5060208201518160010190805190602001906116b59291906117dc565b5060408201518160020190805190602001906116d29291906117dc565b5060608201518160030190805190602001906116ef9291906117dc565b50608082015181600401908051906020019061170c9291906117dc565b509050503373ffffffffffffffffffffffffffffffffffffffff167f1f84569f2f6072608a532ac425cf2bb74727f00715b809606176a785dec8ba83868686868660405161175e959493929190611f0b565b60405180910390a25050505050565b50805461177990612356565b6000825580601f1061178b57506117aa565b601f0160209004906000526020600020908101906117a99190611862565b5b50565b6040518060a0016040528060608152602001606081526020016060815260200160608152602001606081525090565b8280546117e890612356565b90600052602060002090601f01602090048101928261180a5760008555611851565b82601f1061182357805160ff1916838001178555611851565b82800160010185558215611851579182015b82811115611850578251825591602001919060010190611835565b5b50905061185e9190611862565b5090565b5b8082111561187b576000816000905550600101611863565b5090565b600061189261188d846121cf565b61219e565b9050828152602081018484840111156118aa57600080fd5b6118b5848285612314565b509392505050565b6000813590506118cc8161246f565b92915050565b600082601f8301126118e357600080fd5b81356118f384826020860161187f565b91505092915050565b60008135905061190b81612486565b92915050565b60006020828403121561192357600080fd5b6000611931848285016118bd565b91505092915050565b6000806040838503121561194d57600080fd5b600061195b858286016118bd565b925050602061196c858286016118fc565b9150509250929050565b600080600080600060a0868803121561198e57600080fd5b600086013567ffffffffffffffff8111156119a857600080fd5b6119b4888289016118d2565b955050602086013567ffffffffffffffff8111156119d157600080fd5b6119dd888289016118d2565b945050604086013567ffffffffffffffff8111156119fa57600080fd5b611a06888289016118d2565b935050606086013567ffffffffffffffff811115611a2357600080fd5b611a2f888289016118d2565b925050608086013567ffffffffffffffff811115611a4c57600080fd5b611a58888289016118d2565b9150509295509295909350565b600080600080600060a08688031215611a7d57600080fd5b600086013567ffffffffffffffff811115611a9757600080fd5b611aa3888289016118d2565b955050602086013567ffffffffffffffff811115611ac057600080fd5b611acc888289016118d2565b945050604086013567ffffffffffffffff811115611ae957600080fd5b611af5888289016118d2565b9350506060611b06888289016118fc565b9250506080611b17888289016118fc565b9150509295509295909350565b600060208284031215611b3657600080fd5b6000611b44848285016118fc565b91505092915050565b60008060408385031215611b6057600080fd5b6000611b6e858286016118fc565b9250506020611b7f858286016118fc565b9150509250929050565b611b92816122cc565b82525050565b611ba1816122ba565b82525050565b611bb0816122de565b82525050565b6000611bc1826121ff565b611bcb818561220a565b9350611bdb818560208601612323565b611be48161245e565b840191505092915050565b6000611bfa826121ff565b611c04818561221b565b9350611c14818560208601612323565b611c1d8161245e565b840191505092915050565b6000611c35600c8361221b565b91507f556e617574686f72697a656400000000000000000000000000000000000000006000830152602082019050919050565b6000611c75600c8361221b565b91507f42616c616e6365206973203000000000000000000000000000000000000000006000830152602082019050919050565b6000611cb5602e8361221b565b91507f4f6e6c7920617070726f7665642073656c6c6572732063616e20706572666f7260008301527f6d207468697320616374696f6e2e0000000000000000000000000000000000006020830152604082019050919050565b6000611d1b60278361221b565b91507f4f6e6c7920746865206f776e65722063616e20706572666f726d20746869732060008301527f616374696f6e2e000000000000000000000000000000000000000000000000006020830152604082019050919050565b6000611d8160198361221b565b91507f4e6f7420656e6f756768206974656d7320696e2073746f636b000000000000006000830152602082019050919050565b6000611dc160138361221b565b91507f4974656d20646f6573206e6f74206578697374000000000000000000000000006000830152602082019050919050565b6000611e0160158361221b565b91507f4e6f7420656e6f7567682065746865722073656e7400000000000000000000006000830152602082019050919050565b600060a0830160008301518482036000860152611e518282611bb6565b91505060208301518482036020860152611e6b8282611bb6565b91505060408301518482036040860152611e858282611bb6565b91505060608301518482036060860152611e9f8282611bb6565b91505060808301518482036080860152611eb98282611bb6565b9150508091505092915050565b611ecf8161230a565b82525050565b6000602082019050611eea6000830184611b98565b92915050565b6000602082019050611f056000830184611ba7565b92915050565b600060a0820190508181036000830152611f258188611bef565b90508181036020830152611f398187611bef565b90508181036040830152611f4d8186611bef565b90508181036060830152611f618185611bef565b90508181036080830152611f758184611bef565b90509695505050505050565b60006080820190508181036000830152611f9b8187611bef565b90508181036020830152611faf8186611bef565b9050611fbe6040830185611ec6565b611fcb6060830184611ec6565b95945050505050565b60006020820190508181036000830152611fed81611c28565b9050919050565b6000602082019050818103600083015261200d81611c68565b9050919050565b6000602082019050818103600083015261202d81611ca8565b9050919050565b6000602082019050818103600083015261204d81611d0e565b9050919050565b6000602082019050818103600083015261206d81611d74565b9050919050565b6000602082019050818103600083015261208d81611db4565b9050919050565b600060208201905081810360008301526120ad81611df4565b9050919050565b600060208201905081810360008301526120ce8184611e34565b905092915050565b60006020820190506120eb6000830184611ec6565b92915050565b600060e082019050612106600083018a611ec6565b81810360208301526121188189611bef565b9050818103604083015261212c8188611bef565b905081810360608301526121408187611bef565b905061214f6080830186611ec6565b61215c60a0830185611ec6565b61216960c0830184611b89565b98975050505050505050565b600060408201905061218a6000830185611ec6565b6121976020830184611ec6565b9392505050565b6000604051905081810181811067ffffffffffffffff821117156121c5576121c461242f565b5b8060405250919050565b600067ffffffffffffffff8211156121ea576121e961242f565b5b601f19601f8301169050602081019050919050565b600081519050919050565b600082825260208201905092915050565b600082825260208201905092915050565b60006122378261230a565b91506122428361230a565b9250817fffffffffffffffffffffffffffffffffffffffffffffffffffffffffffffffff048311821515161561227b5761227a6123d1565b5b828202905092915050565b60006122918261230a565b915061229c8361230a565b9250828210156122af576122ae6123d1565b5b828203905092915050565b60006122c5826122ea565b9050919050565b60006122d7826122ea565b9050919050565b60008115159050919050565b600073ffffffffffffffffffffffffffffffffffffffff82169050919050565b6000819050919050565b82818337600083830152505050565b60005b83811015612341578082015181840152602081019050612326565b83811115612350576000848401525b50505050565b6000600282049050600182168061236e57607f821691505b6020821081141561238257612381612400565b5b50919050565b60006123938261230a565b91507fffffffffffffffffffffffffffffffffffffffffffffffffffffffffffffffff8214156123c6576123c56123d1565b5b600182019050919050565b7f4e487b7100000000000000000000000000000000000000000000000000000000600052601160045260246000fd5b7f4e487b7100000000000000000000000000000000000000000000000000000000600052602260045260246000fd5b7f4e487b7100000000000000000000000000000000000000000000000000000000600052604160045260246000fd5b6000601f19601f8301169050919050565b612478816122ba565b811461248357600080fd5b50565b61248f8161230a565b811461249a57600080fd5b5056fea2646970667358221220b4ec03c157bbbfed2e46f2d5ea6dcf2d4a1a5b63954447a0e4c805b501bef3ac64736f6c63430008000033",
  "immutableReferences": {},
  "source": "// SPDX-License-Identifier: UNLICENSED\r\npragma solidity ^0.8.0;\r\n\r\ncontract Amazon {\r\n    address public owner;\r\n    uint256 public itemCount = 1;\r\n\r\n    struct Item {\r\n        uint256 id;\r\n        string name;\r\n        string category;\r\n        string imageUrl;\r\n        uint256 cost;\r\n        uint256 stock;\r\n        address payable seller;\r\n    }\r\n\r\n    struct ShippingInfo {\r\n        string name;\r\n        string street;\r\n        string city;\r\n        string postalCode;\r\n        string country;\r\n    }\r\n\r\n    mapping(uint256 => Item) public items;\r\n    mapping(address => bool) public isSeller;\r\n    mapping(address => uint256[]) public orders;\r\n    mapping(address => ShippingInfo) public shippingInfo;\r\n\r\n    event ItemListed(uint256 indexed itemId, string name, string imageUrl, uint256 cost, uint256 stock, address indexed seller);\r\n    event ItemPurchased(address indexed buyer, uint256 itemId, uint256 quantity);\r\n    event ShippingInfoUpdated(address indexed user, string name, string street, string city, string postalCode, string country);\r\n    event ItemDeleted(uint256 indexed itemId);\r\n    event SellerAdded(address seller);\r\n    event SellerRemoved(address seller);\r\n\r\n    modifier onlyOwner() {\r\n        require(msg.sender == owner, \"Only the owner can perform this action.\");\r\n        _;\r\n    }\r\n\r\n    modifier onlySeller() {\r\n        require(isSeller[msg.sender], \"Only approved sellers can perform this action.\");\r\n        _;\r\n    }\r\n\r\n    constructor() {\r\n        owner = msg.sender;\r\n        isSeller[owner] = true; // Owner is automatically a seller\r\n    }\r\n\r\n    function addSeller(address _seller) public onlyOwner {\r\n        isSeller[_seller] = true;\r\n        emit SellerAdded(_seller);\r\n    }\r\n\r\n    function removeSeller(address _seller) public onlyOwner {\r\n        isSeller[_seller] = false;\r\n        emit SellerRemoved(_seller);\r\n    }\r\n\r\n    function list(string memory _name, string memory _category, string memory _imageUrl, uint256 _costWei, uint256 _stock) public onlySeller {\r\n        uint256 newItemId = itemCount++;\r\n        items[newItemId] = Item(newItemId, _name, _category, _imageUrl, _costWei, _stock, payable(msg.sender));\r\n        emit ItemListed(newItemId, _name, _imageUrl, _costWei, _stock, msg.sender);\r\n    }\r\n\r\n    function buy(uint256 _id, uint256 _quantity) public payable {\r\n        require(_id > 0 && _id < itemCount, \"Item does not exist\");\r\n        Item storage item = items[_id];\r\n        require(msg.value >= item.cost * _quantity, \"Not enough ether sent\");\r\n        require(item.stock >= _quantity, \"Not enough items in stock\");\r\n\r\n        item.stock -= _quantity;\r\n        orders[msg.sender].push(_id);\r\n        item.seller.transfer(msg.value);\r\n        emit ItemPurchased(msg.sender, _id, _quantity);\r\n    }\r\n\r\n    function setShippingInfo(string memory _name, string memory _street, string memory _city, string memory _postalCode, string memory _country) public {\r\n        shippingInfo[msg.sender] = ShippingInfo(_name, _street, _city, _postalCode, _country);\r\n        emit ShippingInfoUpdated(msg.sender, _name, _street, _city, _postalCode, _country);\r\n    }\r\n\r\n    function getShippingInfo(address _user) public view returns (ShippingInfo memory) {\r\n        return shippingInfo[_user];\r\n    }\r\n\r\n    function withdraw() public onlyOwner {\r\n        uint256 balance = address(this).balance;\r\n        require(balance > 0, \"Balance is 0\");\r\n        payable(owner).transfer(balance);\r\n    }\r\n\r\n    function deleteItem(uint256 itemId) public onlyOwner {\r\n        require(items[itemId].seller == msg.sender || msg.sender == owner, \"Unauthorized\");\r\n        delete items[itemId];\r\n        emit ItemDeleted(itemId);\r\n    }\r\n}\r\n",
  "sourcePath": "C:\\Users\\marti\\Documents\\projects\\web-3-amazon\\contracts\\Amazon.sol",
  "compiler": {
    "name": "solc",
    "version": "0.8.0+commit.c7dfd78e.Emscripten.clang"
  },
  "schemaVersion": "3.4.16",
  "updatedAt": "2024-04-25T11:04:49.573Z",
  "networkType": "ethereum",
  "devdoc": {
    "kind": "dev",
    "methods": {},
    "version": 1
  },
  "userdoc": {
    "kind": "user",
    "methods": {},
    "version": 1
  }
}