{
  "contractName": "Amazon",
  "abi": [
    {
      "inputs": [],
      "stateMutability": "nonpayable",
      "type": "constructor"
    },
    {
      "anonymous": false,
      "inputs": [
        {
          "indexed": false,
          "internalType": "address",
          "name": "buyer",
          "type": "address"
        },
        {
          "indexed": false,
          "internalType": "uint256",
          "name": "orderId",
          "type": "uint256"
        },
        {
          "indexed": false,
          "internalType": "uint256",
          "name": "itemId",
          "type": "uint256"
        }
      ],
      "name": "Buy",
      "type": "event"
    },
    {
      "anonymous": false,
      "inputs": [
        {
          "indexed": false,
          "internalType": "string",
          "name": "name",
          "type": "string"
        },
        {
          "indexed": false,
          "internalType": "uint256",
          "name": "cost",
          "type": "uint256"
        },
        {
          "indexed": false,
          "internalType": "uint256",
          "name": "quantity",
          "type": "uint256"
        }
      ],
      "name": "List",
      "type": "event"
    },
    {
      "inputs": [
        {
          "internalType": "uint256",
          "name": "",
          "type": "uint256"
        }
      ],
      "name": "items",
      "outputs": [
        {
          "internalType": "uint256",
          "name": "id",
          "type": "uint256"
        },
        {
          "internalType": "string",
          "name": "name",
          "type": "string"
        },
        {
          "internalType": "string",
          "name": "category",
          "type": "string"
        },
        {
          "internalType": "string",
          "name": "image",
          "type": "string"
        },
        {
          "internalType": "uint256",
          "name": "cost",
          "type": "uint256"
        },
        {
          "internalType": "uint256",
          "name": "rating",
          "type": "uint256"
        },
        {
          "internalType": "uint256",
          "name": "stock",
          "type": "uint256"
        }
      ],
      "stateMutability": "view",
      "type": "function",
      "constant": true
    },
    {
      "inputs": [
        {
          "internalType": "address",
          "name": "",
          "type": "address"
        }
      ],
      "name": "orderCount",
      "outputs": [
        {
          "internalType": "uint256",
          "name": "",
          "type": "uint256"
        }
      ],
      "stateMutability": "view",
      "type": "function",
      "constant": true
    },
    {
      "inputs": [
        {
          "internalType": "address",
          "name": "",
          "type": "address"
        },
        {
          "internalType": "uint256",
          "name": "",
          "type": "uint256"
        }
      ],
      "name": "orders",
      "outputs": [
        {
          "internalType": "uint256",
          "name": "time",
          "type": "uint256"
        },
        {
          "components": [
            {
              "internalType": "uint256",
              "name": "id",
              "type": "uint256"
            },
            {
              "internalType": "string",
              "name": "name",
              "type": "string"
            },
            {
              "internalType": "string",
              "name": "category",
              "type": "string"
            },
            {
              "internalType": "string",
              "name": "image",
              "type": "string"
            },
            {
              "internalType": "uint256",
              "name": "cost",
              "type": "uint256"
            },
            {
              "internalType": "uint256",
              "name": "rating",
              "type": "uint256"
            },
            {
              "internalType": "uint256",
              "name": "stock",
              "type": "uint256"
            }
          ],
          "internalType": "struct Amazon.Item",
          "name": "item",
          "type": "tuple"
        }
      ],
      "stateMutability": "view",
      "type": "function",
      "constant": true
    },
    {
      "inputs": [],
      "name": "owner",
      "outputs": [
        {
          "internalType": "address",
          "name": "",
          "type": "address"
        }
      ],
      "stateMutability": "view",
      "type": "function",
      "constant": true
    },
    {
      "inputs": [
        {
          "internalType": "uint256",
          "name": "_id",
          "type": "uint256"
        },
        {
          "internalType": "string",
          "name": "_name",
          "type": "string"
        },
        {
          "internalType": "string",
          "name": "_category",
          "type": "string"
        },
        {
          "internalType": "string",
          "name": "_image",
          "type": "string"
        },
        {
          "internalType": "uint256",
          "name": "_cost",
          "type": "uint256"
        },
        {
          "internalType": "uint256",
          "name": "_rating",
          "type": "uint256"
        },
        {
          "internalType": "uint256",
          "name": "_stock",
          "type": "uint256"
        }
      ],
      "name": "list",
      "outputs": [],
      "stateMutability": "nonpayable",
      "type": "function"
    },
    {
      "inputs": [
        {
          "internalType": "uint256",
          "name": "_id",
          "type": "uint256"
        }
      ],
      "name": "buy",
      "outputs": [],
      "stateMutability": "payable",
      "type": "function",
      "payable": true
    },
    {
      "inputs": [],
      "name": "withdraw",
      "outputs": [],
      "stateMutability": "nonpayable",
      "type": "function"
    }
  ],
  "bytecode": "0x608060405234801561001057600080fd5b50336000806101000a81548173ffffffffffffffffffffffffffffffffffffffff021916908373ffffffffffffffffffffffffffffffffffffffff1602179055506114f2806100606000396000f3fe6080604052600436106100705760003560e01c80638da5cb5b1161004e5780638da5cb5b14610107578063bfb231d214610132578063d96a094a14610175578063eea8a7e81461019157610070565b80633ccfd60b14610075578063713d856b1461008c578063793b8c6d146100c9575b600080fd5b34801561008157600080fd5b5061008a6101ba565b005b34801561009857600080fd5b506100b360048036038101906100ae9190610ddf565b6102ac565b6040516100c0919061115b565b60405180910390f35b3480156100d557600080fd5b506100f060048036038101906100eb9190610e08565b6102c4565b6040516100fe9291906111fa565b60405180910390f35b34801561011357600080fd5b5061011c6104dd565b60405161012991906110cb565b60405180910390f35b34801561013e57600080fd5b5061015960048036038101906101549190610e44565b610501565b60405161016c9796959493929190611176565b60405180910390f35b61018f600480360381019061018a9190610e44565b6106db565b005b34801561019d57600080fd5b506101b860048036038101906101b39190610e6d565b610b40565b005b60008054906101000a900473ffffffffffffffffffffffffffffffffffffffff1673ffffffffffffffffffffffffffffffffffffffff163373ffffffffffffffffffffffffffffffffffffffff161461021257600080fd5b60008060009054906101000a900473ffffffffffffffffffffffffffffffffffffffff1673ffffffffffffffffffffffffffffffffffffffff1647604051610259906110b6565b60006040518083038185875af1925050503d8060008114610296576040519150601f19603f3d011682016040523d82523d6000602084013e61029b565b606091505b50509050806102a957600080fd5b50565b60036020528060005260406000206000915090505481565b600260205281600052604060002060205280600052604060002060009150915050806000015490806001016040518060e00160405290816000820154815260200160018201805461031490611375565b80601f016020809104026020016040519081016040528092919081815260200182805461034090611375565b801561038d5780601f106103625761010080835404028352916020019161038d565b820191906000526020600020905b81548152906001019060200180831161037057829003601f168201915b505050505081526020016002820180546103a690611375565b80601f01602080910402602001604051908101604052809291908181526020018280546103d290611375565b801561041f5780601f106103f45761010080835404028352916020019161041f565b820191906000526020600020905b81548152906001019060200180831161040257829003601f168201915b5050505050815260200160038201805461043890611375565b80601f016020809104026020016040519081016040528092919081815260200182805461046490611375565b80156104b15780601f10610486576101008083540402835291602001916104b1565b820191906000526020600020905b81548152906001019060200180831161049457829003601f168201915b505050505081526020016004820154815260200160058201548152602001600682015481525050905082565b60008054906101000a900473ffffffffffffffffffffffffffffffffffffffff1681565b600160205280600052604060002060009150905080600001549080600101805461052a90611375565b80601f016020809104026020016040519081016040528092919081815260200182805461055690611375565b80156105a35780601f10610578576101008083540402835291602001916105a3565b820191906000526020600020905b81548152906001019060200180831161058657829003601f168201915b5050505050908060020180546105b890611375565b80601f01602080910402602001604051908101604052809291908181526020018280546105e490611375565b80156106315780601f1061060657610100808354040283529160200191610631565b820191906000526020600020905b81548152906001019060200180831161061457829003601f168201915b50505050509080600301805461064690611375565b80601f016020809104026020016040519081016040528092919081815260200182805461067290611375565b80156106bf5780601f10610694576101008083540402835291602001916106bf565b820191906000526020600020905b8154815290600101906020018083116106a257829003601f168201915b5050505050908060040154908060050154908060060154905087565b6000600160008381526020019081526020016000206040518060e00160405290816000820154815260200160018201805461071590611375565b80601f016020809104026020016040519081016040528092919081815260200182805461074190611375565b801561078e5780601f106107635761010080835404028352916020019161078e565b820191906000526020600020905b81548152906001019060200180831161077157829003601f168201915b505050505081526020016002820180546107a790611375565b80601f01602080910402602001604051908101604052809291908181526020018280546107d390611375565b80156108205780601f106107f557610100808354040283529160200191610820565b820191906000526020600020905b81548152906001019060200180831161080357829003601f168201915b5050505050815260200160038201805461083990611375565b80601f016020809104026020016040519081016040528092919081815260200182805461086590611375565b80156108b25780601f10610887576101008083540402835291602001916108b2565b820191906000526020600020905b81548152906001019060200180831161089557829003601f168201915b505050505081526020016004820154815260200160058201548152602001600682015481525050905080608001513410156108ec57600080fd5b60008160c00151116108fd57600080fd5b60006040518060400160405280428152602001838152509050600360003373ffffffffffffffffffffffffffffffffffffffff1673ffffffffffffffffffffffffffffffffffffffff1681526020019081526020016000206000815480929190610966906113a7565b919050555080600260003373ffffffffffffffffffffffffffffffffffffffff1673ffffffffffffffffffffffffffffffffffffffff1681526020019081526020016000206000600360003373ffffffffffffffffffffffffffffffffffffffff1673ffffffffffffffffffffffffffffffffffffffff16815260200190815260200160002054815260200190815260200160002060008201518160000155602082015181600101600082015181600001556020820151816001019080519060200190610a34929190610caa565b506040820151816002019080519060200190610a51929190610caa565b506060820151816003019080519060200190610a6e929190610caa565b506080820151816004015560a0820151816005015560c08201518160060155505090505060018260c00151610aa391906112c3565b60016000858152602001908152602001600020600601819055507f1cbc5ab135991bd2b6a4b034a04aa2aa086dac1371cb9b16b8b5e2ed6b036bed33600360003373ffffffffffffffffffffffffffffffffffffffff1673ffffffffffffffffffffffffffffffffffffffff168152602001908152602001600020548460000151604051610b33939291906110e6565b60405180910390a1505050565b60008054906101000a900473ffffffffffffffffffffffffffffffffffffffff1673ffffffffffffffffffffffffffffffffffffffff163373ffffffffffffffffffffffffffffffffffffffff1614610b9857600080fd5b60006040518060e0016040528089815260200188815260200187815260200186815260200185815260200184815260200183815250905080600160008a8152602001908152602001600020600082015181600001556020820151816001019080519060200190610c09929190610caa565b506040820151816002019080519060200190610c26929190610caa565b506060820151816003019080519060200190610c43929190610caa565b506080820151816004015560a0820151816005015560c082015181600601559050507ffdbe2a012c10ec01592653978eaa09b5ca60b143a0e617505b2ebcbd911ec5b8878584604051610c989392919061111d565b60405180910390a15050505050505050565b828054610cb690611375565b90600052602060002090601f016020900481019282610cd85760008555610d1f565b82601f10610cf157805160ff1916838001178555610d1f565b82800160010185558215610d1f579182015b82811115610d1e578251825591602001919060010190610d03565b5b509050610d2c9190610d30565b5090565b5b80821115610d49576000816000905550600101610d31565b5090565b6000610d60610d5b8461125b565b61122a565b905082815260208101848484011115610d7857600080fd5b610d83848285611333565b509392505050565b600081359050610d9a8161148e565b92915050565b600082601f830112610db157600080fd5b8135610dc1848260208601610d4d565b91505092915050565b600081359050610dd9816114a5565b92915050565b600060208284031215610df157600080fd5b6000610dff84828501610d8b565b91505092915050565b60008060408385031215610e1b57600080fd5b6000610e2985828601610d8b565b9250506020610e3a85828601610dca565b9150509250929050565b600060208284031215610e5657600080fd5b6000610e6484828501610dca565b91505092915050565b600080600080600080600060e0888a031215610e8857600080fd5b6000610e968a828b01610dca565b975050602088013567ffffffffffffffff811115610eb357600080fd5b610ebf8a828b01610da0565b965050604088013567ffffffffffffffff811115610edc57600080fd5b610ee88a828b01610da0565b955050606088013567ffffffffffffffff811115610f0557600080fd5b610f118a828b01610da0565b9450506080610f228a828b01610dca565b93505060a0610f338a828b01610dca565b92505060c0610f448a828b01610dca565b91505092959891949750929550565b610f5c816112f7565b82525050565b6000610f6d8261128b565b610f7781856112a1565b9350610f87818560208601611342565b610f908161147d565b840191505092915050565b6000610fa68261128b565b610fb081856112b2565b9350610fc0818560208601611342565b610fc98161147d565b840191505092915050565b6000610fe1600083611296565b9150600082019050919050565b600060e0830160008301516110066000860182611098565b506020830151848203602086015261101e8282610f62565b915050604083015184820360408601526110388282610f62565b915050606083015184820360608601526110528282610f62565b91505060808301516110676080860182611098565b5060a083015161107a60a0860182611098565b5060c083015161108d60c0860182611098565b508091505092915050565b6110a181611329565b82525050565b6110b081611329565b82525050565b60006110c182610fd4565b9150819050919050565b60006020820190506110e06000830184610f53565b92915050565b60006060820190506110fb6000830186610f53565b61110860208301856110a7565b61111560408301846110a7565b949350505050565b600060608201905081810360008301526111378186610f9b565b905061114660208301856110a7565b61115360408301846110a7565b949350505050565b600060208201905061117060008301846110a7565b92915050565b600060e08201905061118b600083018a6110a7565b818103602083015261119d8189610f9b565b905081810360408301526111b18188610f9b565b905081810360608301526111c58187610f9b565b90506111d460808301866110a7565b6111e160a08301856110a7565b6111ee60c08301846110a7565b98975050505050505050565b600060408201905061120f60008301856110a7565b81810360208301526112218184610fee565b90509392505050565b6000604051905081810181811067ffffffffffffffff821117156112515761125061144e565b5b8060405250919050565b600067ffffffffffffffff8211156112765761127561144e565b5b601f19601f8301169050602081019050919050565b600081519050919050565b600081905092915050565b600082825260208201905092915050565b600082825260208201905092915050565b60006112ce82611329565b91506112d983611329565b9250828210156112ec576112eb6113f0565b5b828203905092915050565b600061130282611309565b9050919050565b600073ffffffffffffffffffffffffffffffffffffffff82169050919050565b6000819050919050565b82818337600083830152505050565b60005b83811015611360578082015181840152602081019050611345565b8381111561136f576000848401525b50505050565b6000600282049050600182168061138d57607f821691505b602082108114156113a1576113a061141f565b5b50919050565b60006113b282611329565b91507fffffffffffffffffffffffffffffffffffffffffffffffffffffffffffffffff8214156113e5576113e46113f0565b5b600182019050919050565b7f4e487b7100000000000000000000000000000000000000000000000000000000600052601160045260246000fd5b7f4e487b7100000000000000000000000000000000000000000000000000000000600052602260045260246000fd5b7f4e487b7100000000000000000000000000000000000000000000000000000000600052604160045260246000fd5b6000601f19601f8301169050919050565b611497816112f7565b81146114a257600080fd5b50565b6114ae81611329565b81146114b957600080fd5b5056fea26469706673582212203783c55d857e375974a50e36b9df1b2888e5c734873f724f03f0364aec751f4b64736f6c63430008000033",
  "immutableReferences": {},
  "source": "// SPDX-License-Identifier: UNLICENSED\r\npragma solidity ^0.8.0;\r\n\r\ncontract Amazon {\r\n    address public owner;\r\n\r\n    struct Item {\r\n        uint256 id;\r\n        string name;\r\n        string category;\r\n        string image;\r\n        uint256 cost;\r\n        uint256 rating;\r\n        uint256 stock;\r\n    }\r\n\r\n    struct Order {\r\n        uint256 time;\r\n        Item item;\r\n    }\r\n\r\n    mapping(uint256 => Item) public items;\r\n    mapping(address => mapping(uint256 => Order)) public orders;\r\n    mapping(address => uint256) public orderCount;\r\n\r\n    event Buy(address buyer, uint256 orderId, uint256 itemId);\r\n    event List(string name, uint256 cost, uint256 quantity);\r\n\r\n    modifier onlyOwner() {\r\n        require(msg.sender == owner);\r\n        _;\r\n    }\r\n\r\n    constructor() {\r\n        owner = msg.sender;\r\n    }\r\n\r\n    function list(\r\n        uint256 _id,\r\n        string memory _name,\r\n        string memory _category,\r\n        string memory _image,\r\n        uint256 _cost,\r\n        uint256 _rating,\r\n        uint256 _stock\r\n    ) public onlyOwner {\r\n        // Create Item\r\n        Item memory item = Item(\r\n            _id,\r\n            _name,\r\n            _category,\r\n            _image,\r\n            _cost,\r\n            _rating,\r\n            _stock\r\n        );\r\n\r\n        // Add Item to mapping\r\n        items[_id] = item;\r\n\r\n        // Emit event\r\n        emit List(_name, _cost, _stock);\r\n    }\r\n\r\n    function buy(uint256 _id) public payable {\r\n        // Fetch item\r\n        Item memory item = items[_id];\r\n\r\n        // Require enough ether to buy item\r\n        require(msg.value >= item.cost);\r\n\r\n        // Require item is in stock\r\n        require(item.stock > 0);\r\n\r\n        // Create order\r\n        Order memory order = Order(block.timestamp, item);\r\n\r\n        // Add order for user\r\n        orderCount[msg.sender]++; // <-- Order ID\r\n        orders[msg.sender][orderCount[msg.sender]] = order;\r\n\r\n        // Subtract stock\r\n        items[_id].stock = item.stock - 1;\r\n\r\n        // Emit event\r\n        emit Buy(msg.sender, orderCount[msg.sender], item.id);\r\n    }\r\n\r\n    function withdraw() public onlyOwner {\r\n        (bool success, ) = owner.call{value: address(this).balance}(\"\");\r\n        require(success);\r\n    }\r\n}",
  "sourcePath": "C:\\Users\\marti\\Documents\\projects\\web-3-amazon\\contracts\\Amazon.sol",
  "compiler": {
    "name": "solc",
    "version": "0.8.0+commit.c7dfd78e.Emscripten.clang"
  },
  "schemaVersion": "3.4.16",
  "updatedAt": "2024-04-10T08:31:55.002Z",
  "networkType": "ethereum",
  "devdoc": {
    "kind": "dev",
    "methods": {},
    "version": 1
  },
  "userdoc": {
    "kind": "user",
    "methods": {},
    "version": 1
  }
}