{
  "contractName": "Amazon",
  "abi": [
    {
      "inputs": [],
      "stateMutability": "nonpayable",
      "type": "constructor"
    },
    {
      "anonymous": false,
      "inputs": [
        {
          "indexed": true,
          "internalType": "address",
          "name": "buyer",
          "type": "address"
        },
        {
          "indexed": false,
          "internalType": "uint256",
          "name": "itemId",
          "type": "uint256"
        },
        {
          "indexed": false,
          "internalType": "uint256",
          "name": "quantity",
          "type": "uint256"
        }
      ],
      "name": "Buy",
      "type": "event"
    },
    {
      "anonymous": false,
      "inputs": [
        {
          "indexed": true,
          "internalType": "uint256",
          "name": "itemId",
          "type": "uint256"
        },
        {
          "indexed": false,
          "internalType": "string",
          "name": "name",
          "type": "string"
        },
        {
          "indexed": false,
          "internalType": "string",
          "name": "imageUrl",
          "type": "string"
        },
        {
          "indexed": false,
          "internalType": "uint256",
          "name": "cost",
          "type": "uint256"
        },
        {
          "indexed": false,
          "internalType": "uint256",
          "name": "stock",
          "type": "uint256"
        }
      ],
      "name": "List",
      "type": "event"
    },
    {
      "anonymous": false,
      "inputs": [
        {
          "indexed": false,
          "internalType": "uint256",
          "name": "itemId",
          "type": "uint256"
        },
        {
          "indexed": false,
          "internalType": "string",
          "name": "name",
          "type": "string"
        },
        {
          "indexed": false,
          "internalType": "string",
          "name": "street",
          "type": "string"
        },
        {
          "indexed": false,
          "internalType": "string",
          "name": "city",
          "type": "string"
        },
        {
          "indexed": false,
          "internalType": "string",
          "name": "postalCode",
          "type": "string"
        },
        {
          "indexed": false,
          "internalType": "string",
          "name": "country",
          "type": "string"
        },
        {
          "indexed": false,
          "internalType": "bool",
          "name": "shipped",
          "type": "bool"
        }
      ],
      "name": "ShippingUpdated",
      "type": "event"
    },
    {
      "inputs": [],
      "name": "itemCount",
      "outputs": [
        {
          "internalType": "uint256",
          "name": "",
          "type": "uint256"
        }
      ],
      "stateMutability": "view",
      "type": "function",
      "constant": true
    },
    {
      "inputs": [
        {
          "internalType": "uint256",
          "name": "",
          "type": "uint256"
        }
      ],
      "name": "items",
      "outputs": [
        {
          "internalType": "uint256",
          "name": "id",
          "type": "uint256"
        },
        {
          "internalType": "string",
          "name": "name",
          "type": "string"
        },
        {
          "internalType": "string",
          "name": "category",
          "type": "string"
        },
        {
          "internalType": "string",
          "name": "imageUrl",
          "type": "string"
        },
        {
          "internalType": "uint256",
          "name": "cost",
          "type": "uint256"
        },
        {
          "internalType": "uint256",
          "name": "stock",
          "type": "uint256"
        },
        {
          "internalType": "address payable",
          "name": "seller",
          "type": "address"
        }
      ],
      "stateMutability": "view",
      "type": "function",
      "constant": true
    },
    {
      "inputs": [
        {
          "internalType": "address",
          "name": "",
          "type": "address"
        },
        {
          "internalType": "uint256",
          "name": "",
          "type": "uint256"
        }
      ],
      "name": "orders",
      "outputs": [
        {
          "internalType": "uint256",
          "name": "",
          "type": "uint256"
        }
      ],
      "stateMutability": "view",
      "type": "function",
      "constant": true
    },
    {
      "inputs": [],
      "name": "owner",
      "outputs": [
        {
          "internalType": "address",
          "name": "",
          "type": "address"
        }
      ],
      "stateMutability": "view",
      "type": "function",
      "constant": true
    },
    {
      "inputs": [
        {
          "internalType": "uint256",
          "name": "",
          "type": "uint256"
        }
      ],
      "name": "shippingDetails",
      "outputs": [
        {
          "internalType": "string",
          "name": "name",
          "type": "string"
        },
        {
          "internalType": "string",
          "name": "street",
          "type": "string"
        },
        {
          "internalType": "string",
          "name": "city",
          "type": "string"
        },
        {
          "internalType": "string",
          "name": "postalCode",
          "type": "string"
        },
        {
          "internalType": "string",
          "name": "country",
          "type": "string"
        },
        {
          "internalType": "bool",
          "name": "shipped",
          "type": "bool"
        }
      ],
      "stateMutability": "view",
      "type": "function",
      "constant": true
    },
    {
      "inputs": [
        {
          "internalType": "string",
          "name": "_name",
          "type": "string"
        },
        {
          "internalType": "string",
          "name": "_category",
          "type": "string"
        },
        {
          "internalType": "string",
          "name": "_imageUrl",
          "type": "string"
        },
        {
          "internalType": "uint256",
          "name": "_costWei",
          "type": "uint256"
        },
        {
          "internalType": "uint256",
          "name": "_stock",
          "type": "uint256"
        }
      ],
      "name": "list",
      "outputs": [],
      "stateMutability": "nonpayable",
      "type": "function"
    },
    {
      "inputs": [
        {
          "internalType": "uint256",
          "name": "_id",
          "type": "uint256"
        },
        {
          "internalType": "uint256",
          "name": "quantity",
          "type": "uint256"
        }
      ],
      "name": "buy",
      "outputs": [],
      "stateMutability": "payable",
      "type": "function",
      "payable": true
    },
    {
      "inputs": [],
      "name": "withdraw",
      "outputs": [],
      "stateMutability": "nonpayable",
      "type": "function"
    },
    {
      "inputs": [
        {
          "internalType": "address",
          "name": "user",
          "type": "address"
        }
      ],
      "name": "getOrders",
      "outputs": [
        {
          "internalType": "uint256[]",
          "name": "",
          "type": "uint256[]"
        }
      ],
      "stateMutability": "view",
      "type": "function",
      "constant": true
    },
    {
      "inputs": [
        {
          "internalType": "uint256",
          "name": "_id",
          "type": "uint256"
        },
        {
          "internalType": "uint256",
          "name": "quantity",
          "type": "uint256"
        },
        {
          "internalType": "address",
          "name": "tokenAddress",
          "type": "address"
        }
      ],
      "name": "buyWithToken",
      "outputs": [],
      "stateMutability": "nonpayable",
      "type": "function"
    },
    {
      "inputs": [
        {
          "internalType": "uint256",
          "name": "_id",
          "type": "uint256"
        },
        {
          "internalType": "string",
          "name": "_name",
          "type": "string"
        },
        {
          "internalType": "string",
          "name": "_street",
          "type": "string"
        },
        {
          "internalType": "string",
          "name": "_city",
          "type": "string"
        },
        {
          "internalType": "string",
          "name": "_postalCode",
          "type": "string"
        },
        {
          "internalType": "string",
          "name": "_country",
          "type": "string"
        }
      ],
      "name": "setShippingInfo",
      "outputs": [],
      "stateMutability": "nonpayable",
      "type": "function"
    },
    {
      "inputs": [
        {
          "internalType": "uint256",
          "name": "_id",
          "type": "uint256"
        }
      ],
      "name": "markAsShipped",
      "outputs": [],
      "stateMutability": "nonpayable",
      "type": "function"
    }
  ],
  "bytecode": "0x60806040526001805534801561001457600080fd5b50336000806101000a81548173ffffffffffffffffffffffffffffffffffffffff021916908373ffffffffffffffffffffffffffffffffffffffff16021790555061243c806100646000396000f3fe6080604052600436106100a75760003560e01c80638da5cb5b116100645780638da5cb5b146101d3578063bd99840e146101fe578063bfb231d214610227578063d36223f11461026a578063d6febde814610293578063ec99490f146102af576100a7565b8063093376fe146100ac5780633b1f8887146100e95780633ccfd60b1461011257806360e50f40146101295780636bfb0d011461016b578063793b8c6d14610196575b600080fd5b3480156100b857600080fd5b506100d360048036038101906100ce9190611595565b6102d8565b6040516100e09190611c98565b60405180910390f35b3480156100f557600080fd5b50610110600480360381019061010b919061170b565b61036f565b005b34801561011e57600080fd5b50610127610569565b005b34801561013557600080fd5b50610150600480360381019061014b91906116e2565b6106a9565b60405161016296959493929190611cba565b60405180910390f35b34801561017757600080fd5b5061018061099a565b60405161018d9190611e91565b60405180910390f35b3480156101a257600080fd5b506101bd60048036038101906101b891906115be565b6109a0565b6040516101ca9190611e91565b60405180910390f35b3480156101df57600080fd5b506101e86109d1565b6040516101f59190611c46565b60405180910390f35b34801561020a57600080fd5b50610225600480360381019061022091906116e2565b6109f5565b005b34801561023357600080fd5b5061024e600480360381019061024991906116e2565b610bce565b6040516102619796959493929190611f3e565b60405180910390f35b34801561027657600080fd5b50610291600480360381019061028c9190611848565b610dc8565b005b6102ad60048036038101906102a8919061180c565b611052565b005b3480156102bb57600080fd5b506102d660048036038101906102d19190611623565b6112cd565b005b6060600360008373ffffffffffffffffffffffffffffffffffffffff1673ffffffffffffffffffffffffffffffffffffffff16815260200190815260200160002080548060200260200160405190810160405280929190818152602001828054801561036357602002820191906000526020600020905b81548152602001906001019080831161034f575b50505050509050919050565b856002600082815260200190815260200160002060060160009054906101000a900473ffffffffffffffffffffffffffffffffffffffff1673ffffffffffffffffffffffffffffffffffffffff163373ffffffffffffffffffffffffffffffffffffffff16148061042b575060008054906101000a900473ffffffffffffffffffffffffffffffffffffffff1673ffffffffffffffffffffffffffffffffffffffff163373ffffffffffffffffffffffffffffffffffffffff16145b61046a576040517f08c379a000000000000000000000000000000000000000000000000000000000815260040161046190611e71565b60405180910390fd5b60006004600089815260200190815260200160002090508681600001908051906020019061049992919061144b565b50858160010190805190602001906104b292919061144b565b50848160020190805190602001906104cb92919061144b565b50838160030190805190602001906104e492919061144b565b50828160040190805190602001906104fd92919061144b565b5060008160050160006101000a81548160ff0219169083151502179055507fcf35fb4889371f55aafdfd77394e8bfb940cd904fce13641f87ee92f5113096d88888888888860006040516105579796959493929190611eac565b60405180910390a15050505050505050565b60008054906101000a900473ffffffffffffffffffffffffffffffffffffffff1673ffffffffffffffffffffffffffffffffffffffff163373ffffffffffffffffffffffffffffffffffffffff16146105f7576040517f08c379a00000000000000000000000000000000000000000000000000000000081526004016105ee90611d91565b60405180910390fd5b60004790506000811161063f576040517f08c379a000000000000000000000000000000000000000000000000000000000815260040161063690611df1565b60405180910390fd5b60008054906101000a900473ffffffffffffffffffffffffffffffffffffffff1673ffffffffffffffffffffffffffffffffffffffff166108fc829081150290604051600060405180830381858888f193505050501580156106a5573d6000803e3d6000fd5b5050565b60046020528060005260406000206000915090508060000180546106cc906122a8565b80601f01602080910402602001604051908101604052809291908181526020018280546106f8906122a8565b80156107455780601f1061071a57610100808354040283529160200191610745565b820191906000526020600020905b81548152906001019060200180831161072857829003601f168201915b50505050509080600101805461075a906122a8565b80601f0160208091040260200160405190810160405280929190818152602001828054610786906122a8565b80156107d35780601f106107a8576101008083540402835291602001916107d3565b820191906000526020600020905b8154815290600101906020018083116107b657829003601f168201915b5050505050908060020180546107e8906122a8565b80601f0160208091040260200160405190810160405280929190818152602001828054610814906122a8565b80156108615780601f1061083657610100808354040283529160200191610861565b820191906000526020600020905b81548152906001019060200180831161084457829003601f168201915b505050505090806003018054610876906122a8565b80601f01602080910402602001604051908101604052809291908181526020018280546108a2906122a8565b80156108ef5780601f106108c4576101008083540402835291602001916108ef565b820191906000526020600020905b8154815290600101906020018083116108d257829003601f168201915b505050505090806004018054610904906122a8565b80601f0160208091040260200160405190810160405280929190818152602001828054610930906122a8565b801561097d5780601f106109525761010080835404028352916020019161097d565b820191906000526020600020905b81548152906001019060200180831161096057829003601f168201915b5050505050908060050160009054906101000a900460ff16905086565b60015481565b600360205281600052604060002081815481106109bc57600080fd5b90600052602060002001600091509150505481565b60008054906101000a900473ffffffffffffffffffffffffffffffffffffffff1681565b806002600082815260200190815260200160002060060160009054906101000a900473ffffffffffffffffffffffffffffffffffffffff1673ffffffffffffffffffffffffffffffffffffffff163373ffffffffffffffffffffffffffffffffffffffff161480610ab1575060008054906101000a900473ffffffffffffffffffffffffffffffffffffffff1673ffffffffffffffffffffffffffffffffffffffff163373ffffffffffffffffffffffffffffffffffffffff16145b610af0576040517f08c379a0000000000000000000000000000000000000000000000000000000008152600401610ae790611e71565b60405180910390fd5b60006004600084815260200190815260200160002090508060050160009054906101000a900460ff1615610b59576040517f08c379a0000000000000000000000000000000000000000000000000000000008152600401610b5090611e11565b60405180910390fd5b60018160050160006101000a81548160ff0219169083151502179055507fcf35fb4889371f55aafdfd77394e8bfb940cd904fce13641f87ee92f5113096d8382600001836001018460020185600301866004016001604051610bc19796959493929190611fc2565b60405180910390a1505050565b6002602052806000526040600020600091509050806000015490806001018054610bf7906122a8565b80601f0160208091040260200160405190810160405280929190818152602001828054610c23906122a8565b8015610c705780601f10610c4557610100808354040283529160200191610c70565b820191906000526020600020905b815481529060010190602001808311610c5357829003601f168201915b505050505090806002018054610c85906122a8565b80601f0160208091040260200160405190810160405280929190818152602001828054610cb1906122a8565b8015610cfe5780601f10610cd357610100808354040283529160200191610cfe565b820191906000526020600020905b815481529060010190602001808311610ce157829003601f168201915b505050505090806003018054610d13906122a8565b80601f0160208091040260200160405190810160405280929190818152602001828054610d3f906122a8565b8015610d8c5780601f10610d6157610100808354040283529160200191610d8c565b820191906000526020600020905b815481529060010190602001808311610d6f57829003601f168201915b5050505050908060040154908060050154908060060160009054906101000a900473ffffffffffffffffffffffffffffffffffffffff16905087565b6000600260008581526020019081526020016000209050600081600001541415610e27576040517f08c379a0000000000000000000000000000000000000000000000000000000008152600401610e1e90611e31565b60405180910390fd5b8281600501541015610e6e576040517f08c379a0000000000000000000000000000000000000000000000000000000008152600401610e6590611dd1565b60405180910390fd5b60008290506000848360040154610e859190612148565b90508173ffffffffffffffffffffffffffffffffffffffff166323b872dd338560060160009054906101000a900473ffffffffffffffffffffffffffffffffffffffff16846040518463ffffffff1660e01b8152600401610ee893929190611c61565b602060405180830381600087803b158015610f0257600080fd5b505af1158015610f16573d6000803e3d6000fd5b505050506040513d601f19601f82011682018060405250810190610f3a91906115fa565b610f79576040517f08c379a0000000000000000000000000000000000000000000000000000000008152600401610f7090611db1565b60405180910390fd5b84836005016000828254610f8d91906121a2565b92505081905550600360003373ffffffffffffffffffffffffffffffffffffffff1673ffffffffffffffffffffffffffffffffffffffff1681526020019081526020016000208690806001815401808255809150506001900390600052602060002001600090919091909150553373ffffffffffffffffffffffffffffffffffffffff167f1cbc5ab135991bd2b6a4b034a04aa2aa086dac1371cb9b16b8b5e2ed6b036bed8787604051611042929190612054565b60405180910390a2505050505050565b6000600260008481526020019081526020016000206000015414156110ac576040517f08c379a00000000000000000000000000000000000000000000000000000000081526004016110a390611e31565b60405180910390fd5b8060026000848152602001908152602001600020600501541015611105576040517f08c379a00000000000000000000000000000000000000000000000000000000081526004016110fc90611dd1565b60405180910390fd5b8060026000848152602001908152602001600020600401546111279190612148565b341015611169576040517f08c379a000000000000000000000000000000000000000000000000000000000815260040161116090611e51565b60405180910390fd5b8060026000848152602001908152602001600020600501600082825461118f91906121a2565b92505081905550600360003373ffffffffffffffffffffffffffffffffffffffff1673ffffffffffffffffffffffffffffffffffffffff1681526020019081526020016000208290806001815401808255809150506001900390600052602060002001600090919091909150553373ffffffffffffffffffffffffffffffffffffffff167f1cbc5ab135991bd2b6a4b034a04aa2aa086dac1371cb9b16b8b5e2ed6b036bed8383604051611244929190612054565b60405180910390a26002600083815260200190815260200160002060060160009054906101000a900473ffffffffffffffffffffffffffffffffffffffff1673ffffffffffffffffffffffffffffffffffffffff166108fc349081150290604051600060405180830381858888f193505050501580156112c8573d6000803e3d6000fd5b505050565b6040518060e0016040528060015481526020018681526020018581526020018481526020018381526020018281526020013373ffffffffffffffffffffffffffffffffffffffff1681525060026000600154815260200190815260200160002060008201518160000155602082015181600101908051906020019061135392919061144b565b50604082015181600201908051906020019061137092919061144b565b50606082015181600301908051906020019061138d92919061144b565b506080820151816004015560a0820151816005015560c08201518160060160006101000a81548173ffffffffffffffffffffffffffffffffffffffff021916908373ffffffffffffffffffffffffffffffffffffffff1602179055509050506001547fa2b34b9687850077f91d3af33b718e20381ed9b4d62ed396d881ec534a494d26868585856040516114249493929190611d3e565b60405180910390a26001600081548092919061143f906122da565b91905055505050505050565b828054611457906122a8565b90600052602060002090601f01602090048101928261147957600085556114c0565b82601f1061149257805160ff19168380011785556114c0565b828001600101855582156114c0579182015b828111156114bf5782518255916020019190600101906114a4565b5b5090506114cd91906114d1565b5090565b5b808211156114ea5760008160009055506001016114d2565b5090565b60006115016114fc846120ae565b61207d565b90508281526020810184848401111561151957600080fd5b611524848285612266565b509392505050565b60008135905061153b816123c1565b92915050565b600081519050611550816123d8565b92915050565b600082601f83011261156757600080fd5b81356115778482602086016114ee565b91505092915050565b60008135905061158f816123ef565b92915050565b6000602082840312156115a757600080fd5b60006115b58482850161152c565b91505092915050565b600080604083850312156115d157600080fd5b60006115df8582860161152c565b92505060206115f085828601611580565b9150509250929050565b60006020828403121561160c57600080fd5b600061161a84828501611541565b91505092915050565b600080600080600060a0868803121561163b57600080fd5b600086013567ffffffffffffffff81111561165557600080fd5b61166188828901611556565b955050602086013567ffffffffffffffff81111561167e57600080fd5b61168a88828901611556565b945050604086013567ffffffffffffffff8111156116a757600080fd5b6116b388828901611556565b93505060606116c488828901611580565b92505060806116d588828901611580565b9150509295509295909350565b6000602082840312156116f457600080fd5b600061170284828501611580565b91505092915050565b60008060008060008060c0878903121561172457600080fd5b600061173289828a01611580565b965050602087013567ffffffffffffffff81111561174f57600080fd5b61175b89828a01611556565b955050604087013567ffffffffffffffff81111561177857600080fd5b61178489828a01611556565b945050606087013567ffffffffffffffff8111156117a157600080fd5b6117ad89828a01611556565b935050608087013567ffffffffffffffff8111156117ca57600080fd5b6117d689828a01611556565b92505060a087013567ffffffffffffffff8111156117f357600080fd5b6117ff89828a01611556565b9150509295509295509295565b6000806040838503121561181f57600080fd5b600061182d85828601611580565b925050602061183e85828601611580565b9150509250929050565b60008060006060848603121561185d57600080fd5b600061186b86828701611580565b935050602061187c86828701611580565b925050604061188d8682870161152c565b9150509250925092565b60006118a38383611c28565b60208301905092915050565b6118b881612230565b82525050565b6118c7816121e8565b82525050565b6118d6816121d6565b82525050565b60006118e782612103565b6118f18185612126565b93506118fc836120de565b8060005b8381101561192d5781516119148882611897565b975061191f83612119565b925050600181019050611900565b5085935050505092915050565b611943816121fa565b82525050565b60006119548261210e565b61195e8185612137565b935061196e818560208601612275565b611977816123b0565b840191505092915050565b6000815461198f816122a8565b6119998186612137565b945060018216600081146119b457600181146119c6576119f9565b60ff19831686526020860193506119f9565b6119cf856120ee565b60005b838110156119f1578154818901526001820191506020810190506119d2565b808801955050505b50505092915050565b6000611a0f602583612137565b91507f4f6e6c7920746865206f776e65722063616e2063616c6c20746869732066756e60008301527f6374696f6e0000000000000000000000000000000000000000000000000000006020830152604082019050919050565b6000611a75601983612137565b91507f4661696c656420746f207472616e7366657220746f6b656e73000000000000006000830152602082019050919050565b6000611ab5601283612137565b91507f496e73756666696369656e742073746f636b00000000000000000000000000006000830152602082019050919050565b6000611af5600c83612137565b91507f42616c616e6365206973203000000000000000000000000000000000000000006000830152602082019050919050565b6000611b35601483612137565b91507f4974656d20616c726561647920736869707065640000000000000000000000006000830152602082019050919050565b6000611b75601383612137565b91507f4974656d20646f6573206e6f74206578697374000000000000000000000000006000830152602082019050919050565b6000611bb5601583612137565b91507f4e6f7420656e6f7567682065746865722073656e7400000000000000000000006000830152602082019050919050565b6000611bf5600e83612137565b91507f4e6f7420617574686f72697a65640000000000000000000000000000000000006000830152602082019050919050565b611c3181612226565b82525050565b611c4081612226565b82525050565b6000602082019050611c5b60008301846118cd565b92915050565b6000606082019050611c7660008301866118cd565b611c8360208301856118af565b611c906040830184611c37565b949350505050565b60006020820190508181036000830152611cb281846118dc565b905092915050565b600060c0820190508181036000830152611cd48189611949565b90508181036020830152611ce88188611949565b90508181036040830152611cfc8187611949565b90508181036060830152611d108186611949565b90508181036080830152611d248185611949565b9050611d3360a083018461193a565b979650505050505050565b60006080820190508181036000830152611d588187611949565b90508181036020830152611d6c8186611949565b9050611d7b6040830185611c37565b611d886060830184611c37565b95945050505050565b60006020820190508181036000830152611daa81611a02565b9050919050565b60006020820190508181036000830152611dca81611a68565b9050919050565b60006020820190508181036000830152611dea81611aa8565b9050919050565b60006020820190508181036000830152611e0a81611ae8565b9050919050565b60006020820190508181036000830152611e2a81611b28565b9050919050565b60006020820190508181036000830152611e4a81611b68565b9050919050565b60006020820190508181036000830152611e6a81611ba8565b9050919050565b60006020820190508181036000830152611e8a81611be8565b9050919050565b6000602082019050611ea66000830184611c37565b92915050565b600060e082019050611ec1600083018a611c37565b8181036020830152611ed38189611949565b90508181036040830152611ee78188611949565b90508181036060830152611efb8187611949565b90508181036080830152611f0f8186611949565b905081810360a0830152611f238185611949565b9050611f3260c083018461193a565b98975050505050505050565b600060e082019050611f53600083018a611c37565b8181036020830152611f658189611949565b90508181036040830152611f798188611949565b90508181036060830152611f8d8187611949565b9050611f9c6080830186611c37565b611fa960a0830185611c37565b611fb660c08301846118be565b98975050505050505050565b600060e082019050611fd7600083018a611c37565b8181036020830152611fe98189611982565b90508181036040830152611ffd8188611982565b905081810360608301526120118187611982565b905081810360808301526120258186611982565b905081810360a08301526120398185611982565b905061204860c083018461193a565b98975050505050505050565b60006040820190506120696000830185611c37565b6120766020830184611c37565b9392505050565b6000604051905081810181811067ffffffffffffffff821117156120a4576120a3612381565b5b8060405250919050565b600067ffffffffffffffff8211156120c9576120c8612381565b5b601f19601f8301169050602081019050919050565b6000819050602082019050919050565b60008190508160005260206000209050919050565b600081519050919050565b600081519050919050565b6000602082019050919050565b600082825260208201905092915050565b600082825260208201905092915050565b600061215382612226565b915061215e83612226565b9250817fffffffffffffffffffffffffffffffffffffffffffffffffffffffffffffffff048311821515161561219757612196612323565b5b828202905092915050565b60006121ad82612226565b91506121b883612226565b9250828210156121cb576121ca612323565b5b828203905092915050565b60006121e182612206565b9050919050565b60006121f382612206565b9050919050565b60008115159050919050565b600073ffffffffffffffffffffffffffffffffffffffff82169050919050565b6000819050919050565b600061223b82612242565b9050919050565b600061224d82612254565b9050919050565b600061225f82612206565b9050919050565b82818337600083830152505050565b60005b83811015612293578082015181840152602081019050612278565b838111156122a2576000848401525b50505050565b600060028204905060018216806122c057607f821691505b602082108114156122d4576122d3612352565b5b50919050565b60006122e582612226565b91507fffffffffffffffffffffffffffffffffffffffffffffffffffffffffffffffff82141561231857612317612323565b5b600182019050919050565b7f4e487b7100000000000000000000000000000000000000000000000000000000600052601160045260246000fd5b7f4e487b7100000000000000000000000000000000000000000000000000000000600052602260045260246000fd5b7f4e487b7100000000000000000000000000000000000000000000000000000000600052604160045260246000fd5b6000601f19601f8301169050919050565b6123ca816121d6565b81146123d557600080fd5b50565b6123e1816121fa565b81146123ec57600080fd5b50565b6123f881612226565b811461240357600080fd5b5056fea264697066735822122077752fb7ef187d0bb88e1148349f5b5ba9cfbb049c976f70ab67b2999d1a8f8c64736f6c63430008000033",
  "immutableReferences": {},
  "source": "// SPDX-License-Identifier: UNLICENSED\r\npragma solidity ^0.8.0;\r\n\r\ninterface IERC20 {\r\n    function transfer(address to, uint256 amount) external returns (bool);\r\n    function approve(address spender, uint256 amount) external returns (bool);\r\n    function transferFrom(address from, address to, uint256 amount) external returns (bool);\r\n    function balanceOf(address owner) external view returns (uint256);\r\n}\r\n\r\ncontract Amazon {\r\n    address public owner;\r\n    uint256 public itemCount = 1;  // Start from 1 to avoid zero initialization issues\r\n\r\n    struct Item {\r\n        uint256 id;\r\n        string name;\r\n        string category;\r\n        string imageUrl;\r\n        uint256 cost;\r\n        uint256 stock;\r\n        address payable seller;  // Store the seller's address\r\n    }\r\n\r\n    struct ShippingInfo {\r\n        string name;\r\n        string street;\r\n        string city;\r\n        string postalCode;\r\n        string country;\r\n        bool shipped;\r\n    }\r\n\r\n    mapping(uint256 => Item) public items;\r\n    mapping(address => uint256[]) public orders;\r\n    mapping(uint256 => ShippingInfo) public shippingDetails;\r\n\r\n    event Buy(address indexed buyer, uint256 itemId, uint256 quantity);\r\n    event List(uint256 indexed itemId, string name, string imageUrl, uint256 cost, uint256 stock);\r\n    event ShippingUpdated(uint256 itemId, string name, string street, string city, string postalCode, string country, bool shipped);\r\n\r\n    modifier onlyOwner() {\r\n        require(msg.sender == owner, \"Only the owner can call this function\");\r\n        _;\r\n    }\r\n\r\n    modifier onlySellerOrOwner(uint256 itemId) {\r\n        require(msg.sender == items[itemId].seller || msg.sender == owner, \"Not authorized\");\r\n        _;\r\n    }\r\n\r\n    constructor() {\r\n        owner = msg.sender;\r\n    }\r\n\r\n    function list(\r\n        string memory _name,\r\n        string memory _category,\r\n        string memory _imageUrl,\r\n        uint256 _costWei,\r\n        uint256 _stock\r\n    ) public {\r\n        items[itemCount] = Item({\r\n            id: itemCount,\r\n            name: _name,\r\n            category: _category,\r\n            imageUrl: _imageUrl,\r\n            cost: _costWei,\r\n            stock: _stock,\r\n            seller: payable(msg.sender)  // Set the seller to the message sender\r\n        });\r\n        emit List(itemCount, _name, _imageUrl, _costWei, _stock);\r\n        itemCount++;\r\n    }\r\n\r\n    function buy(uint256 _id, uint256 quantity) public payable {\r\n        require(items[_id].id != 0, \"Item does not exist\");\r\n        require(items[_id].stock >= quantity, \"Insufficient stock\");\r\n        require(msg.value >= items[_id].cost * quantity, \"Not enough ether sent\");\r\n\r\n        items[_id].stock -= quantity;\r\n        orders[msg.sender].push(_id);\r\n\r\n        emit Buy(msg.sender, _id, quantity);\r\n        items[_id].seller.transfer(msg.value);  // Pay the seller directly\r\n    }\r\n\r\n    function withdraw() public onlyOwner {\r\n        uint256 balance = address(this).balance;\r\n        require(balance > 0, \"Balance is 0\");\r\n        payable(owner).transfer(balance);\r\n    }\r\n\r\n    function getOrders(address user) public view returns (uint256[] memory) {\r\n        return orders[user];\r\n    }\r\n\r\n    function buyWithToken(uint256 _id, uint256 quantity, address tokenAddress) public {\r\n        Item storage item = items[_id];\r\n        require(item.id != 0, \"Item does not exist\");\r\n        require(item.stock >= quantity, \"Insufficient stock\");\r\n        \r\n        IERC20 token = IERC20(tokenAddress);\r\n        uint256 totalCost = item.cost * quantity;\r\n        require(token.transferFrom(msg.sender, item.seller, totalCost), \"Failed to transfer tokens\");\r\n\r\n        item.stock -= quantity;\r\n        orders[msg.sender].push(_id);\r\n        emit Buy(msg.sender, _id, quantity);\r\n    }\r\n\r\n    function setShippingInfo(\r\n        uint256 _id,\r\n        string memory _name,\r\n        string memory _street,\r\n        string memory _city,\r\n        string memory _postalCode,\r\n        string memory _country\r\n    ) public onlySellerOrOwner(_id) {\r\n        ShippingInfo storage info = shippingDetails[_id];\r\n        info.name = _name;\r\n        info.street = _street;\r\n        info.city = _city;\r\n        info.postalCode = _postalCode;\r\n        info.country = _country;\r\n        info.shipped = false;\r\n        emit ShippingUpdated(_id, _name, _street, _city, _postalCode, _country, false);\r\n    }\r\n\r\n    function markAsShipped(uint256 _id) public onlySellerOrOwner(_id) {\r\n        ShippingInfo storage info = shippingDetails[_id];\r\n        require(!info.shipped, \"Item already shipped\");\r\n        info.shipped = true;\r\n        emit ShippingUpdated(_id, info.name, info.street, info.city, info.postalCode, info.country, true);\r\n    }\r\n}\r\n",
  "sourcePath": "C:\\Users\\marti\\Documents\\projects\\web-3-amazon\\contracts\\Amazon.sol",
  "compiler": {
    "name": "solc",
    "version": "0.8.0+commit.c7dfd78e.Emscripten.clang"
  },
  "schemaVersion": "3.4.16",
  "updatedAt": "2024-04-16T09:41:10.737Z",
  "networkType": "ethereum",
  "devdoc": {
    "kind": "dev",
    "methods": {},
    "version": 1
  },
  "userdoc": {
    "kind": "user",
    "methods": {},
    "version": 1
  }
}