{
  "contractName": "Amazon",
  "abi": [
    {
      "inputs": [],
      "stateMutability": "nonpayable",
      "type": "constructor"
    },
    {
      "anonymous": false,
      "inputs": [
        {
          "indexed": false,
          "internalType": "address",
          "name": "buyer",
          "type": "address"
        },
        {
          "indexed": false,
          "internalType": "uint256",
          "name": "orderId",
          "type": "uint256"
        },
        {
          "indexed": false,
          "internalType": "uint256",
          "name": "itemId",
          "type": "uint256"
        }
      ],
      "name": "Buy",
      "type": "event"
    },
    {
      "anonymous": false,
      "inputs": [
        {
          "indexed": false,
          "internalType": "string",
          "name": "name",
          "type": "string"
        },
        {
          "indexed": false,
          "internalType": "uint256",
          "name": "cost",
          "type": "uint256"
        },
        {
          "indexed": false,
          "internalType": "uint256",
          "name": "quantity",
          "type": "uint256"
        }
      ],
      "name": "List",
      "type": "event"
    },
    {
      "inputs": [],
      "name": "itemCount",
      "outputs": [
        {
          "internalType": "uint256",
          "name": "",
          "type": "uint256"
        }
      ],
      "stateMutability": "view",
      "type": "function",
      "constant": true
    },
    {
      "inputs": [
        {
          "internalType": "uint256",
          "name": "",
          "type": "uint256"
        }
      ],
      "name": "items",
      "outputs": [
        {
          "internalType": "uint256",
          "name": "id",
          "type": "uint256"
        },
        {
          "internalType": "string",
          "name": "name",
          "type": "string"
        },
        {
          "internalType": "string",
          "name": "category",
          "type": "string"
        },
        {
          "internalType": "string",
          "name": "image",
          "type": "string"
        },
        {
          "internalType": "uint256",
          "name": "cost",
          "type": "uint256"
        },
        {
          "internalType": "uint256",
          "name": "rating",
          "type": "uint256"
        },
        {
          "internalType": "uint256",
          "name": "stock",
          "type": "uint256"
        }
      ],
      "stateMutability": "view",
      "type": "function",
      "constant": true
    },
    {
      "inputs": [
        {
          "internalType": "address",
          "name": "",
          "type": "address"
        }
      ],
      "name": "orderCount",
      "outputs": [
        {
          "internalType": "uint256",
          "name": "",
          "type": "uint256"
        }
      ],
      "stateMutability": "view",
      "type": "function",
      "constant": true
    },
    {
      "inputs": [
        {
          "internalType": "address",
          "name": "",
          "type": "address"
        },
        {
          "internalType": "uint256",
          "name": "",
          "type": "uint256"
        }
      ],
      "name": "orders",
      "outputs": [
        {
          "internalType": "uint256",
          "name": "time",
          "type": "uint256"
        },
        {
          "components": [
            {
              "internalType": "uint256",
              "name": "id",
              "type": "uint256"
            },
            {
              "internalType": "string",
              "name": "name",
              "type": "string"
            },
            {
              "internalType": "string",
              "name": "category",
              "type": "string"
            },
            {
              "internalType": "string",
              "name": "image",
              "type": "string"
            },
            {
              "internalType": "uint256",
              "name": "cost",
              "type": "uint256"
            },
            {
              "internalType": "uint256",
              "name": "rating",
              "type": "uint256"
            },
            {
              "internalType": "uint256",
              "name": "stock",
              "type": "uint256"
            }
          ],
          "internalType": "struct Amazon.Item",
          "name": "item",
          "type": "tuple"
        }
      ],
      "stateMutability": "view",
      "type": "function",
      "constant": true
    },
    {
      "inputs": [],
      "name": "owner",
      "outputs": [
        {
          "internalType": "address",
          "name": "",
          "type": "address"
        }
      ],
      "stateMutability": "view",
      "type": "function",
      "constant": true
    },
    {
      "inputs": [
        {
          "internalType": "uint256",
          "name": "_id",
          "type": "uint256"
        },
        {
          "internalType": "string",
          "name": "_name",
          "type": "string"
        },
        {
          "internalType": "string",
          "name": "_category",
          "type": "string"
        },
        {
          "internalType": "string",
          "name": "_image",
          "type": "string"
        },
        {
          "internalType": "uint256",
          "name": "_cost",
          "type": "uint256"
        },
        {
          "internalType": "uint256",
          "name": "_rating",
          "type": "uint256"
        },
        {
          "internalType": "uint256",
          "name": "_stock",
          "type": "uint256"
        }
      ],
      "name": "list",
      "outputs": [],
      "stateMutability": "nonpayable",
      "type": "function"
    },
    {
      "inputs": [
        {
          "internalType": "uint256",
          "name": "_id",
          "type": "uint256"
        }
      ],
      "name": "buy",
      "outputs": [],
      "stateMutability": "payable",
      "type": "function",
      "payable": true
    },
    {
      "inputs": [],
      "name": "withdraw",
      "outputs": [],
      "stateMutability": "nonpayable",
      "type": "function"
    }
  ],
  "bytecode": "0x608060405234801561001057600080fd5b50336000806101000a81548173ffffffffffffffffffffffffffffffffffffffff021916908373ffffffffffffffffffffffffffffffffffffffff160217905550611546806100606000396000f3fe60806040526004361061007b5760003560e01c80638da5cb5b1161004e5780638da5cb5b1461013d578063bfb231d214610168578063d96a094a146101ab578063eea8a7e8146101c75761007b565b80633ccfd60b146100805780636bfb0d0114610097578063713d856b146100c2578063793b8c6d146100ff575b600080fd5b34801561008c57600080fd5b506100956101f0565b005b3480156100a357600080fd5b506100ac6102e2565b6040516100b991906111af565b60405180910390f35b3480156100ce57600080fd5b506100e960048036038101906100e49190610e33565b6102e8565b6040516100f691906111af565b60405180910390f35b34801561010b57600080fd5b5061012660048036038101906101219190610e5c565b610300565b60405161013492919061124e565b60405180910390f35b34801561014957600080fd5b50610152610519565b60405161015f919061111f565b60405180910390f35b34801561017457600080fd5b5061018f600480360381019061018a9190610e98565b61053d565b6040516101a297969594939291906111ca565b60405180910390f35b6101c560048036038101906101c09190610e98565b610717565b005b3480156101d357600080fd5b506101ee60048036038101906101e99190610ec1565b610b7c565b005b60008054906101000a900473ffffffffffffffffffffffffffffffffffffffff1673ffffffffffffffffffffffffffffffffffffffff163373ffffffffffffffffffffffffffffffffffffffff161461024857600080fd5b60008060009054906101000a900473ffffffffffffffffffffffffffffffffffffffff1673ffffffffffffffffffffffffffffffffffffffff164760405161028f9061110a565b60006040518083038185875af1925050503d80600081146102cc576040519150601f19603f3d011682016040523d82523d6000602084013e6102d1565b606091505b50509050806102df57600080fd5b50565b60015481565b60046020528060005260406000206000915090505481565b600360205281600052604060002060205280600052604060002060009150915050806000015490806001016040518060e001604052908160008201548152602001600182018054610350906113c9565b80601f016020809104026020016040519081016040528092919081815260200182805461037c906113c9565b80156103c95780601f1061039e576101008083540402835291602001916103c9565b820191906000526020600020905b8154815290600101906020018083116103ac57829003601f168201915b505050505081526020016002820180546103e2906113c9565b80601f016020809104026020016040519081016040528092919081815260200182805461040e906113c9565b801561045b5780601f106104305761010080835404028352916020019161045b565b820191906000526020600020905b81548152906001019060200180831161043e57829003601f168201915b50505050508152602001600382018054610474906113c9565b80601f01602080910402602001604051908101604052809291908181526020018280546104a0906113c9565b80156104ed5780601f106104c2576101008083540402835291602001916104ed565b820191906000526020600020905b8154815290600101906020018083116104d057829003601f168201915b505050505081526020016004820154815260200160058201548152602001600682015481525050905082565b60008054906101000a900473ffffffffffffffffffffffffffffffffffffffff1681565b6002602052806000526040600020600091509050806000015490806001018054610566906113c9565b80601f0160208091040260200160405190810160405280929190818152602001828054610592906113c9565b80156105df5780601f106105b4576101008083540402835291602001916105df565b820191906000526020600020905b8154815290600101906020018083116105c257829003601f168201915b5050505050908060020180546105f4906113c9565b80601f0160208091040260200160405190810160405280929190818152602001828054610620906113c9565b801561066d5780601f106106425761010080835404028352916020019161066d565b820191906000526020600020905b81548152906001019060200180831161065057829003601f168201915b505050505090806003018054610682906113c9565b80601f01602080910402602001604051908101604052809291908181526020018280546106ae906113c9565b80156106fb5780601f106106d0576101008083540402835291602001916106fb565b820191906000526020600020905b8154815290600101906020018083116106de57829003601f168201915b5050505050908060040154908060050154908060060154905087565b6000600260008381526020019081526020016000206040518060e001604052908160008201548152602001600182018054610751906113c9565b80601f016020809104026020016040519081016040528092919081815260200182805461077d906113c9565b80156107ca5780601f1061079f576101008083540402835291602001916107ca565b820191906000526020600020905b8154815290600101906020018083116107ad57829003601f168201915b505050505081526020016002820180546107e3906113c9565b80601f016020809104026020016040519081016040528092919081815260200182805461080f906113c9565b801561085c5780601f106108315761010080835404028352916020019161085c565b820191906000526020600020905b81548152906001019060200180831161083f57829003601f168201915b50505050508152602001600382018054610875906113c9565b80601f01602080910402602001604051908101604052809291908181526020018280546108a1906113c9565b80156108ee5780601f106108c3576101008083540402835291602001916108ee565b820191906000526020600020905b8154815290600101906020018083116108d157829003601f168201915b5050505050815260200160048201548152602001600582015481526020016006820154815250509050806080015134101561092857600080fd5b60008160c001511161093957600080fd5b60006040518060400160405280428152602001838152509050600460003373ffffffffffffffffffffffffffffffffffffffff1673ffffffffffffffffffffffffffffffffffffffff16815260200190815260200160002060008154809291906109a2906113fb565b919050555080600360003373ffffffffffffffffffffffffffffffffffffffff1673ffffffffffffffffffffffffffffffffffffffff1681526020019081526020016000206000600460003373ffffffffffffffffffffffffffffffffffffffff1673ffffffffffffffffffffffffffffffffffffffff16815260200190815260200160002054815260200190815260200160002060008201518160000155602082015181600101600082015181600001556020820151816001019080519060200190610a70929190610cfe565b506040820151816002019080519060200190610a8d929190610cfe565b506060820151816003019080519060200190610aaa929190610cfe565b506080820151816004015560a0820151816005015560c08201518160060155505090505060018260c00151610adf9190611317565b60026000858152602001908152602001600020600601819055507f1cbc5ab135991bd2b6a4b034a04aa2aa086dac1371cb9b16b8b5e2ed6b036bed33600460003373ffffffffffffffffffffffffffffffffffffffff1673ffffffffffffffffffffffffffffffffffffffff168152602001908152602001600020548460000151604051610b6f9392919061113a565b60405180910390a1505050565b60008054906101000a900473ffffffffffffffffffffffffffffffffffffffff1673ffffffffffffffffffffffffffffffffffffffff163373ffffffffffffffffffffffffffffffffffffffff1614610bd457600080fd5b60006040518060e0016040528089815260200188815260200187815260200186815260200185815260200184815260200183815250905080600260008a8152602001908152602001600020600082015181600001556020820151816001019080519060200190610c45929190610cfe565b506040820151816002019080519060200190610c62929190610cfe565b506060820151816003019080519060200190610c7f929190610cfe565b506080820151816004015560a0820151816005015560c0820151816006015590505060016000815480929190610cb4906113fb565b91905055507ffdbe2a012c10ec01592653978eaa09b5ca60b143a0e617505b2ebcbd911ec5b8878584604051610cec93929190611171565b60405180910390a15050505050505050565b828054610d0a906113c9565b90600052602060002090601f016020900481019282610d2c5760008555610d73565b82601f10610d4557805160ff1916838001178555610d73565b82800160010185558215610d73579182015b82811115610d72578251825591602001919060010190610d57565b5b509050610d809190610d84565b5090565b5b80821115610d9d576000816000905550600101610d85565b5090565b6000610db4610daf846112af565b61127e565b905082815260208101848484011115610dcc57600080fd5b610dd7848285611387565b509392505050565b600081359050610dee816114e2565b92915050565b600082601f830112610e0557600080fd5b8135610e15848260208601610da1565b91505092915050565b600081359050610e2d816114f9565b92915050565b600060208284031215610e4557600080fd5b6000610e5384828501610ddf565b91505092915050565b60008060408385031215610e6f57600080fd5b6000610e7d85828601610ddf565b9250506020610e8e85828601610e1e565b9150509250929050565b600060208284031215610eaa57600080fd5b6000610eb884828501610e1e565b91505092915050565b600080600080600080600060e0888a031215610edc57600080fd5b6000610eea8a828b01610e1e565b975050602088013567ffffffffffffffff811115610f0757600080fd5b610f138a828b01610df4565b965050604088013567ffffffffffffffff811115610f3057600080fd5b610f3c8a828b01610df4565b955050606088013567ffffffffffffffff811115610f5957600080fd5b610f658a828b01610df4565b9450506080610f768a828b01610e1e565b93505060a0610f878a828b01610e1e565b92505060c0610f988a828b01610e1e565b91505092959891949750929550565b610fb08161134b565b82525050565b6000610fc1826112df565b610fcb81856112f5565b9350610fdb818560208601611396565b610fe4816114d1565b840191505092915050565b6000610ffa826112df565b6110048185611306565b9350611014818560208601611396565b61101d816114d1565b840191505092915050565b60006110356000836112ea565b9150600082019050919050565b600060e08301600083015161105a60008601826110ec565b50602083015184820360208601526110728282610fb6565b9150506040830151848203604086015261108c8282610fb6565b915050606083015184820360608601526110a68282610fb6565b91505060808301516110bb60808601826110ec565b5060a08301516110ce60a08601826110ec565b5060c08301516110e160c08601826110ec565b508091505092915050565b6110f58161137d565b82525050565b6111048161137d565b82525050565b600061111582611028565b9150819050919050565b60006020820190506111346000830184610fa7565b92915050565b600060608201905061114f6000830186610fa7565b61115c60208301856110fb565b61116960408301846110fb565b949350505050565b6000606082019050818103600083015261118b8186610fef565b905061119a60208301856110fb565b6111a760408301846110fb565b949350505050565b60006020820190506111c460008301846110fb565b92915050565b600060e0820190506111df600083018a6110fb565b81810360208301526111f18189610fef565b905081810360408301526112058188610fef565b905081810360608301526112198187610fef565b905061122860808301866110fb565b61123560a08301856110fb565b61124260c08301846110fb565b98975050505050505050565b600060408201905061126360008301856110fb565b81810360208301526112758184611042565b90509392505050565b6000604051905081810181811067ffffffffffffffff821117156112a5576112a46114a2565b5b8060405250919050565b600067ffffffffffffffff8211156112ca576112c96114a2565b5b601f19601f8301169050602081019050919050565b600081519050919050565b600081905092915050565b600082825260208201905092915050565b600082825260208201905092915050565b60006113228261137d565b915061132d8361137d565b9250828210156113405761133f611444565b5b828203905092915050565b60006113568261135d565b9050919050565b600073ffffffffffffffffffffffffffffffffffffffff82169050919050565b6000819050919050565b82818337600083830152505050565b60005b838110156113b4578082015181840152602081019050611399565b838111156113c3576000848401525b50505050565b600060028204905060018216806113e157607f821691505b602082108114156113f5576113f4611473565b5b50919050565b60006114068261137d565b91507fffffffffffffffffffffffffffffffffffffffffffffffffffffffffffffffff82141561143957611438611444565b5b600182019050919050565b7f4e487b7100000000000000000000000000000000000000000000000000000000600052601160045260246000fd5b7f4e487b7100000000000000000000000000000000000000000000000000000000600052602260045260246000fd5b7f4e487b7100000000000000000000000000000000000000000000000000000000600052604160045260246000fd5b6000601f19601f8301169050919050565b6114eb8161134b565b81146114f657600080fd5b50565b6115028161137d565b811461150d57600080fd5b5056fea2646970667358221220250da13620e3bfc2e654961c5db0266b482b64e03489fa04b3ad881404db378564736f6c63430008000033",
  "immutableReferences": {},
  "source": "// SPDX-License-Identifier: UNLICENSED\r\npragma solidity ^0.8.0;\r\n\r\ncontract Amazon {\r\n    address public owner;\r\n    uint256 public itemCount;\r\n\r\n    struct Item {\r\n        uint256 id;\r\n        string name;\r\n        string category;\r\n        string image;\r\n        uint256 cost;\r\n        uint256 rating;\r\n        uint256 stock;\r\n    }\r\n\r\n    struct Order {\r\n        uint256 time;\r\n        Item item;\r\n    }\r\n\r\n    mapping(uint256 => Item) public items;\r\n    mapping(address => mapping(uint256 => Order)) public orders;\r\n    mapping(address => uint256) public orderCount;\r\n\r\n    event Buy(address buyer, uint256 orderId, uint256 itemId);\r\n    event List(string name, uint256 cost, uint256 quantity);\r\n\r\n    modifier onlyOwner() {\r\n        require(msg.sender == owner);\r\n        _;\r\n    }\r\n\r\n    constructor() {\r\n        owner = msg.sender;\r\n    }\r\n\r\n    function list(\r\n        uint256 _id,\r\n        string memory _name,\r\n        string memory _category,\r\n        string memory _image,\r\n        uint256 _cost,\r\n        uint256 _rating,\r\n        uint256 _stock\r\n    ) public onlyOwner {\r\n        // Create Item\r\n        Item memory item = Item(\r\n            _id,\r\n            _name,\r\n            _category,\r\n            _image,\r\n            _cost,\r\n            _rating,\r\n            _stock\r\n        );\r\n\r\n        // Add Item to mapping\r\n        items[_id] = item;\r\n\r\n        // Increment the itemCount\r\n        itemCount++;\r\n\r\n        // Emit event\r\n        emit List(_name, _cost, _stock);\r\n    }\r\n\r\n    function buy(uint256 _id) public payable {\r\n        // Fetch item\r\n        Item memory item = items[_id];\r\n\r\n        // Require enough ether to buy item\r\n        require(msg.value >= item.cost);\r\n\r\n        // Require item is in stock\r\n        require(item.stock > 0);\r\n\r\n        // Create order\r\n        Order memory order = Order(block.timestamp, item);\r\n\r\n        // Add order for user\r\n        orderCount[msg.sender]++; // <-- Order ID\r\n        orders[msg.sender][orderCount[msg.sender]] = order;\r\n\r\n        // Subtract stock\r\n        items[_id].stock = item.stock - 1;\r\n\r\n        // Emit event\r\n        emit Buy(msg.sender, orderCount[msg.sender], item.id);\r\n    }\r\n\r\n    function withdraw() public onlyOwner {\r\n        (bool success, ) = owner.call{value: address(this).balance}(\"\");\r\n        require(success);\r\n    }\r\n}",
  "sourcePath": "C:\\Users\\marti\\Documents\\projects\\web-3-amazon\\contracts\\Amazon.sol",
  "compiler": {
    "name": "solc",
    "version": "0.8.0+commit.c7dfd78e.Emscripten.clang"
  },
  "schemaVersion": "3.4.16",
  "updatedAt": "2024-04-10T10:15:56.726Z",
  "networkType": "ethereum",
  "devdoc": {
    "kind": "dev",
    "methods": {},
    "version": 1
  },
  "userdoc": {
    "kind": "user",
    "methods": {},
    "version": 1
  }
}